:020000040800F2
:10000000C82A0020F10100085D1400081B14000834
:1000100059140008FB120008932300080000000098
:10002000000000000000000000000000B1190008FE
:10003000FF12000800000000070200080902000883
:100040000B0200080B0200080B0200080B0200085C
:100050000B0200080B0200080B0200080B0200084C
:100060000B0200080B0200080B0200080B0200083C
:100070000B0200080B0200080B0200080B0200082C
:100080000B0200080B0200080B0200080B0200081C
:100090000B0200080B0200080B0200080B0200080C
:1000A0000B0200088D1E00080B0200082D1D000821
:1000B0000B020008B91E00080B0200080B02000822
:1000C0000B0200080B0200080B0200080B020008DC
:1000D0000B020008C52100080B0200080B020008F3
:1000E0000B0200080B0200080B0200080B020008BC
:1000F0000B0200080B0200080B0200080B020008AC
:100100000B0200080B0200080B0200080B0200089B
:10011000A92100080B0200080B0200080B020008CE
:100120000B0200080B0200080B0200080B0200087B
:1001300000F002F800F04CF80AA090E8000C8244AD
:100140008344AAF10107DA4501D100F041F8AFF28A
:10015000090EBAE80F0013F0010F18BFFB1A43F0A5
:100160000103184784460000A4460000103A24BF4B
:1001700078C878C1FAD8520724BF30C830C144BF0C
:1001800004680C607047000000230024002500264E
:10019000103A28BF78C1FBD8520728BF30C148BFEA
:1001A0000B607047662903F06E80642900F09A8026
:1001B000002070471FB502F0AAFF00F06FFB04009B
:1001C0000020002102F0E0FCE0601FBD10B510BD72
:1001D00000F068FC1146FFF7EDFF02F09FFA00F017
:1001E00086FC03B4FFF7F2FF03BC02F0E8F800005E
:1001F0000948804709480047FEE7FEE7FEE7FEE7BB
:10020000FEE7FEE7FEE7FEE7FEE7FEE704480549F6
:10021000054A064B70470000AD1A0008310100087E
:10022000C8240020C82A0020C8260020C826002094
:10023000704700000FB4044910B503AA029800F0FB
:100240001BFB10BC5DF814FB240000200FB41CB590
:10025000084B06AA7B4469460090059800F0F3FA23
:1002600004460020694600F001FB20461CBC5DF8F6
:1002700014FB0000150600002DE9F04104460E466F
:1002800000200AE0E1682046884738B3252806D0D8
:10029000D4E901219047206A401C2062F2E7E1681E
:1002A000204600278847050018D0A5F141001928ED
:1002B00002D820354FF40067324629462046276091
:1002C000FFF770FF40B1012804D0F61D26F00706A5
:1002D0000836D7E7361DD5E72846D9E7206ABDE8B6
:1002E000F08100002DE9F0410746002510687529CE
:1002F000394616A411D0AFF30080002803DAC0F10C
:10030000000013A407E039688A0701D511A402E0B0
:10031000490704D510A4012501E0AFF300800021B6
:100320000A2307F1240607E0B0FBF3F203FB1200F7
:10033000303070541046491C0028F5D12B46224617
:100340003846BDE8F04100F00DB8000000000000A4
:100350002D0000002B0000002000000070477047B7
:10036000704770472DE9F0470D460446924699467E
:1003700000F124080168880604D5E06921F0100125
:10038000216000E00120A84202DDA0EB050700E0AB
:100390000027A16907EB050202EB0900A1EB0000B1
:1003A000A0612068C00602D42046AFF3008000267A
:1003B00008E0D4E901211AF806009047206A401CA1
:1003C000761C20624E45F4DB2068C0060AD5204624
:1003D000AFF3008006E0D4E9012130209047206A85
:1003E000401C2062381EA7F10107F4DC07E0D4E9C5
:1003F000012118F805009047206A401C2062281E41
:10040000A5F10105F3DC2046AFF30080206800066B
:1004100002D50220BDE8F0870120FBE770472DE9F7
:10042000FF4F0C461E464FF0FF378BB0D2E900015C
:10043000DDF860800A908A46C1F30A5505B93D4649
:10044000002108464FF00000BAF1000F00F4400010
:1004500005DA00EB80004FF4400101EA50004FEA5A
:100460009059B9F1010F00DDB9460A9850EA4A00E7
:100470000FD044F61050A5F2FF3545432F14B8F1C4
:10048000000F1FD07542291E1FDD4846C9F100022A
:100490001CE0B8F1010F4FF0000001D1F24307E07A
:1004A000302101E02154401CB042FBDB30460022E9
:1004B000002121540B99C1F80880C1E900200FB038
:1004C000BDE8F08FBD1B6D1CDDE74A4600DA6942CE
:1004D00006A800F06DFA06AB07CB03AB07C3504686
:1004E0000A9900F04FFB8DE80700A0F500501F3877
:1004F00000900398002D09DD42F21F014A4608448E
:1005000003A90390684600F0AEFD08E0A0F5005096
:100510004A461F3803A90390684600F0B8FD8DE8ED
:1005200007000004000C03D04FF0FF30410800E04A
:100530001046B8F1000F03D00022009215461FE0CC
:10054000751E06D400F0AEF902F1300262556D1E40
:10055000F8D5B3460122084302D000227F1C04E0F4
:100560002078302801D100227F1E002A099786D0EA
:100570001DE0112D07DA00F095F9303262556D1C3F
:1005800050EA0102F5D108430FD10021681E05E0B1
:10059000235C625C6354491C2254401E8142F7DB99
:1005A000AB46A81B401E099001E0009848B100200E
:1005B00004F80B000B98099AC0F80880C0E9002BDA
:1005C0007DE711264FF0000859E72DE9F04F8846E6
:1005D0000446D21D22F0070191B0D1E90001CDE916
:1005E0000A0101F0D8FE02460B98C00F01D02D2061
:1005F00007E02068810701D52B2002E0202101EAD5
:10060000C000032A099001D0072A05DB03464146B2
:10061000204600F08DF90EE12068800601D5E069E2
:1006200000E00620B8F1650F814606D0B8F1660FEC
:1006300018D0B8F1670F72D132E00020B9F1110F74
:10064000009001DB112301E009F101030AAA01A9CD
:100650000CA8FFF7E4FEDDE90C70002609F10105A6
:10066000834648E001204B4600904FF000470AAA1D
:1006700001A90CA8FFF7D3FEDDE90C050E990026B1
:10068000AB4619B909F1010100EB0105B9EB050011
:1006900003D4C0F1FF3609F10105A5EB09002BE0F9
:1006A000B9F1010F01DA4FF001090020B9F1110F82
:1006B0000090484601DD112300E003460AAA01A983
:1006C0000CA8FFF7ACFEDDE90C704D460026834612
:1006D000206800070AD4AB4500DA5D4601A8012D69
:1006E00004DD411911F8011C302907D04F4502DA09
:1006F00017F1040F04DA0120824610E06D1EEEE7C8
:10070000002F02DCED1B3E4403E0781CA84200DD14
:100710000546A7EB060000F1010A4FF000472068EC
:10072000000703D4AA4501DB4FF0FF3A0021B7F1DF
:10073000004F0DF143088DF8431022D002202B23E7
:10074000002F01DA7F422D230A22011EA0F10100B1
:1007500000DC4FB197FBF2F102FB117C0F460CF16C
:10076000300C08F801CDF0E7A8F101000370216812
:10077000090501D5452100E06521A0F1010800F837
:10078000011C09980FA9A1EB080707F1070700B1A1
:10079000012000EB050101EBEA70A1693844A1EBEF
:1007A0000000A0F10100A0612068C00602D420462C
:1007B000AFF30080099830B1D4E901219047206A55
:1007C00000F1010020622068C00620D52046AFF36A
:1007D00000801CE0002E04DBB34502DD01A8805D33
:1007E00000E03020D4E901219047206A761C401CAB
:1007F000BAF1010A20620AD100F050F8C06801681D
:10080000405CD4E901219047206A401C2062281EE8
:10081000A5F10105DEDC07E0D4E9012118F8010BA0
:100820009047206A401C2062381EA7F10107F3DCC4
:100830002046AFF30080022011B041E601694A1C56
:1008400002610878704700B58FB0CDE90131002111
:10085000059105497944CDE9031011466846FFF733
:100860000BFD0FB000BD0000E5FFFFFF0A6802F8B6
:10087000010B0A6070470000074B70B50C467B44C3
:10088000FFF7E1FF0546204600F004F910B14FF0F4
:10089000FF3070BD284670BDE71D0000004870475E
:1008A0008824002030B5B0F10A024FEA900E71F1B1
:1008B00000034EEA817EB0EB0E0061EB91014FEA3E
:1008C000101E4EEA017E10EB0E0041EB11114FEAB3
:1008D000102E4EEA016E10EB0E0041EB11214FEA93
:1008E000104E4EEA014E10EB0E0041EB1141401844
:1008F00041F100014FEAD00040EA41704FEAD101D6
:1009000010EB80054FEA810444EA907444EB010443
:100910006D1944EB0404521BA3414FF0000348BF80
:100920000A3200D530BD401C41F1000130BD00004D
:100930002DE9F04104461F4603260168072A01F409
:10094000006004DB08B116A505E016A503E008B1B8
:1009500015A500E015A521F010002060A069C01EBB
:10096000A0610FB1401EA0612046AFF300804FB1DF
:10097000D4E9012138469047206A401C2062C01CFF
:10098000206206E0206AFAE7D4E9012115F8010B9C
:100990009047761EF8D22046AFF30080BDE8F08184
:1009A0004E414E006E616E00494E4600696E660013
:1009B0002DE9F047814616468AB035487844D0E99B
:1009C000002380680092CDE90130314878440C382A
:1009D000D0E90223006903924FF03702CDE90430D9
:1009E00041F69B30014491FBF2F0A0F1800502FB3F
:1009F00010141B3C02D56442012000E00020DFF807
:100A000090A080460027FA44AAF1C60A0DE0E0074C
:100A100009D03246684607EB47010AEB810100F036
:100A200036FB8DE8070064107F1C002CEFD1184FB7
:100A30007F44B43F17E0E80713D007EB04100DF133
:100A4000180A90E80E00AAE80E00C068F04201D132
:100A500098190890324606A903A800F018FB03ABCA
:100A600007C36D10641C002DE5D132466946B8F10C
:100A7000000F03A802D000F0F6FA01E000F007FB37
:100A8000C9E90001C9F808200AB0BDE8F0870000F4
:100A9000103E0000C06800F08000704700487047BA
:100AA000682400207546FFF7F9FFAE460500694649
:100AB000534620F00700854618B020B5FFF7A6FB87
:100AC000BDE820404FF000064FF000074FF000084F
:100AD0004FF0000B21F00701AC46ACE8C009ACE8D0
:100AE000C009ACE8C009ACE8C0098D4670470446AF
:100AF000AFF300802046FFF774FB00004FF0013C8D
:100B000050F8042B51F8043B9A4221D1A2EB0C037C
:100B1000934313EACC1317D150F8042B51F8043B3C
:100B20009A4215D1A2EB0C03934313EACC130BD1D9
:100B300050F8042B51F8043B9A4209D1A2EB0C0364
:100B4000934313EACC13DBD04FF00000704700BF93
:100B5000D01A01BAB1FA81F101F0180122FA01F0BC
:100B6000CB40C1F12001DBB2C0B2C01A2CFA01F3B4
:100B7000D11A914311EAC311E6D17047004870477A
:100B80006C2400205FEA400C08BF91F0000F4FEA90
:100B90008C234FEAC12243EA51514FEA1C5018BF3F
:100BA00000F5F0404FEA300018BF41F000415FEA25
:100BB0006C5C00F02980BCF1FF3F08BF40F0804032
:100BC0007047130C06BF12044FF0100C4FF0000CCE
:100BD000130E04BF12020CF1080C130F04BF120114
:100BE0000CF1040C930F04BF92000CF1020CD30F14
:100BF00004BF52000CF1010C11464FF00002A0F1AD
:100C00001F00A0EB0C00704711F0004F08BF7047A9
:100C100031F000413FF4D5AF0B0C06BF09044FF093
:100C2000100C4FF0000C0B0E04BF09020CF1080C65
:100C30000B0F04BF09010CF1040C8B0F04BF8900DA
:100C40000CF1020CCB0F04BF49000CF1010CCCF1EC
:100C50002003A0EB0C0022FA03F302FA0CF241EAA3
:100C6000030100F10100704720F07F4C80EA03008F
:100C700023F07F47ACEB070303F57C5300F0004003
:100C800003F1FF032DE980494FEA154B09B44FEA00
:100C9000144325EA0B4E24EA03480FF2042606EB20
:100CA000132749083E785FEA320203FB0667C7F55F
:100CB000000707FB06F64FEA54374FEAD64606F11F
:100CC000020607FB066CCCF1005C4FEA1C472CEADD
:100CD000074C07FB06F40CFB06F504EB15464FEA40
:100CE000961634BF00204FF000404FEAD13706FB84
:100CF00007FC4FEA1C4C0CFB0BF7D21B03FB0CF759
:100D000061EB07010CFB0EF7B0EB074072EB1742EB
:100D10000CFB08F734BFA2EB0742B2EB074261EBD2
:100D200017414FEA0C444FEA910706FB07FC4FEAD4
:100D30001C4C0CFB0BF7B0EBC74072EB573203FBBC
:100D40000CF734BFA2EBC742B2EBC74261EB57319D
:100D50000CFB0EF7B0EBC70072EB57720CFB08F7F9
:100D600034BFA2EBC702B2EBC70261EB5771039F1E
:100D70004FEA816141EA921104EBCC044FEAD1378A
:100D80004FEA826206FB07FC42EA90124FEA80605B
:100D90004FEA1C4C0CFB0BF7D21B03FB0CF761EB6F
:100DA00007010CFB0EF7B0EB074072EB17420CFB90
:100DB00008F734BFA2EB0742B2EB074261EB1741E1
:100DC0004FEA8C554FEA910704EB9C2406FB07FC85
:100DD0004FEA1C4C0CFB0BF7B0EBC74072EB5732E1
:100DE00003FB0CF734BFA2EBC742B2EBC74261EB87
:100DF00057310CFB0EF7B0EBC70072EB57720CFBD0
:100E000008F734BFA2EBC702B2EBC70261EB577120
:100E100015EB4C254FEA816141EA92114FEA82625B
:100E20004FEAD13742EA901206FB07FC44F1000476
:100E30004FEA80604FEA1C4C0CFB0BF7D21B03FB04
:100E40000CF761EB07010CFB0EF7B0EB074072EB00
:100E500017420CFB08F734BFA2EB0742B2EB074284
:100E600061EB174115EB1C154FEA813141EA9241C4
:100E70004FEA823242EA90424FEA80304FEA0C76E3
:100E800044F1000448EA03434EEA0B484FF0000ED9
:100E9000B2EB080C71EB030724BF624639464EEBF8
:100EA0000E0E4FF0000B0018524149414BEB0B0B5B
:100EB000B2EB080C71EB03077BF1000B24BF624619
:100EC00039464EEB0E0E4FF0000B001852414941CF
:100ED0004BEB0B0BB2EB080C71EB03077BF1000B38
:100EE00024BF624639464EEB0E0E51EA020718BF88
:100EF00046F0010616EB0E7655F1000254F10001A2
:100F000003D5BDE88901BDE80088BDE88901BDE8D9
:100F10000048B619524141EB0101A3F101037047AA
:100F200080807F7E7D7C7B7A797877767675747326
:100F3000727171706F6E6E6D6C6C6B6A6A696868E5
:100F4000676666656464636362616160605F5F5E7B
:100F50005E5D5D5C5C5B5B5A5A59595858575756F1
:100F60005655555554545353525252515150505056
:100F70004F4F4F4E4E4D4D4D4C4C4C4B4B4B4A4AA8
:100F80004A494949484848474747474646464545EC
:100F90004544444444434343434242424241414125
:100FA000002B26D4770021D01CB54FEA370703B4B5
:100FB0004FF010004FF010014FF000000FBCBDE8E3
:100FC00010400BF1010BBBF1010F08BF5FEA1707DF
:100FD00022BF12F1010211F101014FF0004143F172
:100FE000000300F0004043EA00007047F9D35708BF
:100FF000DAE746EA064613F1400F4FEA16461FDDD0
:1010000013F1200FDFBF16430A46002120335B4255
:10101000C8D0C3F1200746EA064602FA07F74FEAAE
:10102000164646EA0706C3F1200722FA03F201FA40
:1010300007F721FA03F14FF0000342EA0702B1E794
:1010400046EA020646EA06464FEA164646EA010620
:10105000BCBF46EA0646360C4FF000034FF00002D4
:101060004FF000019EE72DE9C048934630B491E867
:10107000380007C831EA400C48BF34EA430C03D5B6
:10108000FFF7F2FDFFF78CFFF0BCBDE800882DE90B
:10109000C048934630B491E8380007C810F0804F3C
:1010A00008BF13F0804F03D100F005F8FFF778FF79
:1010B000F0BCBDE8008820F07F4780EA030023F001
:1010C0007F4C07EB0C03A3F57C5300F00040A3F129
:1010D000FE0392F0000F00F0B38095F0000F00F0D7
:1010E00077802DE901494FEA11404FEA144621EA81
:1010F000004800FB06FC24EA064708FB06F607FB4F
:1011000008F800FB07F718EB06484CEB164C4FEAC3
:10111000124B18EB07484FEA15464CEB174022EAF2
:101120000B4E0BFB06FC25EA06470EFB06F607FBFB
:101130000EFE0BFB07F71EEB064E4CEB164C4FF06A
:1011400000061EEB074E4CEB174B18EB0B0840F15B
:10115000000018EB0E0B58EB000840F100008F1A4E
:101160004FF000013CBFC943661B14BFB5EB040C34
:1011700000213CBFC943F61B4FEA17444EEA8E0ECE
:1011800027EA04454FEA1C4704FB07622CEA074C98
:1011900005FB07F70CFB05F604FB0CFC16EB0746FA
:1011A00042EB174216EB0C4642EB1C421BEB0606C9
:1011B00058EB0202414146EA9E0601D5BDE801898D
:1011C000B619524141EB0101A3F10103BDE80189C8
:1011D0004FEA14454FEA114724EA054621EA074C35
:1011E00005FB07F406FB07F70CFB06F105FB0CFCFF
:1011F00011EB074144EB17444FEA124711EB0C4146
:1012000044EB1C4422EA074C05FB07F206FB07F7F8
:101210000CFB06F605FB0CFC16EB074642EB1742EF
:1012200016EB0C4642EB1C456A1854F1000148BF0E
:101230007047B619524141EB0101A3F10103704718
:1012400095F0000F37D04FEA11424FEA144721EAD8
:10125000024624EA074C02FB07F106FB07F70CFBEA
:1012600006F402FB0CFC14EB074441EB17414FEA78
:10127000154714EB0C4441EB1C4125EA074C02FBDB
:1012800007F506FB07F70CFB06F602FB0CFC16EB5A
:10129000074645EB174516EB0C4645EB1C42121969
:1012A00051F1000148BF7047B619524141EB0101AD
:1012B000A3F1010370474FEA14454FEA114724EAAE
:1012C000054621EA074C05FB07F106FB07F70CFB77
:1012D00006F24FF0000605FB0CFC12EB074241EB57
:1012E000174112EB0C4251EB1C4148BF704792185A
:1012F00041EB0101A3F10103704700BFFEE7704716
:101300002DE9F0410246002500260020002300249C
:10131000002791F803C00CF00F0591F803C01CF0F2
:10132000100F03D091F802C04CEA0505B1F800C0D7
:101330001CF0FF0F31D0146800202BE04FF0010C9F
:101340000CFA00F3B1F800C00CEA03069E4220D16B
:1013500083004FF00F0C0CFA03F7BC4305FA03FCB3
:101360004CEA040491F803C0BCF1280F06D14FF0F9
:10137000010C0CFA00FCC2F814C00AE091F803C09A
:10138000BCF1480F05D14FF0010C0CFA00FCC2F87B
:1013900010C0401C0828D1D31460B1F800C0BCF1C3
:1013A000FF0F34DD546800202EE000F1080C4FF0F0
:1013B000010808FA0CF3B1F800C00CEA03069E42DB
:1013C00021D183004FF00F0C0CFA03F7BC4305FA50
:1013D00003FC4CEA040491F803C0BCF1280F05D1CA
:1013E00000F1080C08FA0CF8C2F8148091F803C058
:1013F000BCF1480F07D100F1080C4FF0010808FAC2
:101400000CF8C2F81080401C0828CED35460BDE808
:10141000F081416170470161704700BFFEE7000045
:1014200008B50121092000F049FA4FF40040ADF859
:10143000000010208DF8030003208DF8020069469B
:101440000448FFF75DFF4FF400410248FFF7E3FF58
:1014500008BD0000000C014000BFFEE7704710B55A
:101460004FF4A06000F03CF810BD000070B5002102
:1014700000230F22C4780CB3164C246804F4E064F3
:10148000C4F5E064210AC1F10403CA40447804FAB7
:1014900003F184781440214309010F4C0678A155CB
:1014A000047804F01F050124AC4005786D114FF05D
:1014B000E02606EB8505C5F8004109E0047804F054
:1014C0001F050124AC40054D0678761145F82640ED
:1014D00070BD00000CED00E000E400E080E100E001
:1014E00002490143024A1160704700000000FA05FA
:1014F0000CED00E070B5002419E004F1B001C8B2B1
:10150000002100F08FF90021084600F08BF900213E
:10151000102000F087F9002505E00121002000F0EF
:1015200081F9681CC5B2962DF7DB601CC4B2082C8B
:10153000E3DB70BD08B50121092000F0BFF94FF4CD
:101540007870ADF8000010208DF8030003208DF8AE
:10155000020069465248FFF7D3FE4FF480715048AD
:10156000FFF759FF4FF400714D48FFF754FF40213A
:101570004B48FFF750FF80214948FFF74CFF2021DF
:101580004748FFF748FF40214548FFF744FF6420E4
:1015900001F044F840214248FFF73BFFC82001F02A
:1015A0003DF840213E48FFF736FF0021AE2000F015
:1015B00039F90021084600F035F90021102000F02B
:1015C00031F90021402000F02DF90021812000F0A8
:1015D00029F90021CF2000F025F90021A12000F0F9
:1015E00021F90021C82000F01DF90021A62000F0FB
:1015F00019F90021A82000F015F900213F2000F082
:1016000011F90021D32000F00DF90021084600F067
:1016100009F90021D52000F005F90021802000F013
:1016200001F90021D92000F0FDF80021F12000F09F
:10163000F9F80021DA2000F0F5F80021122000F07E
:10164000F1F80021DB2000F0EDF80021402000F04F
:10165000E9F80021202000F0E5F80021022000F048
:10166000E1F800218D2000F0DDF80021142000F0C9
:10167000D9F80021A42000F0D5F80021A62000F020
:10168000D1F80021AF2000F0CDF80021AF2000F00C
:10169000C9F8FFF72FFF0021084600F003F808BD46
:1016A000000C014070B504460D4605F1B001C8B20A
:1016B000002100F0B7F8102141EA1410002100F0D9
:1016C000B1F804F00F0141F00100002100F0AAF888
:1016D00070BD00002DE9F04705468A4691461E463A
:1016E000089F4FF0000831464846FFF7DBFF002413
:1016F0000DE03049794401EB8711085D012100F0CC
:1017000091F808F1010000F0FF08601CC4B2AC427F
:10171000EFDB701CC1B24846FFF7C4FF00240FE0A6
:10172000244979442E3901EB87112A19885C01215B
:1017300000F078F808F1010000F0FF08601CC4B266
:10174000AC42EDDBB01CC1B24846FFF7ABFF002452
:1017500010E018497944603901EB871104EB450228
:10176000885C012100F05EF808F1010000F0FF083C
:10177000601CC4B2AC42ECDBF01CC1B24846FFF7BF
:1017800091FF002411E00B497944943901EB871152
:1017900005EB45022244885C012100F043F808F182
:1017A000010000F0FF08601CC4B2AC42EBDBBDE8F6
:1017B000F08700001A2D00002DE9F04180460E460A
:1017C0001546002731464046FFF76CFF00240BE02A
:1017D000134A7A4402EB8511085D012100F022F8DA
:1017E000781CC7B2601CC4B2102CF1DB701CC1B2F3
:1017F0004046FFF757FF00240EE06900491C084AE5
:101800007A442E3A02EB4111085D012100F00AF8FA
:10181000781CC7B2601CC4B2102CEEDBBDE8F081AE
:10182000CC22000070B504460E4626B180211A482D
:10183000FFF7F1FD03E080211748FFF7EAFD2021C3
:101840001548FFF7E6FD00251BE04FF480711248B4
:10185000FFF7DFFD14F0800F05D04FF400710E4844
:10186000FFF7D9FD04E04FF400710B48FFF7D1FDFD
:101870004FF480710848FFF7CEFD6006040E681C27
:10188000C5B2082DE1DB20210348FFF7C4FD80210C
:101890000148FFF7C0FD70BD000C014029B1064AA8
:1018A000D2690243044BDA6104E0034AD2698243FD
:1018B000014BDA61704700000010024029B1064A6E
:1018C00092690243044B9A6104E0034A926982439D
:1018D000014B9A61704700000010024030B50021B2
:1018E0000022002400232D4D6D6805F00C0121B16C
:1018F000042905D0082923D105E0294D056022E0FF
:10190000274D05601FE0254D6D6805F47012234DCD
:101910006D6805F48034022505EB92421CB9214D17
:10192000554305600BE01D4D6D6815F4003F03D075
:101930001C4D5543056002E0194D5543056002E01A
:10194000174D056000BF00BF144D6D6805F0F00134
:101950000909154D6B5C0568DD4045600F4D6D68EC
:1019600005F4E061090A104D6B5C4568DD40856057
:101970000A4D6D6805F46051C90A0B4D6B5C4568F2
:10198000DD40C560054D6D6805F44041890B074D8C
:101990006B5CC568B5FBF3F5056130BD0010024016
:1019A00000127A0000093D00400000205000002095
:1019B000704710B500F002F810BD000000210020B3
:1019C0002E4A126842F480322C4B1A6000BF2B4A18
:1019D000126802F40030491C10B9B1F5A06FF6D1BD
:1019E000264A126812F4003F01D0012000E00020D6
:1019F000012842D1224A126842F01002204B1A609C
:101A00001A46126822F003021A601A46126842F05F
:101A100002021A60194A5268184B5A601A465268F4
:101A20005A601A46526842F480625A601A465268F6
:101A300022F47C125A601A46526842F4E8125A6044
:101A40001A46126842F080721A6000BF0B4A126890
:101A500012F0007FFAD0094A526822F00302074BC5
:101A60005A601A46526842F002025A6000BF034AA6
:101A7000526802F00C02082AF9D1704700100240A7
:101A800000200240042808D14FF0E021096941F00C
:101A900004014FF0E022116107E04FF0E0210969F5
:101AA00021F004014FF0E0221161704710B5134896
:101AB000006840F00100114908600846406810497C
:101AC00008400E494860084600680E4908400B4926
:101AD00008600846006820F48020086008464068D6
:101AE00020F4FE0048604FF41F008860FFF761FF9C
:101AF0004FF000600449086010BD00000010024073
:101B00000000FFF8FFFFF6FE08ED00E0F0B50C4620
:101B1000154600220021068C4FF6FE773E400684D3
:101B2000028B018C4FF60C7632401E0545EA1646B4
:101B30003243114EB0420ED0104EB0420BD0B0F135
:101B4000804F08D00E4EB04205D00E4EB04202D0AB
:101B50000D4EB04206D14FF6FD76314044F00106FD
:101B6000314305E04FF6F576314044F0010631434C
:101B700002830184F0BD0000002C014000340140CC
:101B80000004004000080040000C0040F0B50C4686
:101B90001546002200210026078C4FF6EF7C07EA4D
:101BA0000C070784028B018C27053E0C40F6FF478B
:101BB0003A401F0742EA17422F0642EA1742114FE6
:101BC000B8420ED0104FB8420BD0B0F1804F08D0C1
:101BD0000E4FB84205D00E4FB84202D00D4FB8425A
:101BE00006D14FF6DF77394046F01007394305E05C
:101BF0004FF65F77394044F0100739430283018480
:101C0000F0BD0000002C0140003401400004004001
:101C100000080040000C0040F0B50C4615460022BC
:101C200000210026078C4FF6FF6C07EA0C0707849B
:101C3000828B018C27063E0C4FF60C773A401F052D
:101C400045EA17473A43114FB8420ED0104FB842F9
:101C50000BD0B0F1804F08D00E4FB84205D00E4FD8
:101C6000B84202D00D4FB84206D14FF6FF57394067
:101C700046F48077394305E04FF2FF57394044F48A
:101C80008077394382830184F0BD0000002C01403D
:101C9000003401400004004000080040000C0040F7
:101CA000F0B50C461546002200210026078C4EF6A2
:101CB000FF7C07EA0C070784828B018C27073E0C08
:101CC00040F6FF473A402F0642EA17421F0742EA12
:101CD0001742114FB8420ED0104FB8420BD0B0F19E
:101CE000804F08D00E4FB84205D00E4FB84202D0F8
:101CF0000D4FB84206D14DF6FF77394046F4805774
:101D0000394305E047F6FF57394044F480573943DB
:101D100082830184F0BD0000002C014000340140AA
:101D20000004004000080040000C004010B51D48B1
:101D3000008810F0020F33D01B48B0F8F213B0F84F
:101D4000F0031A4A22F81010164824300188164869
:101D5000B0F8F003164A22F810101348B0F8F00358
:101D6000401C81B21048A0F8F013B0F8F00340F620
:101D7000FC01884210DB002203210A48103800F0E1
:101D80008DF900210748103800F015F900210648A8
:101D9000A0F8F013A0F8F2134FF6FD700149088087
:101DA00010BD0000102C0140722000206A1200209B
:101DB0007200002030B589B004460D46012140F67E
:101DC0000400FFF77BFD4FF48070ADF8140028206D
:101DD0008DF8170005A92A48FFF792FA4FF4807191
:101DE0002748FFF716FBADF80C40ADF8085000206F
:101DF000ADF80E00ADF80A0002A9224800F082F901
:101E00000020ADF818000220ADF81A000120ADF84E
:101E10001C000020ADF81E00ADF8200006A91948EE
:101E200000F0E6F81B208DF8040002208DF8050074
:101E300000208DF8060001208DF8070001A8FFF7AB
:101E400015FB19208DF8040002208DF805000020F4
:101E50008DF8060001208DF8070001A8FFF706FBAA
:101E600000210948A0F8F013A0F8F2134FF6FD7016
:101E7000044910310880401C088009B030BD0000C2
:101E800000080140002C0140722000200848008812
:101E900010F0010F0BD00748B0F8F203401C81B2DC
:101EA0000448A0F8F2134FF6FE700149088070470D
:101EB000102C01407220002010B501211E4800F0B6
:101EC00086F8002836D001211B4800F071F81B4825
:101ED000006808B9012000E000201849086018488F
:101EE000007820B317480078401C1649087008464F
:101EF00000783C2817D10020087013480078401C57
:101F000011490870084600783C280CD10020087060
:101F10000E480078401C0D490870084600781828C3
:101F200001D10020087000200549087002E001205E
:101F30000349087010BD000000040040BC8121422C
:101F40001F0000201E0000201D0000201C0000209B
:101F50007FB505460C4601210220FFF79FFCADF836
:101F60000850ADF804400020ADF80A00ADF80600B6
:101F700001A90E4800F0C6F8012211460B4800F0F6
:101F80008DF81D208DF8000000208DF80100032041
:101F90008DF8020001208DF803006846FFF766FA0D
:101FA0000121024800F007F87FBD00000004004056
:101FB000CA430282704721B1028842F001020280C6
:101FC00004E002884FF6FE731A400280704730B575
:101FD0000246002000230024158A05EA01039589A2
:101FE00005EA010413B10CB1012000E0002030BD6E
:101FF00070B505460C46244885420ED023488542DC
:102000000BD0B5F1804F08D02148854205D021483A
:10201000854202D02048854200D100E000BF2088E0
:1020200050B92389A28861882846FFF76FFDE188AF
:10203000284600F03FF825E0208804280AD12389AB
:10204000A28861882846FFF7A1FDE188284600F0B4
:102050003AF817E0208808280AD12389A2886188E5
:102060002846FFF7D9FDE188284600F037F809E057
:102070002389A28861882846FFF712FEE188284656
:1020800000F035F870BD0000002C01400034014024
:102090000004004000080040000C004010B51AB1D8
:1020A00083890B43838104E08389CC43A4B223401A
:1020B000838110BD028B4FF6F3731A400283028BAB
:1020C0000A4302837047028B4FF2FF331A400283A8
:1020D000028B0B0642EA134202837047828B4FF653
:1020E000F3731A408283828B0A4382837047828B08
:1020F0004FF2FF331A408283828B0B0642EA13426F
:1021000082837047002202881D4B98420ED01D4BDF
:1021100098420BD0B0F1804F08D01B4B984205D0AD
:102120001A4B984202D01A4B984204D14FF68F7343
:102130001A404B881A43174B984207D0164B9842C7
:1021400004D04FF6FF431A40CB881A4302808B8895
:1021500083850B8803850A4B98420BD0094B984224
:1021600008D00E4B984205D00D4B984202D00D4B33
:10217000984201D10B7A03860123838270470000C5
:10218000002C0140003401400004004000080040E1
:10219000000C0040001000400014004000400140CE
:1021A000004401400048014010B540F22551044868
:1021B00000F02FF818B1024800F0E6F8C4B210BDE4
:1021C000004C004010B540F22551044800F021F8C1
:1021D00018B1024800F0D8F8C4B210BD0038014070
:1021E00021B1828942F40052828104E082894DF655
:1021F000FF731A408281704702460020B1F5007FCC
:1022000000D100BF13880B4201D0012000E0002064
:10221000704770B502460024002300250020A1F578
:1022200010666A3E00D100BFC1F3421501F01F03E2
:10223000012606FA03F3012D02D19689334006E008
:10224000022D02D1168A334001E0968A33400C12E7
:10225000012606FA04F41688344013B10CB10120AB
:1022600000E0002070BDF0B50346002400260025E4
:102270000020A1F510676A3F00D100BF1846C1F3E6
:10228000421401F01F06012707FA06F5012C01D1BF
:102290000C3004E0022C01D1103000E014301AB1EF
:1022A00007682F43076002E00768AF430760F0BD8F
:1022B0002DE9F04786B005460E460024A24600BF31
:1022C000A1460027B08900B100BF2F462C8A4CF6EA
:1022D000FF700440F08804432C82AC894EF6F31062
:1022E0000440B08831890843718908430443AC81B4
:1022F000AC8A4FF6FF400440B0890443AC8201A889
:10230000FFF7ECFA1F48874202D1DDF810A001E088
:10231000DDF80CA0A88910F4004F08D00AEBCA0021
:1023200000EB0A1031684900B0FBF1F807E00AEB56
:10233000CA0000EB0A1031688900B0FBF1F8642094
:10234000B8FBF0F004012009642101FB1089A88981
:1023500010F4004F08D0322000EBC900B0FBF1F0C0
:1023600000F00700044308E0322000EB091064216C
:10237000B0FBF1F000F00F0004432C8106B0BDE883
:10238000F08700000038014001468888C0F308004B
:10239000704700BFFEE7490050EAC12018BF042083
:1023A0004A0D18BF40F0010040F2FF72B2EB515FDE
:1023B00008BF40F00200012808BF0520704700BF99
:1023C000704700002DE9FE4F044688460120029028
:1023D0000025002742F2F030005B20B142F2F030DD
:1023E000005B012804D10020C8F800000290E5E05D
:1023F000002523E041F2F810204430F8151041F296
:10240000F8102218681C32F81000814214D134F8F8
:102410001510681C34F8100081420DDD41F2F810EF
:102420002118681C31F81000401C81B241F2F810EC
:102430002218681C22F81010681C85B242F2F03095
:10244000005BA842D6DC002521E034F8150041F2FB
:10245000F811214431F8151000EB0146681C34F8DE
:10246000101041F2F8102218681C32F8100001EB2D
:102470000049A9EB0600000C41F2F811214421F8B3
:102480001500A9EB060024F81500681C85B242F27D
:10249000F030005B401EA842D7DC42F2F030005B17
:1024A000401E81B242F2F0300153002534E034F88E
:1024B000150041F2F811214431F8151000EB0146E6
:1024C000404800EB5600B0FBF6F03F49884221D966
:1024D0002F4611E041F2F8102118781C31F8100055
:1024E00041F2F811214421F81700781C34F810004B
:1024F00024F81700781C87B242F2F030005B401ECF
:10250000B842E7DC42F2F030005B401E81B242F29A
:10251000F0300153681C85B242F2F030005BA842F3
:10252000C5DC4FF0000A002514E034F8150041F234
:10253000F811214431F8151000EB0146304600F047
:10254000D7FC83466A1C5946504600F0AFF88246D5
:10255000681C85B242F2F030005BA842E5DC5046D0
:1025600000F0A6FC174901EB500B504600F0A0FC10
:10257000BBFBF0F0009000F0BBFC01901348016839
:10258000019800F0FDFCC8F80000D8F8000000F049
:1025900017FB02460B46CDE900010DA10D48FDF7E2
:1025A00055FE0D49086008460A4902680B4800F0CC
:1025B0007DFA0BA1094800F089FA00BF0298BDE836
:1025C000FE8F000000A24A04A08601000000002047
:1025D000256600005400002004000020003801405F
:1025E000770D0A0010B56FF00400FFF74BFA0748AB
:1025F00000680749B0FBF1F006490870084600780A
:102600004FF47A7148430449088010BD2C00002023
:1026100000127A00280000202A0000200146114AFA
:1026200012884A434FF0E0235A6100229A611A4609
:10263000126942F001021A6100BF4FF0E0221069F6
:1026400010F0010F02D010F4803FF6D04FF0E022DE
:10265000126922F001024FF0E0231A6100229A6110
:10266000704700002A00002000BF054A128812F0BF
:10267000400FFAD0C2B2024B1B1D1A8070470000F7
:102680000038014008B501210920FFF717F94FF480
:102690007840ADF8000048208DF8030069460248F4
:1026A000FEF72EFE08BD0000000C01402DE9F047AA
:1026B00005460E46144614B90020BDE8F087012CEB
:1026C00001D13046F9E7012C26D93146284600F0E1
:1026D00023FC10D2204600F00BFC804631462846F1
:1026E00000F052FD8146414600F004FB07462946B2
:1026F00000F092FAE1E7204600F0FAFB804631460E
:10270000284600F04BFD8146414600F0F3FA0746AB
:10271000294600F039FDD0E70020CEE786B0FFF76C
:1027200061FFFEF79CFE4FF4E13000F0DDF9FFF7AA
:10273000A9FFFEF7FFFEFEF773FE41F61F4141F2CF
:102740008830FFF705FCFEF7D5FE002211461C205D
:10275000FFF732F8012200212C20FFF72DF802228A
:1027600000213C20FFF728F8032200214C20FFF72E
:1027700023F800214FF6FF70FFF71CFB6846FFF7B8
:10278000ADF829A00099FDF755FD2EA00199FDF7A0
:1027900051FD33A00299FDF74DFD38A00399FDF7D7
:1027A00049FD3FE04FF6FD703B490880401C088022
:1027B0000122032138481038FFF770FC0121364808
:1027C0001038FFF7F8FB3548B0F8F20340F6DE4169
:1027D000884204DC3148B0F8F0030A2822DD0022E8
:1027E00003212D481038FFF759FC00212A481038E2
:1027F000FFF7E1FB05A92A48FFF7E4FD0021274880
:10280000A0F8F013A0F8F2132649059800F08BFC0D
:1028100004D20120059900F049F803E02249012083
:1028200000F044F8BEE70000535953434C4B5F4659
:1028300072657175656E63793A20256420487A0D5A
:102840000A00000048434C4B5F4672657175656E27
:1028500063793A202020256420487A0D0A00000080
:1028600050434C4B315F4672657175656E63793AC2
:102870002020256420487A0D0A00000050434C4B6C
:10288000325F4672657175656E63793A2020256402
:1028900020487A0D0A000000102C01407220002010
:1028A000720000200000A04000409C462DE9F0434B
:1028B00089B007468846404600F082F90446224621
:1028C0000B4668A101A8FDF7C1FC81466649404658
:1028D00000F056FB044600F0CFFA0646404600F0F2
:1028E0006FF9044622460B4660A0FDF7A3FC012FBA
:1028F0007ED16348864240DB0C2003230022202146
:1029000000901020FEF7E6FE0C2003231022202169
:1029100000901046FEF7DEFE0C2003232022114615
:1029200000901020FEF7D6FE0C2003233022202139
:1029300000901020FEF7CEFE0C2003234022202121
:1029400000901020FEF7C6FE0C2003235022202109
:1029500000901020FEF7BEFE0C20032360222021F1
:1029600000901020FEF7B6FE0C20032370222021D9
:1029700000901020FEF7AEFE70E0424896FBF0F0AB
:102980000A2190FBF1F201FB120403230022202113
:1029900010200094FEF79EFE42F2107096FBF0F0BD
:1029A0000A2190FBF1F201FB1204032310222021E3
:1029B00010460094FEF78EFE4FF47A7096FBF0F00E
:1029C0000A2190FBF1F201FB12040323202211469D
:1029D00010200094FEF77EFE642096FBF0F00A21A2
:1029E00090FBF1F201FB120403233022202100E0CE
:1029F00032E010200094FEF76DFE0A2003234022EF
:102A0000202100901020FEF765FE0A2096FBF0F0D2
:102A10000A2190FBF1F201FB120403235022202132
:102A200010200094FEF756FE0A2096FBF0F100FB02
:102A3000116403236022202110200094FEF74AFE37
:102A40000B2003237022202100901020FEF742FE6D
:102A50000DA0FDF7EFFB01E0FEF74CFD09B0BDE86E
:102A6000F0830000256600000000C84273686F779D
:102A700020706F776572202566200D0A0000000027
:102A800040420F00A086010073686F7720706F7757
:102A90006572000070B505460C4600BF402128460F
:102AA000FFF7AAFB0028F9D0AC8070BD2DE9F041FA
:102AB00007460D461646002404E0295D3846FFF718
:102AC000E9FF641CB442F8D3BDE8F08170B5054657
:102AD0000C4604E014F8011B2846FFF7DBFF2078C2
:102AE0000028F7D170BD000010B586B00446012162
:102AF00044F20400FEF7E2FE4FF40070ADF814005B
:102B000003208DF8160018208DF8170005A91C4821
:102B1000FEF7F6FB4FF48060ADF8140004208DF84A
:102B2000170005A91648FEF7EBFB25208DF80000DD
:102B300003208DF801008DF8020001208DF80300BC
:102B40006846FEF793FC01940020ADF80800ADF84C
:102B50000A00ADF80C00ADF810000C20ADF80E0026
:102B600001A90848FFF7A4FB012240F225510548BE
:102B7000FFF779FB01210348FFF732FB06B010BDD8
:102B8000000801400038014010B500290AD008783B
:102B9000002807D005487844FDF7B0FF002801D091
:102BA000002010BD0248784410BD0000721C0000D7
:102BB0006A1C00000808A0F500114FEA31017047B7
:102BC00043004FEAD30C4FEA3C0C43401FBF400781
:102BD0000CF1605113F0FE4F70471CF0006F03D1F1
:102BE00000200CF0004170470CF0004343EA5070A5
:102BF00010B540EACC0000F044FA00BF000000929B
:102C00004FEA0001FFF7D6BF4FF000414FF0000040
:102C1000A1F500217047000090EA010F48BF81F044
:102C2000004100F1C282421A3CBF801A89184FEA63
:102C3000D0524FF07F4C1CEA410FA2EBD15318BF8A
:102C40009CEA026F00F03B804FF0004C4CEA002001
:102C50004CEA012121FA03FC10EB0C0C1ED202F10C
:102C6000FF325FEA1C2040EBC25038BF70471CF0B7
:102C70007F0F4FEA400C18BFBCF17F4F38BF704741
:102C8000C3F12003994008BF20F00100BCF17F4F41
:102C900038BF7047A0F1C04000F040BA4FEA3C0096
:102CA000000A40EBC25028BF1CF0FF0F4FEA400C57
:102CB000E6D018BFBCF17F4F38BF7047EAE79CEA07
:102CC000026F05D010EA5C0F08BF00F000407047AB
:102CD00010B500F0D6F900BF64FBBE3E401058BFEF
:102CE000C0F14040491058BFC1F140418142EFF36B
:102CF000008070474FF47F0C1CEAD0121EBF1CEA04
:102D0000D11392EA0C0F93EA0C0F00F0858090EA41
:102D1000010F48BF42F4807240F4000C41F40000FF
:102D20002CF07F4120F07F4000B58142A2EB0302EE
:102D30000FF2081CACEB504EC0F100009EF800E012
:102D40004FEA4E0E00FB0EFC38BF49004FEA2C1C28
:102D500002F5FA020CFB0EF34FEACE1E4FEA112CDD
:102D60004FEAC1210EEB635E42EB22420EFB0CFCEC
:102D70004FEA1C5300FB03114FEA112C4FEA0131BB
:102D80000EFB0CFC4FEADC4C00FB0C11C14228BFCF
:102D900009184CEB03335DF804EB10EB410143EBF6
:102DA000C250B2F57C0F38BF704729D512F0F00F32
:102DB0001CBF00F1C04000F00040704700818283DA
:102DC0008485868788898B8C8D8E8F91929395963A
:102DD00097999A9C9D9FA0A2A3A5A7A8AAACAEB0C4
:102DE000B2B3B5B7B9BCBEC0C2C5C7C9CCCED1D4C9
:102DF000D7D9DCDFE2E6E9ECF0F3F7FAFE000000F9
:102E00004FEA400C0CF1807CBCF17E4F28BF70472C
:102E1000B0F1C04000F082B990EA010F0CEAD11382
:102E200048BF42F48072624538BF634507D213F44D
:102E30007F0F16D080EA010000F00040704710B507
:102E400000F01FF9097EFC3E00F005B880EA0100A1
:102E500000F00040704780EA010000F0004000F000
:102E60005DB912F47F0F04BF0248704780EA010089
:102E700000F054B90000C07F41000B0ED3F19E0258
:102E800008D950F400034FEA032323FA02F048BFA5
:102E90004042704710B500F0F4F800BF499224801A
:102EA000002070476FF0004282EA20007047000067
:102EB000C10DD1F19E0206DB4FEA002343F000432F
:102EC00023FA02F07047004207D54FEA4001B1F102
:102ED000FE4F02D24FF00000704710B500F0D1F85D
:102EE00049922480002070476FEA2000704700005C
:102EF000B0FA80F310FA03F2C3F19D030AD0D905AA
:102F000001EB1220530638BF704700F1010008BFE3
:102F100020F001007047000050EA010C00F113801E
:102F20001CF5000F58BFBCF5000F01D48842704754
:102F300007D710F5000F58BF11F5000F15D48842C0
:102F40007047894270471CF5000F04D5BCF5000F8F
:102F5000F7D5814270474FF0807C1CEB400F38BFA3
:102F60001CEB410F01D28142704710B500F089F887
:102F7000922449004FF000504FF08051FFF7AEBE51
:102F80004FF47F0C1CEAD0121EBF1CEAD11392EA48
:102F90000C0F93EA0C0F00F0478090EA010F48BF36
:102FA00042F480724FF0004C4CEA00204CEA0121C0
:102FB00002EB0302A0FB0113A2F50002002918BFD7
:102FC00043F001035B0028BF4FEA330342EB224288
:102FD0005FEA132C4CEBC2502EBFBCEB436FB2F533
:102FE0007C0F70474FEA036CBCF1004F08BF20F024
:102FF0000100B2F57C0F38BF70470BD582F0FF029D
:1030000012F5803FC8BF704700F1C040D8BF00F044
:103010000040704700F5000C5FEA4C0C48BF704759
:10302000B0F1C04000F07AB890EA010F0CEAD11379
:1030300048BF42F48072624538BF634504D280EADB
:10304000010000F00040704710B500F01AF800BF12
:103050008900013E00F007B800F009B85FEA410CB2
:103060005FEA1C6C08D080EA010000F057B85FEA04
:10307000400C5FEA1C6CF6D14FF00040A0F58000D8
:1030800070470EF1020E2EF0030E5EF8044B244240
:1030900004D44FEA4102B2F17F4F11D84FEA400306
:1030A000B3F17F4F0CD80ED14FEAD07CB2F17F4FF5
:1030B0000CEB4C0C0CF1020C08BF4CEBD17C04E087
:1030C0004FF0080C01E04FEAD17C0CEB4C0324FAE2
:1030D00003F404F00704B4F1040C06D20EEB840CE4
:1030E000BDE810404CF0010C6047DFE80CF0070829
:1030F00002024FF00040A0F5800010BD08464200DB
:1031000018BFD2F1807288BF00F0004010BD10B52A
:10311000FDF734FD4FF00001016010BDFF2141EAD1
:10312000D050C005704751EA000C00F113801CF527
:10313000000F58BFBCF5000F01D48142704707D77C
:1031400011F5000F58BF10F5000F15D481427047DC
:10315000894270471CF5000F04D5BCF5000FF7D568
:10316000884270474FF0807C1CEB410F38BF1CEB4E
:10317000400F01D28842704780EA010081EA0001D5
:1031800080EA0100FFF7F1BE80F0004090EA010FF5
:103190007FF549AD81F0004100F007B890EA010FDA
:1031A00048BF81F000413FF53EAD421A04D882F09D
:1031B0000042A0EB020011444FEAD0524FF07F4C86
:1031C0001CEA410FA2EBD15318BF9CEA026F4AD010
:1031D0004FF0004C4CEA00204CEA012121FA03FC9C
:1031E000B0EB0C0C0FD412F0FE0F36D05FEA4C009F
:1031F0001DD5001240EBC25038BF70471CF03F0F86
:1032000018BF70470BE0A2F101025FEA1C2040EBFF
:10321000C25038BF70471CF07F0F18BF7047C3F112
:103220002003994014BF401E20F001007047800821
:103230004FEA122308BF7047B0FA80FCA2EB0C02E1
:10324000CCF1280C60FA0CF093EA122F04BF00EBCB
:10325000C25070474FEAC3707047130A5FEADC1030
:1032600008BF7047F6E79CEA026F04D010EA5C0FD3
:1032700008BF0020704710B5FFF703FF40DFF63EA0
:1032800081F000407047FDF7A0B900000000000089
:103290000000002F000000000700070000147F144A
:1032A0007F1400242A7F2A12006264081323003648
:1032B0004955225000000503000000001C22410077
:1032C000000041221C000014083E08140008083EBB
:1032D0000808000000A060000008080808080000B6
:1032E00060600000002010080402003E5149453E85
:1032F0000000427F400000426151494600214145A3
:103300004B31001814127F10002745454539003C09
:103310004A494930000171090503003649494936D7
:1033200000064949291E00003636000000005636C6
:1033300000000008142241000014141414140000AA
:103340004122140800020151090600324959513E38
:10335000007C1211127C007F49494936003E4141F0
:103360004122007F4141221C007F49494941007FA1
:1033700009090901003E4149497A007F0808087F90
:103380000000417F4100002040413F01007F0814C0
:103390002241007F40404040007F020C027F007FBE
:1033A0000408107F003E4141413E007F09090906A3
:1033B000003E4151215E007F0919294600464949D6
:1033C00049310001017F0101003F4040403F001FA3
:1033D0002040201F003F4038403F00631408146322
:1033E00000070870080700615149454300007F410C
:1033F000410000552A552A55000041417F00000434
:10340000020102040040404040400000010204006C
:10341000002054545478007F4844443800384444D1
:10342000442000384444487F00385454541800085D
:103430007E0901020018A4A4A47C007F080404787B
:103440000000447D4000004080847D00007F102803
:1034500044000000417F4000007C04180478007C98
:103460000804047800384444443800FC2424241818
:103470000018242418FC007C080404080048545454
:10348000542000043F444020003C4040207C001C6D
:103490002040201C003C4030403C00442810284480
:1034A000001CA0A0A07C004464544C4414141414C8
:1034B00014140000000000000000000000000000E4
:1034C0000000000000F800000000000000333000A1
:1034D000000000100C06100C0600000000000000A8
:1034E000000040C07840C0784000043F04043F041E
:1034F0000400007088FC08300000001820FF211E26
:103500000000F008F000E018000000211C031E215C
:103510001E0000F00888700000001E2123241927D7
:10352000211010160E000000000000000000000036
:103530000000000000E0180402000000000718204E
:10354000400000020418E0000000004020180700BE
:103550000000404080F0804040000202010F010264
:103560000200000000F0000000000101011F010145
:103570000100000000000000000080B070000000AA
:103580000000000000000000000000010101010136
:1035900001010000000000000000003030000000C9
:1035A00000000000000080601804006018060100A0
:1035B000000000E010080810E000000F10202010AC
:1035C0000F00001010F8000000000020203F202015
:1035D00000000070080808887000003028242221AC
:1035E0003000003008888848300000182020201162
:1035F0000E000000C02010F8000000070424243F43
:10360000240000F8088888080800001921202011EB
:103610000E0000E0108888180000000F1120201113
:103620000E0000380808C83808000000003F0000FD
:1036300000000070880808887000001C22212122E8
:103640001C0000E010080810E000000031222211E8
:103650000F00000000C0C00000000000003030007B
:1036600000000000008000000000000080600000FA
:103670000000000080402010080000010204081033
:103680002000404040404040400004040404040442
:1036900004000008102040800000002010080402F0
:1036A0000100007048080808F000000000303601F2
:1036B0000000C030C828E810E000071827242314B1
:1036C0000B000000C038E0000000203C230202276D
:1036D000382008F8888888700000203F20202011BA
:1036E0000E00C030080808083800071820202010F5
:1036F000080008F808080810E000203F20202010EB
:103700000F0008F88888E8081000203F20202320B8
:10371000180008F88888E8081000203F20000300FF
:103720000000C03008080838000007182020221EBA
:10373000020008F808000008F808203F21010121D4
:103740003F20000808F8080800000020203F202043
:10375000000000000808F8080800C08080807F0092
:10376000000008F888C028180800203F20012638EB
:10377000200008F8080000000000203F2020202042
:10378000300008F8F800F8F80800203F003F003F3C
:10379000200008F830C00008F808203F2000071873
:1037A0003F00E01008080810E0000F102020201053
:1037B0000F0008F808080808F000203F2101010167
:1037C0000000E01008080810E0000F18242438500A
:1037D0004F0008F8888888887000203F2000030C7C
:1037E0003020007088080808380000382021212285
:1037F0001C00180808F8080818000000203F2000E6
:10380000000008F808000008F808001F2020202009
:103810001F000878880000C83808000007380E012B
:103820000000F80800F80008F800033C0700073C17
:103830000300081868808068180820302C03032CC7
:1038400030200838C800C83808000000203F200099
:10385000000010080808C838080020382621202059
:103860001800000000FE020202000000007F40403D
:103870004000000C30C000000000000000010638CD
:10388000C00000020202FE000000004040407F0035
:10389000000000000402020204000000000000001A
:1038A0000000000000000000000080808080808018
:1038B0008080000202040000000000000000000000
:1038C0000000000080808080000000192422222255
:1038D0003F2008F8008080000000003F11202011E8
:1038E0000E000000008080800000000E11202020CB
:1038F0001100000000808088F800000E11202010C8
:103900003F200000808080800000001F22222222B1
:103910001300008080F0888888180020203F202035
:1039200000000000808080808000006B949494935D
:10393000600008F8008080800000203F2100002007
:103940003F2000809898000000000020203F2020A9
:103950000000000000809898000000C08080807FF8
:10396000000008F8000080808000203F24022D30F5
:103970002000000808F8000000000020203F202060
:1039800000008080808080808000203F20003F20D9
:10399000003F8080008080800000203F21000020C8
:1039A0003F200000808080800000001F2020202019
:1039B0001F00808000808000000080FFA120201177
:1039C0000E000000008080808000000E112020A0EA
:1039D000FF80808080008080800020203F212000A8
:1039E0000100000080808080800000332424242493
:1039F0001900008080E0808000000000001F20206F
:103A000000008080000000808000001F2020201027
:103A10003F20808080000080808000010E300806FA
:103A2000010080800080008080800F300C030C300B
:103A30000F0000808000808080000020312E0E3139
:103A40002000808080000080808080818E70180639
:103A5000010000808080808080000021302C2221A5
:103A6000300000000000807C020200000000003FE7
:103A7000404000000000FF00000000000000FF00C8
:103A800000000002027C800000000040403F000077
:103A90000000000601010202040400000000000012
:103AA00000000010109010101116101010D01010FF
:103AB0000000000000000000000000000000000006
:103AC000000040404040435C4040504C4340404038
:103AD00040000000000000000000000000000000A6
:103AE00000004020D04C4344C8102000F80000FFE4
:103AF00000000000000000000000000000000000C6
:103B0000000000003F404448474070000F40807F65
:103B100000000000000000000000000000000000A5
:103B200000000004E4242CB4252624B42C24E4044E
:103B30000000000000000000000000000000000085
:103B400000000000FF02011E1212121E41827F00BF
:103B50000000000000000000000000000000000065
:103B600000002020FF2020F888888808FF0809CA64
:103B7000080000000000000000000000000000003D
:103B8000000010301F88681F10209F402718264112
:103B9000F000000000000000000000000000000035
:103BA0000000000000000000000000000000000015
:103BB0000000000000000000000000000080E0F0B5
:103BC0003C0E06030101010103020E3CF8E08000F7
:103BD00000000000F8FFFF030000000000000000EC
:103BE0000000000003FFFFFC000000003FFFFF801B
:103BF00000000000000000000000000080FFFF3F08
:103C00000000000000030F1F7860C080000000006B
:103C10008080E0783F0F03000000000000000000FB
:103C2000000000010101010101000000000000008E
:103C30000000000000000000000000000000000084
:103C40000000000000000000000000000000000074
:103C50000808080808FCFEFF000000000000000043
:103C600000000000000000000000000000FFFFFF57
:103C70000000000000000000000000000000000044
:103C80000000000000FFFFFF000000000000000037
:103C900000000000000000000000000080FFFFFFA7
:103CA0008000000000000000000000000000000094
:103CB00001010101010101010101010101000000F7
:103CC00000000000000000000000000000000000F4
:103CD00000000000000000000000000000E0F8FC10
:103CE00004020201010101010303061EFCF8E000C9
:103CF00000000000000307070700000000000000AC
:103D00000080E0F87F1F07000000000000000000B6
:103D10000080C0E070381C0E0703010000000000A6
:103D200000000000E0F0F8DEC7C3C1C0C0C0C0C0E2
:103D3000C0C0C0E0E0F80E00000000000101010179
:103D40000101010101010101010101010101000065
:103D50000000000000000000000000000000000063
:103D60000000000000000000000000000000F0F86B
:103D7000C40202010101010103061EFCF8E000007B
:103D8000000000000000000101000080808080C071
:103D90004060381F0F03000000000000000000001A
:103DA00000000000000000010103060EFCF8E00026
:103DB00000000000001E3F7FCE80000000000000D9
:103DC0008080C0703F1F070000000000000000005E
:103DD00000000101010101010100000000000000DC
:103DE00000000000000000000000000000000000D3
:103DF00000000000000000000000000000000000C3
:103E00000000000000C03018FEFFFF0000000000AE
:103E10000000000000000000C060180E0300000059
:103E2000FFFFFF00000000000000000060785C471A
:103E30004140404040404040FFFFFF404040404044
:103E400000000000000000000000000000000080F2
:103E5000FFFFFF80000000000000000000000000E5
:103E60000000000101010101010101010101010145
:103E70000000000000000000000000000000000042
:103E8000000000000000000000000000000000FF33
:103E900007070707070707070707070707070000C0
:103EA000000000000000FFFF80C060303030303084
:103EB0003070E0C0C00000000000000000008383FC
:103EC000010000000000000000000007FFFFFC00F0
:103ED00000000000000F3F7FC7808000000000004E
:103EE0008080E0783F1F0300000000000000000019
:103EF00000000101010101010100000000000000BB
:103F000000000000000000000000000000000000B1
:103F10000000000000000000000000000000C0F0F1
:103F2000380C0602020101010101013E3C3800008B
:103F300000000000F0FFFF0380C0606030303030D0
:103F4000307060E0C080000000000000FFFFFF074D
:103F500001000000000000000000000003FFFFFC63
:103F60000000000000071F3E70E0C080000000005D
:103F7000008080C0783F1F030000000000000000A8
:103F8000000000010101010101010000000000002A
:103F90000000000000000000000000000000000021
:103FA00000000000000000000000000000E07F1F93
:103FB0000F070707070707070707C7671F0F030054
:103FC0000000000000000000000000000000C0F041
:103FD0003C0701000000000000000000000000009D
:103FE000000000E0F8FF0F000000000000000000EB
:103FF00000000000000000000000FEFFFFFF0000C6
:1040000000000000000000000000000000000000B0
:10401000000000010100000000000000000000009E
:104020000000000000000000000000000000000090
:1040300000000000000000000000000000E0F8FCAC
:104040001E060201010101010103061EFCF8E00049
:104050000000000000070F3F3E78F0F0E0C0C08095
:10406000C06070381F0F030000000000C0F0FC3E6D
:104070000703010001010303070F1E7EFCF0C000CF
:1040800000000000071F3F70C0808000000000009B
:104090000080C0703F1F070000000000000000000B
:1040A0000000010101010101010000000000000009
:1040B0000000000000000000000000000000000000
:1040C00000000000000000000000000080F0F83C4C
:1040D0000E0203010101010102060C78F0C000008C
:1040E000000000007FFFFFC0000000000000000093
:1040F000000080C0FFFFFE00000000000003070F6B
:104100000E1C1C181818180C0C0603E0FFFF1F00EB
:1041100000000000000078F8F8000000000080C0F7
:10412000E0703C1F070100000000000000000000DC
:104130000001010101010100000000000000000079
:10414000000000000000000000000000000000006F
:10415000000000000000000000000000000000005F
:1041600000000080C0C0C08000000000000000000F
:104170000000000000000000000000030707070324
:10418000000000000000000000000000000000002F
:10419000000000000000000000000000000000001F
:1041A00000000000000000000000000E1F1F1F0E96
:1041B00000000000000000000000000000000000FF
:1041C00000000000000000000000000000000000EF
:1041D00000000000000000000000000000000000DF
:1041E00000000000000000000000000000000000CF
:1041F00000000000000000000000000000000000BF
:1042000000000000000000000000000000000000AE
:10421000000000000000000000000000000000009E
:10422000000000000000000000000000000000008E
:10423000000000000000000000000000000000007E
:10424000000000000000000000000000000000006E
:10425000000000000000000000000000000000005E
:10426000000000000000000000000000000000004E
:104270000000000000000000000000010101FFFF3D
:10428000FF01010101010101010302061CFCF8E02C
:10429000000000000000FFFFFF0000000000000021
:1042A000008080C0707F1F0F000000000000FFFF33
:1042B000FF010101010101010101000000000000F6
:1042C000000000000000FFFFFF00000000000000F1
:1042D00000000000000000000000000101010101D9
:1042E00001010101000000000000000000000000CA
:1042F00000000000000000000000000000000000BE
:1043000000000000000000000000000000000000AD
:10431000000000000000000000000000000000009D
:104320000000080838F8F8080800000818F8F8989D
:10433000080000000888F8180808000000077FFF40
:10434000F00000C07C071FFFF8000000F81F01000C
:1043500000000000000000077FFFFE0700000003D0
:104360003FFFF01F010000000000000000000000FF
:10437000000100000000000000010100000000003A
:10438000000000000000000000000000000000002D
:10439000000000000000000000000000000000001D
:1043A000000000000000000000000000000000000D
:1043B00000000000000000000000000000000000FD
:1043C00000000000000000000000000000000000ED
:1043D00000000000000000000000000000000000DD
:1043E0000000000000F0F8F8F8F8F000000000000D
:1043F00000000000000000000000000000000101BB
:1044000001010000000000000000000000000000AA
:104410000000000000000080C0404040800000001C
:1044200000000000F0FE0F01000000000107FEF098
:10443000000000003FFFC000000000000080FF3FC0
:1044400000000000000103060C0808080603010034
:1044500000000000000000000080C000000000001C
:10446000000000000001010101FFFF00000000004A
:10447000000000000000000000FFFF00000000003E
:1044800000000000000808080C0F0F0C08080800C6
:10449000000000000000804040404040C08080009C
:1044A000000000001E1900000000000000C1FF3ED7
:1044B000000000000000804030180C06030100C01E
:1044C000000000000E0D0C0C0C0C0C0C0C0C0E0360
:1044D0000000000000808040404040C0800000009C
:1044E000000000000F0F000000000080C17F3E00B0
:1044F00000000000C0C00000010101030206FCF042
:104500000000000003070408080808080406030068
:104510000000000000000000000000C0C00000001B
:104520000000000000008060100C03FFFF0000008E
:10453000000000302C262120202020FFFF202020FA
:1045400000000000000000000808080F0F0808081D
:10455000000000000000C0C0C0C0C0C0C0C0C0C0DB
:104560000000000000FF008040404040C08000008C
:1045700000000000C0C30100000000000001FFFCBB
:1045800000000000030404080808080804070300EA
:10459000000000000000008080404040408080001B
:1045A00000000000E0FC0781C0404040C0830300E1
:1045B000000000007FFF8300000000000001FFFCFE
:1045C00000000000000107060C0808080C060300A4
:1045D0000000000000C0C0C0C0C0C0C0C0C0C0C09B
:1045E000000000000E030000000000E018060100BB
:1045F0000000000000000000C0FC030000000000FC
:1046000000000000000000000F0F0000000000008C
:1046100000000000000080C040404040C08000001A
:10462000000000003E7FF1C0C080000080417F1E7E
:10463000000000F0FC0E0201010103070E1EFCF059
:104640000000000103060408080808080406030126
:10465000000000000080804040404040800000009A
:10466000000000FCFF030000000000000003FEF853
:104670000000000103070C080808080406E17F1F7A
:10468000000000000707080808080C0603010000E6
:10469000000000000000000000000000000000001A
:1046A000000000000000000000000000000000000A
:1046B00000000000000000000000000000000000FA
:1046C00000000000060F0F060000000000000000C0
:1046D00000000000000000000000000000000000DA
:1046E00000002060E020200020E0E020000020E02A
:1046F00060200000077FF080F00F1FFCC0C03C036B
:10470000000000000000070F000000010F03000080
:104710000000000000000000000000000000000099
:104720000000000000000000000000000000000089
:10473000000000010101010101010101010101016C
:104740000100000000000000000000000000000068
:104750000000000002400000000000A00000000077
:1047600005400000000000C8000000000C400000F0
:104770000000409C00000000194000000020BCBE6A
:104780000000000034400000BFC91B8E0000000480
:10479000B5400000504BCFD06607E2CF01000000CB
:1047A0006C4100003E8251AADFEEA73401000000F8
:1047B000D9420000DCB5A0E23A301F97FFFFFFFFAF
:1047C000B4450000FD25A0C8E9A3C14FFFFFFFFFCE
:1047D000FF3F00000000008000000000FF3F0000DD
:1047E00000000080000000002448000800000020B5
:1047F000540000006C0100087848000854000020B4
:10480000742A0000880100081C000000430000001A
:10481000F8FFFFFF0C0000000E0000000F0000007A
:104820002E000000555599400000000000000000D7
:104830000000000000000000000000000000000078
:104840000C0000000000000000000000000000005C
:1048500000A24A040000000000000000010203045E
:104860000607080900000000010203040102030416
:0848700006070809020406080E
:0400000508000131BD
:00000001FF
