:020000040800F2
:100000009804002001010008FF1100086B1100088E
:10001000FD11000875010008D1160008000000005D
:100020000000000000000000000000002312000893
:1000300077010008000000002112000825120008C6
:100040001B0100081B0100081B0100081B01000820
:100050001B0100081B0100081B0100081B01000810
:100060001B0100081B0100081B0100081B01000800
:100070001B0100081B0100081B0100081B010008F0
:100080001B0100081B0100081B0100081B010008E0
:100090001B0100081B0100081B0100081B010008D0
:1000A000D5120008F9120008ED120008E11200084C
:1000B0001B0100081B0100081B0100081B010008B0
:1000C0001B0100081B0100081B0100081B010008A0
:1000D0001B0100081B0100081B0100081B01000890
:1000E0001B0100081B0100081B010008DFF80CD0F1
:1000F00000F02EF800480047E5180008980400209A
:100100000648804706480047FEE7FEE7FEE7FEE7B1
:10011000FEE7FEE7FEE7FEE7FEE7FEE78D120008DA
:10012000ED00000830B50B460146002020220124D6
:1001300009E021FA02F59D4205D303FA02F5491BB5
:1001400004FA02F52844151EA2F10102F1DC30BDCB
:10015000064C074D06E0E06840F0010394E8070014
:1001600098471034AC42F6D3FFF7C4FF5C1A00087E
:100170007C1A0008FEE7704770B5044600F0F2F8FC
:100180000546601C02D004480078044400F0EAF8F8
:10019000401BA042FAD370BD040000202DE9F84FA7
:1001A000DFF890A100220AF1040B144601274FF05A
:1001B0000F090BF1040E00BF0B6807FA04F52B4082
:1001C000AB4274D1DFF870C14E68A6EB0C086645EF
:1001D0002BD00DDC032E34D005DC36B3012E19D024
:1001E000022E2FD11BE0112E16D0122E2AD119E08B
:1001F000B8F5881F19D006DCB8F5803F15D0B8F5E2
:10020000801F1FD111E0B8F5001F0ED0B8F5041FF4
:1002100018D10AE0CA6815E0CA68121D12E0CA685F
:1002200008320FE0CA680C320CE08A682AB1012A51
:100230004FF0080203D0456104E0042202E00561AA
:1002400000E00022FF2B01D8064601E000F1040681
:100250004FEA840501D9A5F12005D6F800C009FAB6
:1002600005F82CEA080C02FA05F54CEA050CC6F86C
:1002700000C04D68ED0057D5304DAE6946F001061F
:10028000AE61AD6924F0030605F0010500952C4D23
:1002900006EB050CDCF80850A6074FEA167809FAB9
:1002A00008F6B543274EB04202D1002610E03BE0ED
:1002B000254EB04201D101260AE0244EB04201D1C0
:1002C000022605E0224EB04201D1032600E00426BA
:1002D00006FA08F62E43CCF808604D68DAF800609C
:1002E000ED03554601D51E4300E09E432E604D6848
:1002F000DBF80060AD035D4601D51E4300E09E4380
:100300002E604D68DEF80060ED02754601D51E4393
:1003100000E09E432E604D68AD020E4D2E6801D563
:100320001E4300E09E432E60641C102CFFF444AF7B
:10033000BDE8F88F000401400000111000100240D9
:100340000000014000080140000C01400010014085
:10035000001401400C0401400AB101617047090416
:10036000FBE700000148806870470000040000209F
:1003700002488168027811448160704704000020BF
:10038000074810B5016841F010010160032000F03A
:100390009DF8002000F006F800F024F8002010BDC1
:1003A0000020024070B50D4D04464FF47A71287854
:1003B000B1FBF0F00A490968B1FBF0F000F02DFB49
:1003C00048B9102C07D200222146501E00F05EF8DA
:1003D00000206C6070BD012070BD00000400002092
:1003E00010000020214808B5816941F001018161B8
:1003F000816901F001010091C16941F08051C16141
:10040000C06900F080500090032000F05FF80022E7
:1004100011466FF00B0000F039F8002211466FF022
:100420000A0000F033F8002211466FF0090000F0D6
:100430002DF800221146501F00F028F80022114626
:10044000101F00F023F800221146901E00F01EF845
:1004500000221146501E00F019F80548416821F0AD
:10046000E06141F00071416008BD000000100240F1
:100470000000014000F01F0201219140400980006E
:1004800000F1E020C0F8001170470000F0B40E4BFE
:100490001B680C46C3F30223C3F10705042D00D9E2
:1004A0000425191D072901D2002300E0DB1E0126C7
:1004B00006FA05F1491E214099409E40761E1640DD
:1004C0003143F0BC00F09CBE0CED00E0064900F0AA
:1004D000070208684FF6FF03184040EA0220034A6B
:1004E00010430860704700000CED00E00000FA05C2
:1004F0002DE9F047DFF83C8105460E46D8F80000AC
:1005000000F00700B0420CD2D8F8001021F007012B
:100510003143C8F80010D8F8000000F00700B042DE
:1005200063D12878444C800705D56068A96820F01D
:10053000F000084360602878C00745D0686801284B
:1005400016D02168022816D0890700294DDA616883
:1005500021F0030101436160FFF704FF696807466A
:1005600041F2883001290FD00229814619D027E0B5
:1005700021688903E9E78901E7E700BFFFF7F2FE99
:10058000C11B494501D918E081466068C0F381006C
:100590000128F3D118E000BFFFF7E4FEC11B494575
:1005A0000BD86068C0F381000228F5D10CE000BFD1
:1005B000FFF7D8FEC11B494502D90320BDE8F087EB
:1005C000606810F00C0FF3D1D8F80010404601F02D
:1005D0000701B1420BD9016821F0070131430160E5
:1005E000006800F00700B04201D00120E6E728785B
:1005F000400705D56068E96820F4E0600843606062
:100600002878000706D56068296920F4605040EA20
:10061000C100606000F03CF86168084AC1F3031152
:10062000515CC840064908600020FFF7BBFE00206F
:10063000C4E700000020024000100240441A0008F5
:1006400010000020014800687047000010000020E2
:100650000448054900684968044AC1F30221515C15
:10066000C84070471000002000100240541A0008D3
:100670000448054900684968044AC1F3C221515C35
:10068000C84070471000002000100240541A0008B3
:1006900012A185B00FC98DE80F0014A0144A00689C
:1006A00004905168134801F00C03042B10D0082B60
:1006B0000ED1C1F38343C9031DF803000AD5516865
:1006C00004AAC1F34041515C0A4A5043B0FBF1F027
:1006D00005B0704708494843FAE7000002030405E3
:1006E000060708090A0B0C0D0E0F1010010200007E
:1006F0000010024000127A0000093D002DE9F84F79
:1007000004460078B94DC00748D06868C0F381003E
:10071000012807D06868C0F38100022809D1686801
:10072000C00306D52868800338D5606800286FD0DC
:1007300034E06068B0F5803F0BD010B1B0F5A02F69
:1007400011D0286820F480302860286820F48020A8
:1007500002E0286840F480302860606888B1FFF7C4
:1007600001FE064609E0286840F480202860F0E792
:10077000FFF7F8FD801B642875D828688003F7D53B
:100780000CE0FFF7EFFD064605E000BFFFF7EAFDCE
:10079000801B6428F0D828688003F7D42078944E12
:1007A00080074FF001094FF000083BD5686810F052
:1007B0000C0F07D06868C0F38100022809D168686F
:1007C000C00306D42868800714D5206901281FD1EA
:1007D00010E02069B0B1C6F80090FFF7C3FD0746EE
:1007E00005E000BFFFF7BEFDC01B0228C4D8286883
:1007F0008007F7D52868616920F0F80040EAC10059
:1008000028600FE0C6F80080FFF7ACFD074606E061
:10081000E9E000BFFFF7A6FDC01B022823D8286827
:100820008007F7D4207800072CD57248A169D9B188
:10083000C0F80090FFF796FD074604E0FFF792FD31
:10084000C01B02280FD8686A8007F7D56A484FF4A2
:10085000FA510068B0FBF1F0009000BF0098411E13
:100860000091FAD20EE080E0C0F80080FFF77AFD38
:10087000074604E0FFF776FDC01B022875D8686ABA
:100880008007F7D42078400760D5E8690027C000CA
:1008900008D4E86940F08050E861E869012700F079
:1008A0008050009055480168C90513D401688346FB
:1008B00041F480710160FFF755FD824606E000BFFC
:1008C000FFF750FDA0EB0A0064284ED8DBF80000CB
:1008D000C005F5D5E06801280AD008B1052813D075
:1008E000286A20F001002862286A20F0040002E053
:1008F000286A40F001002862E06841F2883B98B124
:10090000FFF730FD82460BE0286A40F004002862C1
:10091000EEE700BFFFF726FDA0EB0A0159455AD8C4
:10092000286A8007F6D50CE0FFF71CFD824605E03B
:10093000FFF718FDA0EB0A0159454CD8286A80073B
:10094000F6D41FB1E86920F08050E861E06988B30F
:100950006968C1F38101022945D00228C6F8608088
:1009600004D0FFF7FFFC044638E034E0FFF7FAFC60
:10097000074604E0FFF7F6FCC01B02282BD82868C6
:100980008001F7D4206AB0F5803F05D16868A1687E
:1009900020F4003008436860D4E90801084369681E
:1009A00021F4741108436860C6F86090FFF7DAFC20
:1009B000044606E015E000BFFFF7D4FC001B022848
:1009C00009D828688001F7D50BE000BFFFF7CAFC03
:1009D000001B022802D90320BDE8F88F2868800197
:1009E000F4D40020F8E70120F6E7000000100240F0
:1009F000000042428004424210000020007000408B
:100A00004FF0E0210428086903D020F004000861B9
:100A1000704740F00400FAE7704710B5401EB0F18F
:100A2000807F01D3012010BD4FF0E02460610F21D1
:100A3000601700F0E5FB0020A06107202061002086
:100A400010BD10B5FFF7E8FF10BD7047704730B517
:100A500090F83C20012A20D0012280F83C2002237B
:100A600080F83D3003685C6824F070045C600368C3
:100A70005C680D682C435C6003689C6824F080040B
:100A80009C6003689C6849680C439C6080F83D202A
:100A9000002180F83C10084630BD022030BD10B562
:100AA000040003D094F83D0010B107E0012010BD10
:100AB000002084F83C00204600F00CF8022084F866
:100AC0003D00211D206800F01DFC012084F83D0040
:100AD000002010BD00B500681C4985B0884232D1A5
:100AE0001B48816941F4006181618069694600F4B5
:100AF000006004904FF480700090002001900290FC
:100B00001448FFF74BFB002211461820FFF7BEFCEC
:100B10001820FFF7AFFC002211461920FFF7B6FCA2
:100B20001920FFF7A7FC002211461A20FFF7AEFCA0
:100B30001A20FFF79FFC002211461B20FFF7A6FC9E
:100B40001B20FFF797FC05B000BD0000002C014002
:100B5000001002400008014070B5044690F83C00C7
:100B6000012817D0012584F83C50022084F83D006C
:100B70002068826822F0770222F47F42826008684F
:100B8000502837D00DDC202859D005DC88B3102838
:100B900041D151E0022070BD302853D040283AD1D5
:100BA0003FE060282ED070280BD0B0F5805F03D0D6
:100BB000B0F5005F2FD110E02068816821F00701B7
:100BC00015E0CB68D1E90121206800F0DCFB216849
:100BD000886840F0770088601DE0CB68D1E901218A
:100BE000206800F0D0FB2068816841F4804181607A
:100BF00011E01EE0CA684968206800F014FC50212A
:100C0000206806E0CA684968206800F049FC602155
:100C1000206800F0C2FB84F83D50002084F83C00BE
:100C200070BDCA684968206800F0FDFB402120685B
:100C3000EFE700212068ECE710212068E9E7202198
:100C40002068E6E730212068E3E7000010B5017F67
:100C5000012904D1002100F08AF90149086010BD82
:100C6000000000202DE9F041044690F83C000D46BC
:100C700001283BD0012684F83C60022084F83D0026
:100C80009AB3042A44D02068082A53D0D5E9002713
:100C9000E968036A23F480530362D0F81CC0036A36
:100CA0002CF4407C4CEA07274FF6FF7C27F4704772
:100CB0000CEA01313943770323F4005307EA023287
:100CC0001A43C16102622068C16921F44061C161B7
:100CD0002068C169AA6841EA0221C16184F83D60C7
:100CE000002084F83C00BDE8F08101E00220FAE732
:100CF000D5E90012EB68206800F0A6FB2068816946
:100D000021F00C01816120688169AA6811430FE01C
:100D1000D5E90012EB68206800F0D4FB20688169F7
:100D200021F44061816120688169AA6841EA022159
:100D30008161D3E7D5E9002C2F7B016A21F4807112
:100D40000162C169036A21F0030141EA0C0121F04B
:100D5000F00C39074FF420674CEA116123F420634B
:100D600007EA02221A43C16102622068C16921F0C8
:100D70000C01C1612068C169AA681143ADE710B5D3
:100D8000040003D094F83D0010B107E0012010BD2D
:100D9000002084F83C00204600F00CF8022084F883
:100DA0003D00211D206800F0ADFA012084F83D00CF
:100DB000002010BD704710B50268044631B1042907
:100DC00008D0082915D00C2908D116E0D06840F0C9
:100DD000020002E0D06840F00400D06001222068E8
:100DE00000F0C6FA2068016841F0010101600020AE
:100DF00010BDD06840F00800EFE7D06840F0100068
:100E0000EBE770B50446006801694FF00005C9437F
:100E1000890715D4C168C943890711D4E91E016146
:100E200001202077206880698007204602D0FFF7E4
:100E30000DFF04E000F098F8204600F096F82577C2
:100E400020680169C943490717D4C168C9434907E4
:100E500013D46FF0040101610220207720688069BB
:100E600010F4407F204602D0FFF7F0FE04E000F0CF
:100E70007BF8204600F079F8257720680169C9439E
:100E8000090716D4C168C943090712D46FF00801D5
:100E90000161042020772068C0698007204602D0C5
:100EA000FFF7D4FE04E000F05FF8204600F05DF8A4
:100EB000257720680169C943C90617D4C168C943A9
:100EC000C90613D46FF01001016108202077206853
:100ED000C06910F4407F204602D0FFF7B7FE04E05F
:100EE00000F042F8204600F040F8257720680169BC
:100EF000C943C90708D1C168C943C90704D1891EBC
:100F00000161204600F032F820680169C9430906F2
:100F100009D4C168C943090605D46FF08001016195
:100F20002046FFF792FD20680169C943490609D4AC
:100F3000C168C943490605D46FF0400101612046EC
:100F400000F058F820680169C94389060BD4C168CC
:100F5000C943890607D46FF0200101612046BDE82E
:100F60007040FFF773BD70BD70477047704790F8D1
:100F70003C300022012B0AD0012380F83C3041B1E3
:100F8000042909D008290AD00C290DD10AE0022031
:100F9000704701684A6B07E001688A6B04E00168EA
:100FA000CA6B01E001680A6C002180F83C10104611
:100FB000704770B5044690F83C00012818D0012510
:100FC00084F83C50022084F83D00204600F0EDF902
:100FD0002068C16821F04001C1602068C16821F427
:100FE0008041C16084F83D50002084F83C0070BD11
:100FF000022070BD704770B5040004D094F8390029
:10100000002510B106E0012070BD84F8385020465C
:1010100000F022F8242084F839002068C16821F407
:101020000051C160204600F069FA2068016921F48E
:10103000904101612068416921F02A0141612068E5
:10104000C16841F40051C160E563202084F8390093
:1010500084F83A00002070BD10B50068114986B0D0
:1010600088421CD11048C16941F40031C161C06996
:101070000E4C00F4003004900420009002200190F7
:101080000320039069462046FFF788F800210820D6
:10109000CDE90001029169462046FFF77FF806B0CE
:1010A00010BD000000440040001002400008014054
:1010B0002DE9F843044690F839001F4616460D46C0
:1010C000202850D1A5B19EB194F8380001284AD00B
:1010D000012084F838004FF00008C4F83C8021203B
:1010E00084F83900FFF73EF9A6848146E68426E0BD
:1010F0000120BDE8F883E08C401EE084A0684B46E8
:10110000B0F5805F4FF000024FF08001204600975D
:1011100003D000F0ABFAE8B90DE000F0A7FAC8B9C7
:1011200028882168C0F308004860206908B16D1C58
:1011300005E0AD1C03E0216815F8010B4860E08C68
:101140000028D8D14B46002240212046009700F0CD
:101150008DFA08B10320CCE7202084F8390084F808
:1011600038800020C5E70220C3E7FEE710B522481B
:1011700090B020490024C0E900144FF6FF71C0E987
:101180000241046144618461FFF789FC00B1FEE71C
:101190004FF48050099009A91748FFF7DDFC00B112
:1011A000FEE71548FFF7EBFD00B1FEE704200090D5
:1011B0005020CDE9010469460F480494FFF7F9FE79
:1011C00000B1FEE70D940DA90B480E94FFF73FFC0C
:1011D00000B1FEE70120CDE905400794002205A9F2
:1011E00005480894FFF73EFD002800D0FEE710B048
:1011F00010BD0000002C014018000020FEE77047E1
:101200000907090E002806DA00F00F0000F1E020BF
:1012100080F8141D704700F1E02080F8001470473A
:101220007047704710B5FFF7A3F8BDE81040FFF70F
:1012300008BC10B590B0022000900120049010204E
:101240000024059007946846FFF758FA00B1FEE7BE
:101250000F20CDE90A040C940D9400210AA80E94E5
:10126000FFF746F900B1FEE7FFF7ECF94FF47A71AA
:10127000B0FBF1F0FFF7D1FB0420FFF7C1FB002228
:101280001146501EFFF702F910B010BD0D4801685D
:1012900041F00101016041680B4A11404160016861
:1012A0000A4A11400160016821F48021016041680F
:1012B00021F4FE0141604FF41F0181600449C00325
:1012C00008607047001002400000FFF8FFFFF6FEC4
:1012D00008ED00E00148FFF794BD00001800002071
:1012E0000148FFF78EBD0000180000200148FFF7FD
:1012F00088BD0000180000200148FFF782BD0000F3
:1013000018000020F0B50268164B174C174D4FF02F
:101310008047984205D0B84203D0A04201D0A842ED
:1013200003D122F070064A683243984205D0B84291
:1013300003D0A04201D0A84203D122F44074CA686D
:10134000224322F080044A69224302608A68C26212
:101350000A688262984201D10969016301214161F1
:10136000F0BD0000002C01400004004000080040D7
:1013700010B50123046A8B409C430462036A8A40CF
:101380001343036210BD10B5846842EA032224F4BB
:101390007F440A432243826010BD826822F07002BB
:1013A0000A4342F007018160704730B403689A68CD
:1013B00022F070044A68224322F007040A6822439C
:1013C0009A604A6812F00F0F1FD11211082A1CD21E
:1013D000DFE802F01B1B1B1B0B1D23040B69D1E96B
:1013E0000221006830BCFFF7CEBF0268136A146A9E
:1013F00024F00104146202689469096924F0F0047D
:1014000044EA011191610068036230BC70470A69C7
:101410008968006830BC00F006B80A69896800680D
:1014200030BC00F03DB810B5036A046A24F0010432
:101430000462846924F0F00444EA021423F00A02EE
:101440000A438461026210BD70B5046A24F001048D
:1014500004628469056A0F4EB04208D0B0F1804F33
:1014600005D00D4EB04202D00C4EB04203D124F054
:101470000304144301E044F001041A0724F0F004CB
:1014800044EA126225F00A0301F00A01194382615D
:10149000016270BD002C01400004004000080040C3
:1014A00010B5036A23F0100303628369046A23F40E
:1014B000704343EA023224F0A00343EA011182613F
:1014C000016210BD30B5046A24F01004046284691E
:1014D000056A24F4407444EA022222F470444FF670
:1014E000FF7202EA03322243A02425F0A00304EA9B
:1014F000011119438261016230BD00002DE9F04104
:10150000044600680169E26821F440511143016119
:101510002169A0680843616908432168CA6841F2EB
:101520000C639A430243CA6020684169A26921F4AE
:101530004071114341614C4920686425322688423C
:101540003CD1FFF795F800EBC00101EB001061689A
:101550008900B0FBF1F7FFF78BF800EBC00101EB5E
:1015600000106168B0468900B0FBF1F0B0FBF5F007
:101570006FF01801484307EB800106EB0110B0FB48
:10158000F5F000F0F006FFF773F800EBC00101EB97
:10159000001061688900B0FBF1F0B0FBF5F006EBDC
:1015A0000016FFF765F800EBC00101EB0010616861
:1015B0008900B0FBF1F7FFF75BF83BE0FFF748F875
:1015C00000EBC00101EB001061688900B0FBF1F78E
:1015D000FFF73EF800EBC00101EB00106168B04678
:1015E0008900B0FBF1F0B0FBF5F06FF01801484353
:1015F00007EB800106EB0110B0FBF5F000F0F00600
:10160000FFF726F800EBC00101EB001061688900CC
:10161000B0FBF1F0B0FBF5F006EB0016FFF718F8A1
:1016200000EBC00101EB001061688900B0FBF1F72D
:10163000FFF70EF800EBC00101EB001061688900B4
:10164000B0FBF1F0B0FBF5F06FF01801484307EB89
:10165000800108EB0110B0FBF5F0216800F00F00ED
:1016600030448860BDE8F081003801402DE9F04148
:10167000984617460E460446069D1DE0681C1BD082
:101680002DB1FEF76FFEA0EB0800A84214D9206828
:10169000C16821F4D071C1602068416921F0010165
:1016A0004161202084F8390084F83A00002084F851
:1016B00038000320BDE8F0812068006836EA0000A9
:1016C00004D00020B842D9D00020F3E70120F9E788
:1016D000FEE700000FB4054B10B503A9044A0298B9
:1016E00000F018F810BC5DF814FB0000CD180008DD
:1016F0001400002002E008C8121F08C1002AFAD115
:1017000070477047002001E001C1121F002AFBD181
:10171000704700002DE9FF4F8BB09A460F460546F3
:10172000002606E025280BD052460D9990476D1CE7
:10173000761C28780028F5D10FB03046BDE8F08F30
:101740000024A0460122604900E0044315F8013F4F
:10175000203B02FA03F00842F7D128782E2817D14F
:1017600015F8010F44F004042A280ED06FF02F0260
:101770002878A0F1300109290AD808EB880102EB8A
:10178000410100EB01086D1CF2E757F8048B6D1C5A
:10179000287869283ED006DC0028CDD063280BD0FD
:1017A000642804D136E0732810D075284BD05246F7
:1017B0000D999047761C85E017F8040B8DF8000012
:1017C00000208DF80100E946012003E057F8049B52
:1017D0004FF0FF3061074FF0000401D40AE0641CB1
:1017E00044450DDA8442FADB19F804100029F6D1D9
:1017F00006E0641C8442FCDB19F804100029F8D1CF
:10180000264404E019F8010B52460D999047641ED6
:10181000F8D257E001CF4FF00A0B002802DA40421D
:101820002D2102E0210504D52B218DF82410012162
:1018300003E0E10705D02021F7E70DF12009089129
:101840000CE00021F9E701CF4FF00A0BF9E7594608
:10185000FEF768FC01F1300209F8012D0028F6D1ED
:10186000ADEB090000F1200B600701D44FF0010837
:10187000D84502DDA8EB0B0000E0002080460024E4
:1018800006E009A85246005D0D999047641C761C3D
:1018900008988442F5DB04E0302052460D999047C9
:1018A000761CB8F10001A8F10108F5DC05E019F893
:1018B000010B52460D999047761CBBF10001ABF12C
:1018C000010BF4DC6D1C34E70928010013B54FF659
:1018D000FF73012269460248FFF7EAFB00981CBD2E
:1018E0005800002086B0FEF74BFDFFF7A2FC2E4803
:1018F000816941F004018161816901F00401049171
:10190000816941F0080181618069284D00F008007B
:101910000490002220212846FEF71EFD2020009082
:1019200001200024CDE901040220039069462846E5
:10193000FEF734FC1F481E4901604FF4E131C0E955
:1019400001140C21C460C0E904418461C461FFF743
:1019500052FB00B1FEE7FFF709FC17A0FFF7BAFE44
:101960001DA0FFF7B7FE23A225A128A0FFF7B2FE16
:10197000104800214038FFF71EFA00B1FEE7294D5C
:101980004FF47A7428A0FFF7A5FE2046FEF7F4FB7B
:1019900026A0FFF79FFE2046FEF7EEFB24A0296855
:1019A000FFF798FEEEE7000000100240000C014037
:1019B00000440040580000207369636875616E2020
:1019C000756E69766572736974792077736E206CB1
:1019D00061620D0A0000000070726F6A6563742016
:1019E000706F776572706C75672076312E300D0AD6
:1019F0000000000031393A31353A3336000000003A
:101A0000536570202039203230313800636F6D709B
:101A1000696C6520646174653A2025732025730D17
:101A20000A00000000000020310D0A00300D0A00FD
:101A3000757749433256616C7565313D25640D0AF1
:101A4000000000000000000000000000010203048C
:101A50000607080900000000010203047C1A0008C0
:101A60000000002018000000F4160008941A000876
:101A70001800002080040000041700080000000087
:101A800001000000100000000000000000A24A0455
:041A90000000000052
:04000005080000ED02
:00000001FF
