:020000040800F2
:100000006014002099010008C91A0008311A00087C
:10001000331A0008BB0800089D1F000800000000FC
:1000200000000000000000000000000001010008C6
:10003000FF0800080000000045010008EB1A000856
:10004000B3010008B3010008B3010008B3010008C0
:10005000B3010008B3010008B3010008B3010008B0
:10006000B3010008B3010008B3010008B3010008A0
:10007000BD080008C9080008B3010008B301000862
:10008000B3010008B3010008B3010008B301000880
:10009000B3010008B3010008B3010008B301000870
:1000A000B3010008B3010008B3010008B301000860
:1000B000B3010008B3010008B3010008B301000850
:1000C000B3010008B3010008B3010008B301000840
:1000D000B3010008711F0008B30100087D1F00086C
:1000E000B3010008B3010008B3010008DFF80CD029
:1000F00000F0B0FB004800476929000860140020A8
:10010000224B19680868B0E8F00F80F30988BFF344
:100110006F8F4FF0000080F311884EF00D0E704786
:100120000000000006480068006880F3088862B696
:1001300061B6BFF34F8FBFF36F8F00DF00BF00BF0B
:1001400008ED00E0EFF30980BFF36F8F0F4B1A68E3
:1001500020E9F00F106008B54FF0500080F31188CF
:10016000BFF34F8FBFF36F8F03F05EFC4FF00000C3
:1001700080F31188BDE8084019680868B0E8F00FFE
:1001800080F30988BFF36F8F704700BF7C000020A9
:10019000EFF3058070470000064880470648004797
:1001A000FEE7FEE7FEE7FEE7FEE7FEE7FEE7FEE727
:1001B000FEE7FEE7551B0008ED000008202A04DBDF
:1001C000203A21FA02F00021704721FA02F3D040D0
:1001D000C2F12002914008431946704740EA0103EA
:1001E0009B0703D009E008C9121F08C0042AFAD2ED
:1001F00003E011F8013B00F8013B521EF9D27047B1
:10020000D2B201E000F8012B491EFBD27047002258
:10021000F6E710B513460A4604461946FFF7F0FF05
:10022000204610BD30B505462A460B4612F8010B94
:1002300013F8014B08B1A042F8D01CB1002802D03D
:100240006D1CF1E7284630BD421C10F8011B002947
:10025000FBD1801A70472DE9FE4F81EA030404F0B8
:10026000004421F0004100944FF0000B23F00043C4
:1002700050EA01045ED052EA03045BD0C3F30A548F
:10028000C1F30A552C44A4F2F3340194A0FB0254A8
:10029000C1F3130141F48011C3F3130343F480133A
:1002A00001FB024400FB034E840A970A44EA81548E
:1002B00047EA8357A4FB076802958D0A05FB07856B
:1002C0004FEA932C04FB0C542705029D4FEA065875
:1002D00047EA1637B5EB08056EEB070C870E920E52
:1002E00047EA811742EA8312A7FB0201B6EB0B0132
:1002F00064EB00042B0D43EA0C335E1844EB1C50F6
:10030000DA465146E7FB0201C5F313044FEA0B330B
:1003100043EA14534FEA0432019C43EA0603A4F172
:100320000C040294009CCDE900B400F0FFF803B087
:10033000BDE8F08F00200146F9E770B521F00043D9
:1003400003430CD0C1F30A550024D5EB040564EB3C
:100350000403D617AD1AB34102DB0020014670BD7D
:10036000201841EB025170BD0EB540F233410291AD
:100370000021CDE900110A460B4600F0D7F803B082
:1003800000BD00F0004220F00040C10DC0F3160097
:1003900040F400007F2901DA00207047962903DC31
:1003A000C1F19601C84001E096398840002AF4D096
:1003B0004042704700F0004230F000400AD0C10DCA
:1003C00001F56071C0F3160042EA0151C20840070E
:1003D0001143704700200146704701F0004330B4DC
:1003E00021F0004150EA010206D00A0DA2F5607228
:1003F000C1F31301002A02DC30BC00207047440F17
:1004000044EAC104C100E01830BC00EBC25000F067
:1004100047B830B50B46014600202022012409E0F0
:1004200021FA02F59D4205D303FA02F5491B04FAAD
:1004300002F52844151EA2F10102F1DC30BD2DE9C0
:10044000F05F0546002092469B4688460646814658
:1004500040241BE02846414647462246FFF7AEFEB1
:1004600053465A46C01A914110D3114618462246A7
:1004700000F002FA2D1A67EB01084F4622460120D0
:10048000002100F0F9F917EB00094E41201EA4F1FC
:100490000104DFDC484631462A464346BDE8F09F6A
:1004A0000029A8BF7047401C490008BF20F0010088
:1004B000704710B4B0FA80FC00FA0CF050EA010466
:1004C00004BF10BC704749B1CCF1200421FA04F4F8
:1004D00011FA0CF118BF012121430843A3EB0C01D1
:1004E000CB1D4FEA00614FEA102042BF002010BC34
:1004F000704700EBC35010440029A4BF10BC7047E4
:10050000401C490008BF20F0010010BC704710B526
:10051000141E73F1000408DA401C41F10001921826
:100520005B411A4301D120F0010010BD2DE9F04DCF
:1005300092469B4611B1B1FA81F202E0B0FA80F224
:100540002032904600F098F904460F4640EA0A002F
:1005500041EA0B0153465A46084313D0114653EA69
:10056000010019D0C8F140025046FFF727FE0546AA
:100570000E4650465946424600F07EF9084305D0E3
:10058000012004E020463946BDE8F08D00200543F7
:1005900046EAE0762C4337430A986305E40AA0EB69
:1005A00008000022FD0A44EA47540A3002D5002020
:1005B0000146E9E7010510196941DDE9084500191F
:1005C0006941BDE8F04DA2E72DE9FE4F804681EA82
:1005D0000300C00F0C46009021F0004123F00045BD
:1005E000B8EB0200A94105D24046214690461C4680
:1005F0000B46024623F00040104347D0270DC7F3B7
:100600000A00C3F30A510290401A019040286BDAA5
:10061000C3F3130040F4801B0098924620B10023DE
:10062000D2EB030A63EB0B0B01985946C0F1400271
:10063000504600F021F906460D4650465946019AAB
:1006400000F029F910EB08006141002487EA1152FB
:1006500084EAE7731A4340D0009A62B3019A012AF0
:100660004FEA075215DC001B61EB02014FF000421C
:1006700002EA0752CDE90042001C41F580113246E2
:100680002B46FFF753FF03B0BDE8F08F40462146ED
:10069000F9E7001B61EB0201001C41F58013001813
:1006A0005B412018A2F5001747EB030140EAD57023
:1006B000B6196D4111E06D084FEA360645EAC0757E
:1006C0004FEA0752001B61EB0201001C41F580114B
:1006D00049084FEA30000019514132462B4603B019
:1006E000BDE8F04FFFF713BF009801224000002340
:1006F000D0EB020263EBE073009821464FEAE0740E
:10070000B8EB000061EB0401E9E783F000435BE72D
:1007100081F0004158E72DE9F04D81EA030404F02F
:10072000004B21F0004514464FF0000A23F0004131
:1007300050EA050220D054EA01021DD0C5F30A5741
:100740000246C5F31303C1F31300C1F30A5640F484
:10075000801543F48013A7EB0608101BD64608F259
:10076000FD3873EB050002D308F1010801E092188F
:100770005B41B8F1000F03DA00200146BDE8F08DBF
:1007800000204FF48011064684460EE0171B73EBE1
:10079000050705D3121B63EB050306434CEA010C66
:1007A00049084FEA300092185B4150EA0107EDD149
:1007B00052EA030012D082EA040083EA05010843EA
:1007C00005D0101BAB4106D20122002306E0002217
:1007D0004FF0004302E06FF0010253101AEB0600E5
:1007E0004CEB085110EB0A0041EB0B01BDE8F04D5A
:1007F000FFF78DBEC1F30A52C1F3130140F2FF337C
:1008000041F480119A4202DA00200146704740F21A
:1008100033439A42A2F2334202DC5242FFF7CEBC8B
:1008200000F02AB830B5041E71F1000404DB4FF06B
:100830000044404264EB0101141E73F1000405DB27
:100840001C464FF00043524263EB0403994208BF39
:10085000904230BD064C074D06E0E06840F00103D1
:1008600094E8070098471034AC42F6D3FFF742FCF7
:1008700090440008B0440008202A04DB203A00FA23
:1008800002F1002070479140C2F1200320FA03F3E7
:10089000194390407047202A06DBCB17203A41FAD3
:1008A00002F043EAE07306E041FA02F3D040C2F1FD
:1008B00020029140084319467047FEE7014800F0C6
:1008C00087B800002C030020014800F081B8000028
:1008D000E802002030B590F840500124AC40C56BD0
:1008E0006C60046863604368102B036803D09960F0
:1008F0000068C26030BD9A600068C16030BD70475A
:1009000001680A6822F00E020A6001680A6822F093
:1009100001020A6090F84020C36B012101FA02F243
:100920005A6080F82110002180F820100846704796
:1009300010B590F821100024022903D0042181630E
:1009400001243DE001680A6822F00E020A60016895
:100950000A6822F001020A601A4A0168914201D134
:10096000012121E0174A1432914201D110211BE0EC
:10097000144A2832914201D1891515E0114A3C32BE
:10098000914201D189140FE00E4A5032914202D1B6
:100990004FF4803108E00B4A6432914202D14FF4A7
:1009A000801101E04FF08071064A083A5160012140
:1009B00080F82110002180F82010416B01B1884798
:1009C000204610BD0800024090F82100704700004A
:1009D0002DE9F05FC16B0C6801680B68D0F840C06E
:1009E000042202FA0CF2494DDFF824A1494E4A4F85
:1009F000DFF828B1DFF828E122422CD05A072AD5A7
:100A00000A68920603D40A6822F004020A600168A8
:100A1000A94201D1042219E0514501D1402215E03B
:100A2000B14202D14FF4806210E0B94202D14FF4DA
:100A300080420BE0594502D14FF4802206E0714517
:100A400002D14FF4800201E04FF080622F49083953
:100A50004A60C16A3BE04FF0020808FA0CF818EA55
:100A6000040F4FF000094FF0010235D05FEA8378A0
:100A700032D50B689B0605D40B6823F00A030B6084
:100A800080F821200168A94201D1022219E05145D4
:100A900001D1202215E0B14202D14FF4007210E0E2
:100AA000B94202D14FF400520BE0594502D14FF444
:100AB000003206E0714502D14FF4001201E04FF020
:100AC0000072124908394A6080F82090816A002932
:100AD0001AD0BDE8F05F0847082505FA0CF5254255
:100AE00012D01B0710D50B6823F00E030B6090F893
:100AF0004010C36B02FA01F15960826380F8212033
:100B000080F82090016BE2E7BDE8F09F080002400A
:100B10001C000240300002404400024058000240E5
:100B20006C00024030B548B308C815491422194476
:100B3000B1FBF2F18900C16312498163022141775F
:100B40001A6843F6F0718A43D0E900142143D0E9D2
:100B500002452C43214304692143446921438469AC
:100B6000214311431960002141628162C162016326
:100B70004163012242770177084630BD012030BD34
:100B8000F8FFFDBF0000024070B5044690F8200059
:100B9000002501280CD0012084F8200094F8216061
:100BA0000020012E06D084F820000225284670BDC2
:100BB000022070BD022684F82160A06320680668C8
:100BC00026F0010606602046FFF784FEE06A002852
:100BD0002068016802D041F00E0106E021F0040116
:100BE00001602068016841F00A0101602068016825
:100BF00041F001010160D9E770B5044600F0F2F858
:100C00000546601C02D004480078044400F0EAF86D
:100C1000401BA042FAD370BD480000202DE9F84FD8
:100C2000DFF890A100220AF1040B144601274FF0CF
:100C30000F090BF1040E00BF0B6807FA04F52B40F7
:100C4000AB4274D1DFF870C14E68A6EB0C08664564
:100C50002BD00DDC032E34D005DC36B3012E19D099
:100C6000022E2FD11BE0112E16D0122E2AD119E000
:100C7000B8F5881F19D006DCB8F5803F15D0B8F557
:100C8000801F1FD111E0B8F5001F0ED0B8F5041F6A
:100C900018D10AE0CA6815E0CA68121D12E0CA68D5
:100CA00008320FE0CA680C320CE08A682AB1012AC7
:100CB0004FF0080203D0456104E0042202E0056120
:100CC00000E00022FF2B01D8064601E000F10406F7
:100CD0004FEA840501D9A5F12005D6F800C009FA2C
:100CE00005F82CEA080C02FA05F54CEA050CC6F8E2
:100CF00000C04D68ED0057D5304DAE6946F0010695
:100D0000AE61AD6924F0030605F0010500952C4D98
:100D100006EB050CDCF80850A6074FEA167809FA2E
:100D200008F6B543274EB04202D1002610E03BE062
:100D3000254EB04201D101260AE0244EB04201D135
:100D4000022605E0224EB04201D1032600E004262F
:100D500006FA08F62E43CCF808604D68DAF8006011
:100D6000ED03554601D51E4300E09E432E604D68BD
:100D7000DBF80060AD035D4601D51E4300E09E43F5
:100D80002E604D68DEF80060ED02754601D51E4309
:100D900000E09E432E604D68AD020E4D2E6801D5D9
:100DA0001E4300E09E432E60641C102CFFF444AFF1
:100DB000BDE8F88F0004014000001110001002404F
:100DC0000000014000080140000C014000100140FB
:100DD000001401400C0401400AB10161704709048C
:100DE000FBE70000014880687047000048000020D1
:100DF00002488168027811448160704748000020F1
:100E0000074810B5016841F010010160032000F0AF
:100E10009DF80F2000F006F800F024F8002010BD27
:100E20000020024070B50D4D04464FF47A712878C9
:100E3000B1FBF0F00A490968B1FBF0F000F02CFBBF
:100E400048B9102C07D200222146501E00F05EF84F
:100E500000206C6070BD012070BD000048000020C3
:100E600054000020214808B5816941F001018161E9
:100E7000816901F001010091C16941F08051C161B6
:100E8000C06900F080500090032000F05FF800225D
:100E900011466FF00B0000F039F8002211466FF098
:100EA0000A0000F033F8002211466FF0090000F04C
:100EB0002DF800221146501F00F028F8002211469C
:100EC000101F00F023F800220F21901E00F01EF8E2
:100ED00000220F21501E00F019F80548416821F04A
:100EE000E06141F00071416008BD00000010024067
:100EF0000000014000F01F020121914040098000E4
:100F000000F1E020C0F8001170470000F0B40E4B73
:100F10001B680C46C3F30223C3F10705042D00D957
:100F20000425191D072901D2002300E0DB1E01263C
:100F300006FA05F1491E214099409E40761E164052
:100F40003143F0BC00F0C1BD0CED00E0064900F0FB
:100F5000070208684FF6FF03184040EA0220034AE0
:100F600010430860704700000CED00E00000FA0537
:100F70002DE9F047DFF83C8105460E46D8F8000021
:100F800000F00700B0420CD2D8F8001021F00701A1
:100F90003143C8F80010D8F8000000F00700B04254
:100FA00063D12878444C800705D56068A96820F093
:100FB000F000084360602878C00745D068680128C1
:100FC00016D02168022816D0890700294DDA6168F9
:100FD00021F0030101436160FFF704FF69680746E0
:100FE00041F2883001290FD00229814619D027E02B
:100FF00021688903E9E78901E7E700BFFFF7F2FE0F
:10100000C11B494501D918E081466068C0F38100E1
:101010000128F3D118E000BFFFF7E4FEC11B4945EA
:101020000BD86068C0F381000228F5D10CE000BF46
:10103000FFF7D8FEC11B494502D90320BDE8F08760
:10104000606810F00C0FF3D1D8F80010404601F0A2
:101050000701B1420BD9016821F00701314301605A
:10106000006800F00700B04201D00120E6E72878D0
:10107000400705D56068E96820F4E06008436060D7
:101080002878000706D56068296920F4605040EA96
:10109000C100606000F03CF86168084AC1F30311C8
:1010A000515CC840064908600F20FFF7BBFE0020D6
:1010B000C4E700000020024000100240484400083D
:1010C00054000020014800687047000054000020D0
:1010D0000448054900684968044AC1F30221515C8B
:1010E000C8407047540000200010024058440008D7
:1010F0000448054900684968044AC1F3C221515CAB
:10110000C8407047540000200010024058440008B6
:1011100012A185B00FC98DE80F0014A0144A006811
:1011200004905168134801F00C03042B10D0082BD5
:101130000ED1C1F38343C9031DF803000AD55168DA
:1011400004AAC1F34041515C0A4A5043B0FBF1F09C
:1011500005B0704708494843FAE700000203040558
:10116000060708090A0B0C0D0E0F101001020000F3
:101170000010024000127A0000093D002DE9F84FEE
:1011800004460078B94DC00748D06868C0F38100B4
:10119000012807D06868C0F38100022809D1686877
:1011A000C00306D52868800338D5606800286FD052
:1011B00034E06068B0F5803F0BD010B1B0F5A02FDF
:1011C00011D0286820F480302860286820F480201E
:1011D00002E0286840F480302860606888B1FFF73A
:1011E00001FE064609E0286840F480202860F0E708
:1011F000FFF7F8FD801B642875D828688003F7D5B1
:101200000CE0FFF7EFFD064605E000BFFFF7EAFD43
:10121000801B6428F0D828688003F7D42078944E87
:1012200080074FF001094FF000083BD5686810F0C7
:101230000C0F07D06868C0F38100022809D16868E4
:10124000C00306D42868800714D5206901281FD15F
:1012500010E02069B0B1C6F80090FFF7C3FD074663
:1012600005E000BFFFF7BEFDC01B0228C4D82868F8
:101270008007F7D52868616920F0F80040EAC100CE
:1012800028600FE0C6F80080FFF7ACFD074606E0D7
:10129000E9E000BFFFF7A6FDC01B022823D828689D
:1012A0008007F7D4207800072CD57248A169D9B1FE
:1012B000C0F80090FFF796FD074604E0FFF792FDA7
:1012C000C01B02280FD8686A8007F7D56A484FF418
:1012D000FA510068B0FBF1F0009000BF0098411E89
:1012E0000091FAD20EE080E0C0F80080FFF77AFDAE
:1012F000074604E0FFF776FDC01B022875D8686A30
:101300008007F7D42078400760D5E8690027C0003F
:1013100008D4E86940F08050E861E869012700F0EE
:101320008050009055480168C90513D40168834670
:1013300041F480710160FFF755FD824606E000BF71
:10134000FFF750FDA0EB0A0064284ED8DBF8000040
:10135000C005F5D5E06801280AD008B1052813D0EA
:10136000286A20F001002862286A20F0040002E0C8
:10137000286A40F001002862E06841F2883B98B199
:10138000FFF730FD82460BE0286A40F00400286237
:10139000EEE700BFFFF726FDA0EB0A0159455AD83A
:1013A000286A8007F6D50CE0FFF71CFD824605E0B1
:1013B000FFF718FDA0EB0A0159454CD8286A8007B1
:1013C000F6D41FB1E86920F08050E861E06988B385
:1013D0006968C1F38101022945D00228C6F86080FE
:1013E00004D0FFF7FFFC044638E034E0FFF7FAFCD6
:1013F000074604E0FFF7F6FCC01B02282BD828683C
:101400008001F7D4206AB0F5803F05D16868A168F3
:1014100020F4003008436860D4E908010843696893
:1014200021F4741108436860C6F86090FFF7DAFC95
:10143000044606E015E000BFFFF7D4FC001B0228BD
:1014400009D828688001F7D50BE000BFFFF7CAFC78
:10145000001B022802D90320BDE8F88F286880010C
:10146000F4D40020F8E70120F6E700000010024065
:1014700000004242800442425400002000700040BC
:101480004FF0E0210428086903D020F0040008612F
:10149000704740F00400FAE710B5401EB0F1807FBD
:1014A00001D3012010BD4FF0E02460610F216017CF
:1014B00000F00BFB0020A06107202061002010BD80
:1014C00010B504460068416994F83920C1F3C01191
:1014D000212A0BD151B1416921F080014161206B7A
:1014E00008B1FFF70DFA204600F0D2FB20684169F1
:1014F00094F83A20C1F38011222A0BD151B14169ED
:1015000021F040014161606B08B1FFF7F9F9204615
:1015100000F0B0FB002010BD7047000070B50268FD
:1015200004461068D168536910F00F0F50D003F0D3
:10153000010501F4907635435DD0C20705D0CA0598
:1015400003D5E26B42F00102E263420705D5DA07F8
:1015500003D0E26B42F00202E263820705D5DA07AC
:1015600003D0E26B42F00402E263020705D5DA071A
:1015700003D0E26B42F00802E263E26B002A33D050
:10158000800604D5880602D5204600F08AFB206834
:101590004069E16BC0F38010090700D428B32046EE
:1015A00000F068FB2068416949061AD5416921F0BD
:1015B00040014161606BA0B11B494163606BFFF763
:1015C000B7F9002810D0606B416BBDE87040084748
:1015D000830610D58B060ED52046BDE8704000F07E
:1015E00060BB2046FFF798FF70BD2046FFF794FFD1
:1015F0000020E06370BD030606D50B0604D5204627
:10160000BDE8704000F050BC4006F3D54806F1D567
:10161000D168204621F04001D160202184F83910A2
:1016200000F004FA70BD00009D1B000870B50400B6
:1016300004D094F83900002510B106E0012070BDF7
:1016400084F83850204600F023F8242084F839002C
:101650002068C16821F40051C160204600F06CFB95
:101660002068016921F4904101612068416921F0FD
:101670002A0141612068C16841F40051C160E563FD
:10168000202084F8390084F83A00002070BD000062
:10169000F0B5064603684248DFF800C10221032284
:1016A000404D0715002485B0634512D1836943F48A
:1016B000804383618069039200F4804004900802B3
:1016C000CDE9000169462846FFF7A8FACDE9007484
:1016D00016E0DFF8D4C0634519D1C36943F4003381
:1016E000C361C069039200F4003004900420CDE986
:1016F000000169462846FFF791FA0820CDE9000469
:10170000694628460294FFF789FA05B0F0BD274DD7
:10171000AB42FAD1C36943F48023C361C069CDE908
:10172000007100F48020CDE90320214D6946284650
:10173000FFF774FAE814CDE90004694628460294DC
:10174000FFF76CFA1C4D1B488027C5E90004C5E96A
:1017500002472C616C61AC612846EC61FFF7E2F94D
:1017600018B1CB2115A000F057FC75636E621148CB
:10177000194D143801C5102091C5174845F8104976
:101780006C61AC61EC61FFF7CDF918B1DB210BA006
:1017900000F042FC35636E62B7E70000003801409C
:1017A0000010024000080140004400400048004092
:1017B000000C014030000240E80200202E2E2F5382
:1017C00072632F73746D3332663178785F68616C41
:1017D0005F6D73702E6300002C030020F8B5044683
:1017E00090F83A0020283CD1C1B3BAB394F838003D
:1017F000012836D0012084F83800A162A285002596
:10180000E563222084F83A00636B17489862636BA3
:101810001648D862636B16481863606B13464563BD
:101820000846666B216802463046091DFFF7ACF991
:10183000206801684168009184F83850C16841F41B
:101840008071C1602068416941F0010141612068F7
:10185000416941F0400141610020F8BDFFE70120EE
:10186000FBE70220F9E70000F71B0008331C000823
:10187000AD1B000890F83A30202B22D1F9B1F2B11B
:1018800090F83830012B1CD081628285C2850021FE
:10189000C163222280F83A2080F838100168CA68B3
:1018A00042F48072CA6001684A6942F001024A61EA
:1018B0000068C16841F02001C1600020704701202C
:1018C000704702207047000000680649884208D12E
:1018D00005490120182248700449A1F5E070FFF77E
:1018E000C9BF704700380140000000207C02002082
:1018F00070472DE9F843044690F839001F46164614
:101900000D46202850D1A5B19EB194F83800012889
:101910004AD0012084F838004FF00008C4F83C8019
:10192000212084F83900FFF75DFAA6848146E68419
:1019300026E00120BDE8F883E08C401EE084A0682A
:101940004B46B0F5805F4FF000024FF0800120461B
:10195000009703D000F0D9FAE8B90DE000F0D5FA0D
:10196000C8B928882168C0F308004860206908B118
:101970006D1C05E0AD1C03E0216815F8010B486003
:10198000E08C0028D8D14B46002240212046009709
:1019900000F0BBFA08B10320CCE7202084F839001E
:1019A00084F838800020C5E70220C3E770B50446FC
:1019B00090F83900202830D169B362B394F8380028
:1019C00001282AD0012084F838002162A284E28410
:1019D0000025E563212084F83900236B10489862C4
:1019E000236B1048D862236B0F481863206B134693
:1019F00045632668206B321DFFF7C6F821686FF03B
:101A00004000086084F838502068416941F0800146
:101A10004161002070BD012070BD022070BD00003A
:101A20003D1C00086B1C0008AD1B00087047704788
:101A3000FEE7FEE72DE9F0410F4605462C24FEF7B0
:101A400003FC0146284600F063FF294613A000F07E
:101A5000E5FA154D00261CE02878012808D12E70E3
:101A6000124913A000F0DAFA80211048FEF7CFFBEC
:101A700013A10E48FEF7D6FB00B12C2439460B48C3
:101A8000FEF7D0FB10B10020BDE8F0810A20FFF77F
:101A9000B3F8641EE4B2DFD20120F5E753656E743B
:101AA0003A25730D0A00000000000020FC01002010
:101AB00052656365697665643A25730D0A00000016
:101AC0004552524F5200000070470907090E002886
:101AD00006DA00F00F0000F1E02080F8141D7047D6
:101AE00000F1E02080F80014704710B5FFF780F98E
:101AF000BDE8104001F08CBA10B590B00220009003
:101B00000120049010200024059007946846FFF7F8
:101B100035FB00B1FEE70F20CDE90A040C940D94CB
:101B200000210AA80E94FFF723FA00B1FEE7FFF7A1
:101B3000C9FA4FF47A71B0FBF1F0FFF7ADFC042065
:101B4000FFF79EFC00220F21501EFFF7DFF910B0B7
:101B500010BD00000D48016841F0010101604168BD
:101B60000B4A1140416001680A4A11400160016856
:101B700021F480210160416821F4FE0141604FF4AD
:101B80001F0181600449C0030860704700100240D3
:101B90000000FFF8FFFFF6FE08ED00E010B5406A18
:101BA0000021C185C184FFF7B7FC10BD70B5446A40
:101BB0002068406994F83910C0F3C010002521292D
:101BC00004D118B1E584204600F062F8206840692D
:101BD00094F83A10C0F38010222904D118B1E58599
:101BE000204600F047F8E06B40F01000E06320462C
:101BF000FFF792FC70BD10B50146406A096809689C
:101C0000890613D40021C1850168CA6822F4807254
:101C1000CA6001684A6922F001024A6101684A69A2
:101C200022F040024A61202180F83A10FFF74CFE72
:101C300010BD10B5406AFFF75BFE10BD10B5014640
:101C4000406A0968096889060CD40021C1840168CA
:101C50004A6922F080024A610068C16841F040018F
:101C6000C16010BDFFF7E2FE10BD10B5406AFFF77E
:101C7000DEFE10BD0168CA6822F49072CA60016875
:101C80004A6922F001024A61202180F83A10704727
:101C90000168CA6822F0C002CA60202180F83910A9
:101CA000704710B590F83A10222901D0022010BDDB
:101CB0008168B1F5805F11D00169002901681FD0EA
:101CC000496801F07F03816A4A1C82620B70C18DF2
:101CD000491E0904090CC18518D02BE00269816AEC
:101CE000002A0268526805D0D2B20A80816A491C73
:101CF0008162ECE7C2F308020A80816A891CF7E777
:101D00004A68816A4B1C83620A70E0E70168CA680E
:101D100022F02002CA600168CA6822F48072CA6098
:101D200001684A6922F001024A61202180F83A10D4
:101D3000FFF7CAFD002010BD2DE9F0410446006800
:101D40000169E26821F44051114301612169A068F1
:101D50000843616908432168CA6841F20C639A43E9
:101D60000243CA6020684169A26921F440711143AD
:101D700041614C4920686425322688423CD1FFF7F6
:101D8000B7F900EBC00101EB001061688900B0FBFE
:101D9000F1F7FFF7ADF900EBC00101EB001061684E
:101DA000B0468900B0FBF1F0B0FBF5F06FF0180120
:101DB000484307EB800106EB0110B0FBF5F000F0A3
:101DC000F006FFF795F900EBC00101EB0010616828
:101DD0008900B0FBF1F0B0FBF5F006EB0016FFF761
:101DE00087F900EBC00101EB001061688900B0FBCE
:101DF000F1F7FFF77DF93BE0FFF76AF900EBC0016F
:101E000001EB001061688900B0FBF1F7FFF760F9A2
:101E100000EBC00101EB00106168B0468900B0FB27
:101E2000F1F0B0FBF5F06FF01801484307EB8001CB
:101E300006EB0110B0FBF5F000F0F006FFF748F9F3
:101E400000EBC00101EB001061688900B0FBF1F00C
:101E5000B0FBF5F006EB0016FFF73AF900EBC00116
:101E600001EB001061688900B0FBF1F7FFF730F972
:101E700000EBC00101EB001061688900B0FBF1F0DC
:101E8000B0FBF5F06FF01801484307EB800108EB59
:101E90000110B0FBF5F0216800F00F0030448860BD
:101EA000BDE8F0810038014090F83910212901D0B7
:101EB000022070478168B1F5805F016A0BD04A1C2F
:101EC0000262026809785160C18C491E0904090C3C
:101ED000C1840ED017E009880268C1F3080151607F
:101EE00001690029016A02D0491C0162ECE7891CE2
:101EF000FBE70168CA6822F08002CA600068C16816
:101F000041F04001C160002070472DE9F041984642
:101F100017460E460446069D1DE0681C1BD02DB1D9
:101F2000FEF760FFA0EB0800A84214D92068C16842
:101F300021F4D071C1602068416921F00101416143
:101F4000202084F8390084F83A00002084F8380012
:101F50000320BDE8F0812068006836EA000004D064
:101F60000020B842D9D00020F3E70120F9E70000B3
:101F70000148FFF7D3BA0000BC000020064810B5A6
:101F800000680068C00602D5034800F009F8BDE803
:101F900010400148FFF7C2BA3C010020FEE70000F4
:101FA000F8B5016804460868C043C00627D4144841
:101FB000814224D108684868009008684868114840
:101FC0000068406886B22046FFF77AFA0E4D2878FE
:101FD00050B9C6F1800082B20C480D4902800D480C
:101FE000FEF7FCF80120287080210948FEF70FF960
:101FF0002046BDE8F84080220549FFF7EFBBF8BD59
:1020000000480040E80200200000002044000020BA
:102010007C010020FC010020FEE700000FB4054B0E
:1020200010B503A9044A029800F0DAF810BC5DF874
:1020300014FB000045290008B800002002E008C891
:10204000121F08C1002AFAD170477047002001E032
:1020500001C1121F002AFBD1704700002DE9FF5F6C
:1020600082B00021DDE90430020DDDF840B0034309
:1020700018D044F61050A2F2FF32424315141198C2
:1020800001281FD0A5EB0B00401C5FEA000A4FF0AF
:1020900000064E4FDFF83891B046504615D5CAF1CC
:1020A000000413E0119801244AA3012801D16FEA2A
:1020B0000B010298119AC0E90031C0E9024206B052
:1020C000BDE8F09FCBF10000DFE704460021404A65
:1020D000491842EB0450CDE9001012E0E00707D0A8
:1020E00032463B4640464946FEF7B5F880468946AB
:1020F00032463B4610461946FEF7ADF806460F46F7
:102100006410002CEAD1DDE90401DDE90023BAF115
:10211000000F06DAFEF79FF842464B46FEF79BF8A3
:1021200005E0FEF7F8FA42464B46FEF7F4FA04469D
:102130000E460022284BFEF775FB03D84FF0FF3008
:10214000014607E00022254B20463146FEF73CFAC7
:10215000FEF750FB102409E0002C0ADB0A220023C2
:10216000FEF76DF9039B30321A55641E50EA0102E6
:10217000F2D1641C039AC4F111031444119A012A88
:1021800003D0012208430DD10AE0084304D0002007
:102190004FF0110B119072E7A3EB0B056D1E0DE0D4
:1021A0005B4504DD4FF0000205F1010504E003DAB0
:1021B0004FF00002A5F10105002AECD00298119918
:1021C000C0E90231C0E9004579E700000000144091
:1021D0000000F03F300000000000F0430000E03F4E
:1021E0002DE9FF4F95B09B468946064600250FE234
:1021F000252877D100242746F84A0121059400E0DC
:10220000044316F8013F203B01FA03F01042F7D1D6
:1022100030782A2811D06FF02F033078A0F13002E7
:10222000092A16D8059A44F0020402EB820203EB55
:1022300042021044761C0590EFE759F8042B0592F2
:10224000002A03DA504244F40054059044F002049A
:10225000761C30782E2816D116F8010F44F00404AD
:102260002A280DD06FF02F023078A0F13003092B0F
:1022700009D807EB870302EB4303C718761CF3E783
:1022800059F8047B761C30786C280FD006DC4C287B
:1022900017D068280DD06A2814D104E0742810D013
:1022A0007A280FD10DE044F400140AE044F48014BD
:1022B00001E044F440147278824202D104F58014A3
:1022C000761C761C307866280BD013DC582877D023
:1022D00009DC002875D04528F6D04628F4D04728D8
:1022E0001AD19DE118E0632835D0642879D065289B
:1022F00012D195E1702873D008DC6728F1D06928E5
:102300006FD06E280DD06F2806D1B5E073282CD081
:10231000752875D0782874D05A46179990476D1C47
:1023200075E1C4F30250022809D003280DD0D9F872
:10233000001004280DD00D6009F1040967E1D9F8F7
:102340000010EA17C1E90052F6E7D9F800100D8035
:10235000F2E70D70F0E719F8041B8DF8001000206B
:102360008DF80100EA46012003E059F804AB4FF074
:10237000FF3061074FF0000102D40DE008F10101C8
:102380008846B9420FDA8045F8DB1AF808100029B0
:10239000F4D108E008F1010188468142FADB1AF81D
:1023A00008100029F6D105985B46A0EB08072146E6
:1023B0003846179A00F094FA284400EB080507E025
:1023C0004DE029E10DE01AF8010B5A4617999047A4
:1023D000B8F10108F7D25B4621463846179A13E157
:1023E00042E00A220092C4F302524FF0000A022A8D
:1023F00008D059F804CB032A4FEAEC710AD00DE05B
:1024000029E02AE009F1070121F00702F2E802C100
:10241000914609E00FFA8CFC4FEAEC71042A03D1D3
:102420004FFA8CFC4FEAEC71002907DA0A460021CA
:10243000DCF1000C61EB02012D2202E0220504D543
:102440002B228DF80420012203E0E20701D0202294
:10245000F7E7904659E00A2102E010220DE0102132
:102460004FF0000A00910BE010224FF0000A44F0F8
:1024700004040827009203E008224FF0000A0092AB
:10248000C4F30252022A05D059F804CB0021032AD2
:1024900008D009E009F1070121F00702F2E802C1C2
:1024A000914605E01FFA8CFC042A01D10CF0FF0CC8
:1024B0004FF00008220728D5702806D0009B83F033
:1024C000100353EA0A0305D00EE040228DF80420E1
:1024D000012208E05CEA010206D030228DF80420D7
:1024E0008DF8050002229046009B83F0080353EA12
:1024F0000A030AD15CEA010201D1620705D5302244
:102500008DF804204FF001087F1E582804D034A015
:1025100003900EA802900DE036A0F9E753466046FE
:10252000009AFDF78CFF84460398825C0298401E57
:10253000029002705CEA0100F0D1029806A9081A24
:1025400000F1200A600702D524F4803400E001275E
:10255000574502DDA7EB0A0000E0002000EB0A016E
:10256000009005984144401A0590E00306D45B466C
:102570002146179A059800F0B3F90544002706E0B4
:1025800001A85A46C05D179990476D1C7F1C4745AE
:10259000F6DBE0030CD55B462146179A059800F060
:1025A0009FF9054404E030205A46179990476D1C66
:1025B0000099481E00900029F5DC08E00298029975
:1025C0005A460078491C0291179990476D1CBAF140
:1025D0000001AAF1010AF1DC65E10000092801000F
:1025E0003031323334353637383961626364656689
:1025F000000000003031323334353637383941424B
:10260000434445460000000000F058F90544761C9C
:10261000307800287FF4ECAD19B02846BDE8F08F83
:10262000620700D4062709F1070222F0070CFCE834
:102630000223E14603F000485FEA080C02D00FF2E3
:10264000702C0DE05FEA045C02D50FF2682C07E005
:102650005FEAC47C02D00FF2602C01E0AFF2700C94
:102660004FF0FF3823F00043CDF850C065280CD060
:1026700006DC452809D046281DD047283DD13DE03D
:10268000662818D067287ED138E00021112F01DBA1
:10269000112000E0781CCDE9000106A90EA8FFF783
:1026A000DDFCDDE90F010E9A03910021009207F194
:1026B000010A04914DE04FF000400097CDE9011070
:1026C00006A90EA8FFF7CAFCDDE90F0203920E9BD4
:1026D00011990022DDF80CA00093049211B9791C25
:1026E00000EB010AB7EB0A0004D4C0F1FF3007F198
:1026F000010A0490AAEB0700019044E0012F00DAE0
:1027000001270021112F01DD112000E03846CDE91D
:10271000000106A90EA8FFF7A1FCDDE90F010E9A42
:102720000391002104910092BA4621070CD4039929
:10273000514500DA8A46BAF1010F05DD009AAAF187
:102740000101515C302908D0B84202DA10F1040FBF
:1027500006DA0121CDE9011015E0AAF10101E9E74E
:10276000002805DC049901440491AAEB000102E071
:10277000411C514500DD8A460499401A401C0190D5
:102780004FF000400290200704D40198504501DB2F
:10279000CDF8048000208DF84F0002980DF14F070E
:1027A000B0F1004F25D02B200E9002984FF0020878
:1027B00000280CDA404202902D200E9007E00A21FA
:1027C0000298FDF726FE3031029007F8011DB8F19E
:1027D0000001A8F10108F2DC02980028EFD1791E6F
:1027E0000E980870307800F0200040F0450007F89F
:1027F000020D12A8C01B00F107081498007800B160
:10280000012000EB0A01019801EBE07105984144B9
:10281000401A401E0590E00306D45B462146179AF5
:10282000059800F05DF805441498007818B15A46F0
:10283000179990476D1CE00324D55B462146179AF3
:10284000059800F04DF805441CE00498002807DBCB
:10285000DDE90301884203DD0098405C179901E03F
:10286000179930205A469047049805F10105401CFD
:1028700004900198401E019004D12E205A461799C9
:1028800090476D1CBAF10001AAF1010ADDDC05E0F8
:1028900017F8010B5A46179990476D1CB8F10001C3
:1028A000A8F10108F4DC5B462146179A0598ABE6CF
:1028B0002D0000002B000000200000002DE9F04159
:1028C000044600251E461746880404D405E0394610
:1028D0002020B0476D1C641EF9D52846BDE8F08164
:1028E0002DE9F041044600251E469046C80301D557
:1028F000302700E02027880404D505E0414638460B
:10290000B0476D1C641EF9D52846BDE8F081000073
:1029100070B50C4605460948FEF756F80228FAD06D
:1029200006480168086820F001000860A2B2294644
:10293000BDE870400248FFF739B800002C030020C2
:102940003C01002013B54FF6FF730122694602488F
:10295000FEF7CFFF00981CBDFC000020EFF30580C0
:10296000002800D00120704796B0FEF749FAFFF723
:10297000C3F8E24CA06940F00400A061A06900F037
:1029800004000490A06940F00800A061A069DC4D3B
:1029900000F008000490012220212846FEF71CFACE
:1029A0002020009001200026CDE90106022003909E
:1029B00069462846FEF732F9606940F0010060611F
:1029C0006069002200F00100009005210C20FEF754
:1029D0009DFA0C20FEF78EFA002205210D20FEF74D
:1029E00095FA0D20FEF786FAC748C6494FF4E1373D
:1029F0000160C0E901760C25C660C0E90465866106
:102A0000C661FEF713FE00B1FEE7BF4CBF4840347D
:102A10002060C4E90176E660C4E90465A661204649
:102A2000E661FEF703FE00B1FEE7B748B84940385B
:102A300001604FF49651C0E90116C660C0E9046513
:102A40008661C661FEF7F2FD00B1FEE700220621B5
:102A50002520FEF75BFA2520FEF74CFA002207211D
:102A60002720FEF753FA2720FEF744FAA9A0FFF724
:102A7000D5FAB0A0FFF7D2FAB5A2B8A1BAA0FFF775
:102A8000CDFAA14980228031A1F14000FEF7A6FED7
:102A900000B1FEE72068C16841F01001C160B8498B
:102AA0001822A1F5E070FEF7E5FE012115A81596A4
:102AB00000F03EFAB34D1422B349A86106A8FDF711
:102AC0008DFB002106A800F0ADFAAF49E8601422A2
:102AD00014310BA8FDF782FB00210BA800F0A2FA2D
:102AE000A94928611422283110A8FDF777FB00219D
:102AF00010A800F097FA686100F015FAA04F4FF0A7
:102B000072084037A878012827D1AE7001229FA112
:102B10009FA0FEF78FFF01229CA1A2A0FEF78AFFD3
:102B200040F6B8342046FEF767F8012297A1A6A028
:102B3000FEF780FF2046FEF75FF8012293A1ADA0CB
:102B4000FEF778FF2046FEF757F801228FA1ADA0CF
:102B5000FEF770FF2046FEF74FF801228BA1ABA0D5
:102B6000FEF768FF8649A86B603100F08BFF844850
:102B70000B216030FFF7CCFE6420FEF73DF8012208
:102B800082A1A2A0FEF756FF7D49286C603100F0BB
:102B900079FFA2A00B2100883884794887F8228029
:102BA0006030FFF7B5FE0A20FEF726F868780128A6
:102BB000A8D1734C6E70E078627921798DE80700B6
:102BC000A3786278217896A0FFF728FA607AE27AF3
:102BD000A17A8DE80700237AE279A17990A0FFF726
:102BE0001DFAE07B627C217C8DE80700A37B627B81
:102BF000217B8BA0FFF712FA607DE27DA17D8DE83D
:102C00000700237DE27CA17C85A0FFF707FAA0786E
:102C1000E178000400EB012021790144E961607949
:102C2000A279000400EB0220E27902442A62207AB1
:102C3000637A000400EB0320A37A18446862E07A08
:102C4000237B000400EB0320637B1844A862A07B75
:102C5000E37B000400EB0320237C1844E862607CE3
:102C6000A37C000400EB0320E37C1844286374A0D9
:102C7000FFF7D4F9D5E90701B0FBF1F0FDF774FBDC
:102C80007C4A7D4BFDF7E7FAFDF7A7FB6863FDF78C
:102C900091FB02460B4679A0FFF7C0F9686BFDF780
:102CA00070FB10380146A86378A0FFF7B7F9D5E9A3
:102CB00009127BA0FFF7B2F9D5E90901B0FBF1F0E9
:102CC000FDF752FB4FF0FF32FDF737FBFDF785FBB9
:102CD000E863FDF76FFB02460B467EA0FFF79EF907
:102CE000E86BFDF74EFB014628647EA0FFF796F9DE
:102CF000302104F13000FDF78AFA03E700100240AA
:102D0000000C014000440040FC000020004800404E
:102D1000003801407369636875616E20756E69766D
:102D20006572736974792077736E206C61620D0A25
:102D30000000000070726F6A65637420706F7765C1
:102D400072706C75672076312E300D0A000000001D
:102D500032313A30303A3031000000004F63742095
:102D60003135203230313800636F6D70696C652009
:102D7000646174653A2025732025730D0A000000F4
:102D80007C020020000000200C4400084F4B000093
:102D900041542B43574D4F44455F4445463D310D0B
:102DA0000A00000041542B43574A41505F444546B6
:102DB0003D2277736E343035222C2277736E343097
:102DC00035343035220D0A0041542B4349505354B9
:102DD0004152543D22544350222C223133322E3260
:102DE00033322E38392E313435222C393939390DD8
:102DF0000A00000041542B43495053454E443D378F
:102E00000D0A000061626364650D0A0041542B43A2
:102E1000495053454E443D31310D0A0063757200EF
:102E2000506F776572506C75673A25782025782049
:102E30002578202578202578202578200D0A000087
:102E4000766F6C746167655F706172616D657465E2
:102E5000725F76616C75653D25642C766F6C74616C
:102E600067655F7265675F76616C75653D25640DAA
:102E70000A00000014AE47E17A14FE3F766F6C74CE
:102E80006167653D25660D0A00000000766F6C7471
:102E90006167655F696E743D25640D0A000000007E
:102EA00063757272656E745F706172616D65746571
:102EB000725F76616C75653D25642C637572726511
:102EC0006E745F7265675F76616C75653D25640D34
:102ED0000A00000063757272656E743D25660D0A06
:102EE0000000000063757272656E745F696E743DF8
:102EF00025640D0A0000000001460020842900D04E
:102F0000C81C704710B50446FDF79EF901462046DF
:102F1000BDE81040FFF7FCBC10B500B9012000F07F
:102F2000AFFC002010BD10B500F042FD002010BD28
:102F300010B5012901D0002010BD0322002101207D
:102F400000F03EFE040004D000231A46194600F0AB
:102F500055FF204610BD000038B5002405460094FA
:102F6000FFF7FCFC90B16946284600F0F7FF012806
:102F700001D0FF2038BD009888B10A494FF0805039
:102F80000860BFF34F8FBFF36F8F08E000231A462E
:102F90001946284600F032FF012800D0FF242046C1
:102FA00038BD000004ED00E038B505004FF000002A
:102FB00000900FD00024481C0ED001B10C46FFF742
:102FC000CDFCB8B16A460021284601F015F8012869
:102FD00018D104E0802038BD4FF0FF34EFE70098AF
:102FE00090B10A494FF080500860BFF34F8FBFF394
:102FF0006F8F09E0002322461946284600F004FEA0
:10300000012801D0FF2038BD002038BD04ED00E0CC
:1030100010B501F0A1F8012803D0BDE8104000F080
:10302000B9BD10BD3EB504460D46B0F90800FFF726
:1030300063FF02A9CDE90001208A2B4682B2D4E9C0
:10304000001001F05DF8012801D000203EBD02987B
:103050003EBD00002DE9F041184C0F460546E668DC
:103060002068001D00F02CFB38B9206890F82C1067
:1030700001208840216981432161681C07D137B153
:103080002168BDE8F0410E48091D00F051BB2068E1
:103090003544B5424560216805D2A06BBDE8F041DA
:1030A000091D00F02DBB606B091D00F029FBA06A13
:1030B000854200D2A562BDE8F08100007C000020BE
:1030C0004C1000202DE9F041054600F03DFB2E4C50
:1030D000A068401CA06020682C4F10B1606940B30C
:1030E0002DE02560A068012829D1002606EB860086
:1030F00007EB800000F0F6FA761C072EF6D3234883
:103100008C3000F0EFFA2148A03000F0EBFA1F48B5
:10311000B43000F0E7FA1D48C83000F0E3FA1B486D
:10312000DC3000F0DFFA19488C3060631430A063A3
:1031300005E02068E96AC06A884200D82560606AB4
:10314000401C6062E96A01202269884010432061C6
:1031500001EB810007EB8000291D00F0E9FA00F087
:1031600013FB606900280CD02068E96AC06A8842B5
:1031700007D207494FF080500860BFF34F8FBFF36D
:103180006F8FBDE8F08100007C000020700F0020F0
:1031900004ED00E070B5114E114C17E000F03CFC5E
:1031A0003068B8B101F0D0F800F0CEFAF068C56828
:1031B000281D00F085FAA068401EA0606068401ECF
:1031C000606000F0E1FA284600F055F860680028D9
:1031D000E4D170BD01F0B8F8F8E700003810002025
:1031E0007C00002030B4026C0B46002A0BD0C16872
:1031F0001144C1604468A14201D30168C16030BC80
:103200001846FCF7EBBF30BC70472DE9F041856BE9
:10321000174604460026026C82B1C7B1E068FCF78D
:10322000DDFFE168206C091AE1602268914202D258
:103230006168081AE060022F16D017E02068A8B96C
:10324000606800F0FBFF0646002060600EE0A068AA
:10325000FCF7C4FF216CA0680844A0606168884244
:1032600004D32068A06001E005B16D1E6D1CA5634C
:103270003046BDE8F08110B50446006B00F098FAC6
:103280002046BDE8104000F093BA000010484FF40B
:103290004061420706D0C01D0D4920F00700411AC9
:1032A000C1F540610B4A00230144C2E9000308391B
:1032B000103A21F0070111604B600B600B1AC0E956
:1032C000001393604FF000405360D06070470000DF
:1032D0007003002068000020074C4FF08056074D17
:1032E000FFF758FF20680128FAD92E60BFF34F8FEF
:1032F000BFF36F8FF4E70000700F002004ED00E0D3
:103300002DE9F0479A46DDE9098481466FF0030311
:10331000206B03EB82021044089D20F00706700723
:1033200007D0502080F31188BFF34F8FBFF36F8F0A
:10333000FEE723180A5C83F834200A5C12B1401CB3
:103340001028F6D3002784F84370072D00D30625F4
:10335000E562C4E91157201D00F0CFF904F118000F
:1033600000F0CBF92461C5F107006462A061E76455
:1033700084F8507052464946304600F00FF92060FC
:10338000B8F1000F01D0C8F80040BDE8F087000098
:1033900030B5114900E011460A688242FBD34B6800
:1033A0005C18844203D1406818444860084643686A
:1033B0001C18944209D1084C103C2468A24209D040
:1033C00052681A4442600A6812680260814200D062
:1033D000086030BD0460F9E76800002010B50446BD
:1033E00000F0B2F9A06B28B15FF0000400F0CCF956
:1033F000204610BD0124F9E70648416B096829B150
:10340000416BC968C9684968816270474FF0FF31F4
:10341000FAE700007C00002008484068401C4FF09C
:10342000500080F3118804D0BFF34F8FBFF36F8F2C
:10343000FEE7BFF34F8FBFF36F8FFEE770000020F2
:103440002DE9F041044600F07FF994F9455004F16C
:10345000240609E0606A48B1304600F03BFF08B13D
:1034600000F034FA6D1E6DB2002DF3DC4FF0FF3624
:1034700084F8456000F088F900F066F994F944504A
:1034800004F1100709E0206948B1384600F022FF36
:1034900008B100F01BFA6D1E6DB2002DF3DC84F84C
:1034A0004460BDE8F04100F06FB900002DE9F04143
:1034B0000546002700F0B0FA314E306808B9FFF732
:1034C000E5FEF06805424BD1C5B3083568070ED05C
:1034D00005F00700C0F108000544680707D0502038
:1034E00080F31188BFF34F8FBFF36F8FFEE72DB3CB
:1034F0007068854234D82248103001460C6801E0DB
:1035000020460C466168A94202D221680029F7D101
:1035100031688C4224D007682168016060680837F0
:10352000411B10290FD96019420708D0502080F3A1
:103530001188BFF34F8FBFF36F8FFEE710E041603C
:103540006560FFF725FF61687068401A7060B268B7
:10355000904200D2B060F06801430020C4E900014D
:1035600000F0F2FE780707D0502080F31188BFF3F7
:103570004F8FBFF36F8FFEE73846BDE8F081000044
:10358000580000200449086818B10868826C521C71
:1035900082640868704700007C00002010B5031F9B
:1035A0004FF080741C601B1F21F001011960191F6E
:1035B000024B0B60143940380A6010BD1934000802
:1035C00042F210742046FFF7A7FC02A0FEF726FD8A
:1035D000F8E70000706F776572207461736B0D0AF5
:1035E000000000000C4CA069FFF7B6FC4FF0FF355F
:1035F0000120FFF791FC2946A069FFF7D5FCA068E0
:1036000010B906A0FFF77EFCA0680128F0D108A041
:10361000FFF778FCECE700000000002041542B434A
:10362000574D4F44455F4445463D310D0A0000006B
:1036300041542B43574A41505F4445463D227773DE
:103640006E343035222C2277736E34303534303579
:10365000220D0A000025144C4FF4FA6701260120C0
:10366000FFF75AFC20780128F9D12570A06850B1E5
:103670000128F4D10D490EA0FEF7D0FC80210B48A3
:10368000FCF7C5FDEBE7094909A0A660FEF7C6FCFB
:1036900080210648FCF7BBFD3846FFF73DFCA069DA
:1036A000FFF75AFCDBE7000000000020FC010020CF
:1036B00052656365697665643A25730D0A000000FA
:1036C000D0E9013201699A60D0E901235A604A6861
:1036D000824201D182684A60002202610868401E6D
:1036E0000860704700F108014FF0FF32C0E9011295
:1036F000C1600161002101607047002101617047D4
:1037000030B50B685A1C02D000F1080202E00269D1
:1037100004E02246546825689D42FAD953684B60FC
:1037200099608A60516008610168491C016030BD80
:1037300042684A6093688B60936859609160086141
:103740000168491C01607047502080F31188BFF365
:103750004F8FBFF36F8F0A494868401C48600128AB
:103760000CD10848006810F0FF0F07D0502080F3FC
:103770001188BFF34F8FBFF36F8FFEE770470000D4
:103780007000002004ED00E00849486828B1401EA0
:10379000486001D180F311887047502080F3118870
:1037A000BFF34F8FBFF36F8FFEE700007000002064
:1037B00070B5002827D0144DA0F108046168E868AE
:1037C000014207D1502080F31188BFF34F8FBFF320
:1037D0006F8FFEE722683AB1502080F31188BFF363
:1037E0004F8FBFF36F8FFEE78143616000F014F9E4
:1037F00060686968084468602046FFF7C9FDBDE855
:10380000704000F0A1BD70BD5800002006484FF484
:103810007A710068B0FBF1F14FF0E020491E416180
:1038200007210161704700005400002010B5FCF72B
:10383000AFFC114910280ED300F1E02090F8F003FE
:103840000A78904207D2502080F31188BFF34F8F3F
:10385000BFF36F8FFEE709480068896800F4E060F5
:10386000884207D9502080F31188BFF34F8FBFF3F0
:103870006F8FFEE710BD0000700000200CED00E02F
:1038800010B5020014D00F48006B38B1502080F3FF
:103890001188BFF34F8FBFF36F8FFEE700F0BCF8C6
:1038A00000211046FFF7D6FB00F04EFD002807D19F
:1038B00005494FF080500860BFF34F8FBFF36F8F03
:1038C00010BD00007C00002004ED00E00149012053
:1038D000C86170477C00002010B50C4650B1094902
:1038E00009681831FFF70CFF2046BDE810400121A0
:1038F000FFF7B0BB502080F31188BFF34F8FBFF3A9
:103900006F8FFEE77C00002070B5040039D01D4D9C
:10391000E06A2968C96A884233D2A069002804DBBA
:103920002868C06AC0F10700A061E16A164E01EB89
:103930008101606906EB810188421FD1201DFFF7DC
:10394000BFFE012150B9E06A00EB800256F8222048
:1039500022B92A6901FA00F082432A612868C06A04
:10396000E0622A6981401143296100EB800006EB87
:103970008000211DBDE87040FFF7DABE2868C06AEC
:10398000E06270BD7C000020700F002028B1074964
:103990000A6A0260C96841607047502080F311884C
:1039A000BFF34F8FBFF36F8FFEE700007C00002056
:1039B0001CB515480024CDE900402346802213A100
:1039C000144800F09DFB012809D0401C1AD150205A
:1039D00080F31188BFF34F8FBFF36F8FFEE7502046
:1039E00080F31188BFF34F8FBFF36F8F06484FF0FE
:1039F000FF312C38816201214161C460BDE81C4067
:103A000000F08EB81CBD0000A800002049444C45C1
:103A100000000000D93200080248016B491C016314
:103A2000704700007C0000201448016B11B1012197
:103A3000C16170470021C1610169B1FA81F1C1F131
:103A40001F0101EB81020E4951F822306BB101EBED
:103A5000820101F108034A6852684A609A4201D122
:103A600052684A60D16801607047502080F3118825
:103A7000BFF34F8FBFF36F8FFEE700007C00002085
:103A8000700F002042F2107290FBF2F370B5002B21
:103A900043D190FBF2F3214A53BB4FF47A7390FB6E
:103AA000F3F43034D47090FBF3F403FB1403642478
:103AB00093FBF4F693FBF4F3302516B13033137116
:103AC00001E003B9157190FBF4F304FB13040A231E
:103AD00094FBF3F694FBF3F416B13034547101E027
:103AE00004B9557190FBF3F403FB1400303090716E
:103AF000762008706F2048706C2088703A20C8705B
:103B0000D078087110794871507988719079C871AE
:103B10002020087248720020887270BD00000020CA
:103B20001CB5194908780190FF20087008788DF8B5
:103B300000009DF80000154A00F0500010700720AA
:103B4000906005E09DF800305B008DF80030401E6D
:103B50009DF800301B06F5D4000200F4E060906090
:103B6000019808700A48016841F470010160016819
:103B700041F070410160FFF749FE00205060FCF702
:103B8000D1FA00201CBD000000E400E0700000201D
:103B900020ED00E010B5502080F31188BFF34F8F67
:103BA000BFF36F8F00F0E6FA18B104494FF0805070
:103BB0000860002080F3118810BD000004ED00E0D3
:103BC00070B50E46050013D0D6B105FB06F048309F
:103BD000FFF76CFC040009D004F1480120468EB1C7
:103BE0000160C0E90F56012100F0C4F8204670BD05
:103BF000502080F31188BFF34F8FBFF36F8FFEE724
:103C00000020E4E70060ECE72DE9FF4F002683B0D9
:103C10009B468A46040003D0BAF1000F08D011E099
:103C2000502080F31188BFF34F8FBFF36F8FFEE7F3
:103C3000206C38B1502080F31188BFF34F8FBFF351
:103C40006F8FFEE700F088FADFF824814FF000095B
:103C50004FF0805748B9059838B1502080F311884B
:103C6000BFF34F8FBFF36F8FFEE7FFF76DFDA56BBF
:103C700045B351462046E668FFF7B4FABBF1000FA2
:103C800013D0E660606A50B104F1240000F022FB1A
:103C900028B1C8F80070BFF34F8FBFF36F8FFFF7E5
:103CA00073FD012007B0BDE8F08F6D1EA56320688D
:103CB00010B9FFF767FC606020690028EFD004F1BD
:103CC0001000E3E7059808B11EB106E0FFF75CFDC0
:103CD00027E06846FFF75AFE0126FFF755FDFFF77C
:103CE0009BFEFFF731FD94F94400401C01D184F89C
:103CF000449094F94500401C01D184F84590FFF7A9
:103D000043FD05A9684600F0C5F9002820460AD001
:103D1000FFF796FB00F018FB2046FFF75FFB00283B
:103D2000A3D00020BEE7FFF759FBD8B1206830B917
:103D3000FFF70AFD6068FFF7E7FDFFF725FD04F1D7
:103D400024000599FFF7C8FD2046FFF779FB00F036
:103D5000FBFA002889D1C8F80070BFF34F8FBFF37A
:103D60006F8F82E72046FFF76BFB00F0EDFA7CE7F0
:103D700004ED00E070B50D46040025D0FFF7E4FC2B
:103D8000D4E90F20216802FB001161600021A163CA
:103D90002168A1600A46D4E90F01401E00FB012101
:103DA000E16021464FF0FF3001F8440F487004F104
:103DB00010008DB1FFF796FC04F12400FFF792FC90
:103DC000FFF7E2FC012070BD502080F31188BFF3A3
:103DD0004F8FBFF36F8FFEE721690029F0D000F00D
:103DE00079FA0028ECD004494FF080500860BFF306
:103DF0004F8FBFF36F8FE3E704ED00E02DE9FF473E
:103E000082B01D468A464FF00008040003D0BAF184
:103E1000000F08D011E0502080F31188BFF34F8FBE
:103E2000BFF36F8FFEE7206C38B1502080F311880C
:103E3000BFF34F8FBFF36F8FFEE7022D0AD1E06B08
:103E4000012807D0502080F31188BFF34F8FBFF3B4
:103E50006F8FFEE700F080F93F4F4FF000094FF001
:103E6000805648B9049838B1502080F31188BFF3C8
:103E70004F8FBFF36F8FFEE7FFF766FCA06BE16B20
:103E8000884207D3022D05D00498D0B1B8F1000FB5
:103E90001AD01EE02A4651462046FFF7B6F9616A5D
:103EA00019B104F1240000F015FA20B13E60BFF30F
:103EB0004F8FBFF36F8FFFF767FC012006B0BDE89F
:103EC000F087FFF761FC22E06846FFF75FFD4FF0E7
:103ED0000108FFF759FCFFF79FFDFFF735FC94F948
:103EE0004400401C01D184F8449094F94500401CE2
:103EF00001D184F84590FFF747FC04A9684600F01B
:103F0000C9F830B12046FFF79BFA00F01DFA0020F7
:103F1000D4E7FFF719FCA06BE16B884213D1FFF7E0
:103F200033FC04F110000499FFF7D6FC2046FFF79C
:103F300087FA00F009FA00289ED13E60BFF34F8F48
:103F4000BFF36F8F98E7FFF71FFC2046FFF778FA63
:103F500000F0FAF990E7000004ED00E070B50E46BD
:103F6000040009D0206C78B1502080F31188BFF391
:103F70004F8FBFF36F8FFEE7502080F31188BFF3A0
:103F80004F8FBFF36F8FFEE7206848B9606838B184
:103F9000502080F31188BFF34F8FBFF36F8FFEE780
:103FA000FFF744FC5020EFF3118580F31188BFF335
:103FB0004F8FBFF36F8FA16BE06B884218D994F9D4
:103FC0004500491CA163411C04D0401C84F84500F5
:103FD00001200EE0606A0028FAD004F1240000F00D
:103FE00079F90028F4D0002EF2D001203060EFE7FC
:103FF000002085F3118870BD2DE9F0479046894671
:10400000040003D0B9F1000F08D011E0502080F374
:104010001188BFF34F8FBFF36F8FFEE7206C38B16D
:10402000502080F31188BFF34F8FBFF36F8FFEE7EF
:10403000FFF7FCFB5020EFF3118680F31188BFF3EC
:104040004F8FBFF36F8FA76BF7B194F94450494678
:104050002046FFF7C7F87F1EA763681C04D06D1CBD
:1040600084F84450012010E020690028FAD004F1BF
:10407000100000F02FF90028F4D0B8F1000FF1D0B3
:104080000121C8F80010EDE7002086F31188BDE893
:10409000F087000070B50D46040019D005B3FFF796
:1040A00053FB164AD1682868431C0FD02368126A54
:1040B000934202D062688A421AD96268891A8142A0
:1040C00016D2401A28602046FFF760FC002410E05A
:1040D000502080F31188BFF34F8FBFF36F8FFEE73F
:1040E000502080F31188BFF34F8FBFF36F8FFEE72F
:1040F0000124FFF749FB204670BD00007C00002032
:104100002DE9FF5F8346DDE90E87994616468A460C
:104110009000FFF7CBF905001AD05420FFF7C6F93D
:10412000040012D025630021CDE90241CDE90087CA
:104130004B46324651465846FFF7E2F82046FEF716
:10414000C1FF012004B0BDE8F09F2846FFF730FB17
:104150004FF0FF30F6E700000548416919B1006BE8
:1041600018B10020704701207047022070470000FE
:104170007C0000202DE9F0412E4C0027206B40B13F
:10418000A069401CA061E06900B101273846BDE884
:10419000F081E668761CE66013D1606B006838B188
:1041A000502080F31188BFF34F8FBFF36F8FFEE76E
:1041B000606BA16B6163A063206A401C2062FFF703
:1041C0001BF9A06ADFF87080864209D3606B006833
:1041D00080B1606BC068C568686886420DD2A06215
:1041E0002068C06A00EB800158F821000128CAD974
:1041F0000127C8E74FF0FF30F1E7281DFFF760FA0D
:10420000A86A18B105F11800FFF75AFAE86A012107
:10421000226981401143216100EB800108EB81009C
:10422000291DFFF785FAE86A2168C96A8842CDD35B
:104230000127CBE77C000020700F002070B5040040
:104240004FF0000140D0214D2868844207D0502013
:1042500080F31188BFF34F8FBFF36F8FFEE7A06C21
:1042600038B1401EA064636CE26A9A422CD040B11F
:104270002AE0502080F31188BFF34F8FBFF36F8F78
:10428000FEE7201DFFF71CFA114A012150B9E06A30
:1042900000EB800352F8233023B92B6901FA00F0B8
:1042A00083432B61606CE062C0F10700A061E06AAB
:1042B0002B6981401943296100EB800002EB8000EB
:1042C000211DFFF735FA0121084670BD7C00002052
:1042D000700F00202DE9F041C068C468ACB104F152
:1042E00018000746FFF7ECF9154D286B0126A0B121
:1042F00039461448FFF71CFAE06A2968C96A8842FF
:104300001CD90120EE61BDE8F081502080F31188B6
:10431000BFF34F8FBFF36F8FFEE7201DFFF7D0F97C
:10432000E16A2A6906FA01F01043286101EB810075
:104330000449B43901EB8000211DDBE70020E2E7EE
:104340007C000020241000202DE9F0472C4D002493
:104350002746286B38B1FFF7F7F9286B401E286312
:10436000286B40B146E0502080F31188BFF34F8F97
:10437000BFF36F8FFEE7A968224E0120D1B3A6F1EB
:10438000B40980463068E8B1F068C46804F11800E8
:10439000FFF796F9201DFFF793F9E06A2A6908FAFA
:1043A00000F11143296100EB800109EB8100211D1F
:1043B000FFF7BEF9E06A2968C96A8842E2D3C5F806
:1043C0001C80DFE70CB1FFF717F8AC6944B1464633
:1043D000FFF7D0FE00B1EE61641EF9D10020A861A4
:1043E000E86938B10849012738070860BFF34F8FE3
:1043F000BFF36F8FFFF7C8F93846BDE8F0870000BC
:104400007C0000202410002004ED00E0604400083F
:10441000E5350008000000000000000080000000FA
:10442000704400085536000801000000000000003C
:104430008000000080440008C13500080000000032
:1044400000000000800000000000000000000000EC
:10445000010203040607080900000000010203042A
:104460007379735F6D61696E5F7461736B000000D7
:10447000776966695F726563765F7461736B00006C
:10448000706F7765725F726563765F7461736B00DE
:10449000B044000800000020BC0000003C200008E0
:1044A0006C450008BC000020A41300004C2000084C
:1044B00000000100000000000000000000000000FB
:1044C00000000000000000000000000000000000EC
:1044D00000000000000000000000000000000000DC
:1044E00000000000000000000000000000000000CC
:1044F00000000000000000000100000010000000AB
:104500000000000000A24A040000000000000000BB
:10451000000000000000000000000000000000009B
:1045200000000000AAAAAAAA0000000000000000E3
:10453000000000000000000000000000000000007B
:10454000000000000000000000000000000000006B
:10455000000000000000000000000000000000005B
:0C4560000000000000000000000000004F
:04000005080000ED02
:00000001FF
