:020000040800F2
:10000000D006002001010008F11900087519000848
:1000100077190008F7070008C91E00080000000053
:10002000000000000000000000000000151A000899
:100030003B08000800000000131A0008171A000807
:100040001B0100081B0100081B0100081B01000820
:100050001B0100081B0100081B0100081B01000810
:100060001B0100081B0100081B0100081B01000800
:10007000F9070008050800081B0100081B0100081B
:100080001B0100081B0100081B0100081B010008E0
:100090001B0100081B0100081B0100081B010008D0
:1000A0001B0100081B0100081B0100081B010008C0
:1000B0001B0100081B0100081B0100081B010008B0
:1000C0001B0100081B0100081B0100081B010008A0
:1000D0001B0100089D1E00081B010008A91E000846
:1000E0001B0100081B0100081B010008DFF80CD0F1
:1000F00000F04EFB0048004789280008D006002089
:100100000648804706480047FEE7FEE7FEE7FEE7B1
:10011000FEE7FEE7FEE7FEE7FEE7FEE7811A0008DE
:10012000ED000008202A04DB203A21FA02F0002129
:10013000704721FA02F3D040C2F1200291400843F7
:100140001946704740EA01039B0703D009E008C93C
:10015000121F08C0042AFAD203E011F8013B00F88C
:10016000013B521EF9D27047D2B201E000F8012BD8
:10017000491EFBD270470022F6E710B513460A4627
:1001800004461946FFF7F0FF204610BD30B505467E
:100190002A460B4612F8010B13F8014B08B1A04296
:1001A000F8D01CB1002802D06D1CF1E7284630BD04
:1001B000421C10F8011B0029FBD1801A70472DE961
:1001C000FE4F81EA030404F0004421F00041009452
:1001D0004FF0000B23F0004350EA01045ED052EAD6
:1001E00003045BD0C3F30A54C1F30A552C44A4F2B0
:1001F000F3340194A0FB0254C1F3130141F48011C4
:10020000C3F3130343F4801301FB024400FB034ECA
:10021000840A970A44EA815447EA8357A4FB076893
:1002200002958D0A05FB07854FEA932C04FB0C54BD
:100230002705029D4FEA065847EA1637B5EB080531
:100240006EEB070C870E920E47EA811742EA831283
:10025000A7FB0201B6EB0B0164EB00042B0D43EA94
:100260000C335E1844EB1C50DA465146E7FB0201A2
:10027000C5F313044FEA0B3343EA14534FEA043235
:10028000019C43EA0603A4F10C040294009CCDE90E
:1002900000B400F0E8F803B0BDE8F08F002001469C
:1002A000F9E70EB540F2334102910021CDE900118A
:1002B0000A460B4600F0D7F803B000BD00F000423C
:1002C00020F00040C10DC0F3160040F400007F296B
:1002D00001DA00207047962903DCC1F19601C8407D
:1002E00001E096398840002AF4D04042704700F07F
:1002F000004230F000400AD0C10D01F56071C0F33A
:10030000160042EA0151C20840071143704700201D
:100310000146704701F0004330B421F0004150EA3B
:10032000010206D00A0DA2F56072C1F31301002A82
:1003300002DC30BC00207047440F44EAC104C10015
:10034000E01830BC00EBC25000F047B830B50B46A7
:10035000014600202022012409E021FA02F59D42F5
:1003600005D303FA02F5491B04FA02F52844151EC9
:10037000A2F10102F1DC30BD2DE9F05F054600205D
:1003800092469B4688460646814640241BE0284606
:10039000414647462246FFF7C5FE53465A46C01A15
:1003A000914110D311461846224600F003FA2D1A47
:1003B00067EB01084F4622460120002100F0FAF9C0
:1003C00017EB00094E41201EA4F10104DFDC484672
:1003D00031462A464346BDE8F09F0029A8BF704732
:1003E000401C490008BF20F00100704710B4B0FA6B
:1003F00080FC00FA0CF050EA010404BF10BC704706
:1004000049B1CCF1200421FA04F411FA0CF118BF1F
:10041000012121430843A3EB0C01CB1D4FEA0061EE
:100420004FEA102042BF002010BC704700EBC350C1
:1004300010440029A4BF10BC7047401C490008BFED
:1004400020F0010010BC704710B5141E73F10004B9
:1004500008DA401C41F1000192185B411A4301D1B6
:1004600020F0010010BD2DE9F04D92469B4611B1E0
:10047000B1FA81F202E0B0FA80F22032904600F048
:1004800099F904460F4640EA0A0041EA0B01534637
:100490005A46084313D0114653EA010019D0C8F157
:1004A00040025046FFF73EFE05460E46504659466E
:1004B000424600F07FF9084305D0012004E02046C1
:1004C0003946BDE8F08D0020054346EAE0762C432E
:1004D00037430A986305E40AA0EB08000022FD0AEE
:1004E00044EA47540A3002D500200146E9E70105F5
:1004F00010196941DDE9084500196941BDE8F04D71
:10050000A2E72DE9FE4F804681EA0300C00F0C46AA
:10051000009021F0004123F00045B8EB0200A94112
:1005200005D24046214690461C460B46024623F023
:100530000040104347D0270DC7F30A00C3F30A5108
:100540000290401A019040286BDAC3F3130040F484
:10055000801B0098924620B10023D2EB030A63EB84
:100560000B0B01985946C0F14002504600F022F9A9
:1005700006460D4650465946019A00F02AF910EBFE
:1005800008006141002487EA115284EAE7731A43A4
:1005900040D0009A62B3019A012A4FEA075215DC53
:1005A000001B61EB02014FF0004202EA0752CDE965
:1005B0000042001C41F5801132462B46FFF753FFE5
:1005C00003B0BDE8F08F40462146F9E7001B61EB20
:1005D0000201001C41F5801300185B412018A2F5B0
:1005E000001747EB030140EAD570B6196D4111E0E1
:1005F0006D084FEA360645EAC0754FEA0752001B00
:1006000061EB0201001C41F5801149084FEA3000FE
:100610000019514132462B4603B0BDE8F04FFFF7B9
:1006200013BF0098012240000023D0EB020263EBCD
:10063000E073009821464FEAE074B8EB000061EBEC
:100640000401E9E783F000435BE781F0004158E7EC
:100650002DE9F04D81EA030404F0004B21F0004540
:1006600014464FF0000A23F0004150EA050220D062
:1006700054EA01021DD0C5F30A570246C5F313031D
:10068000C1F31300C1F30A5640F4801543F48013FC
:10069000A7EB0608101BD64608F2FD3873EB0500E1
:1006A00002D308F1010801E092185B41B8F1000F94
:1006B00003DA00200146BDE8F08D00204FF48011E0
:1006C000064684460EE0171B73EB050705D3121B85
:1006D00063EB050306434CEA010C49084FEA30007E
:1006E00092185B4150EA0107EDD152EA030012D0A3
:1006F00082EA040083EA0501084305D0101BAB41E0
:1007000006D20122002306E000224FF0004302E05F
:100710006FF0010253101AEB06004CEB085110EB7E
:100720000A0041EB0B01BDE8F04DFFF78DBEC1F3B0
:100730000A52C1F3130140F2FF3341F480119A428F
:1007400002DA00200146704740F233439A42A2F297
:10075000334202DC5242FFF7E5BC00F02BB8000048
:1007600030B5041E71F1000404DB4FF00044404238
:1007700064EB0101141E73F1000405DB1C464FF00D
:100780000043524263EB0403994208BF904230BDDC
:10079000064C074D06E0E06840F0010394E80700CE
:1007A00098471034AC42F6D3FFF7A4FC202E000883
:1007B000402E0008202A04DB203A00FA02F1002033
:1007C00070479140C2F1200320FA03F3194390408F
:1007D0007047202A06DBCB17203A41FA02F043EAA1
:1007E000E07306E041FA02F3D040C2F120029140EA
:1007F000084319467047FEE7014800F087B800003B
:1008000088020020014800F081B800004402002066
:1008100030B590F840500124AC40C56B6C60046862
:1008200063604368102B036803D099600068C2605E
:1008300030BD9A600068C16030BD704701680A68C9
:1008400022F00E020A6001680A6822F001020A60C2
:1008500090F84020C36B012101FA02F25A6080F83F
:100860002110002180F820100846704710B590F83C
:1008700021100024022903D00421816301243DE0DA
:1008800001680A6822F00E020A6001680A6822F014
:1008900001020A601A4A0168914201D1012121E056
:1008A000174A1432914201D110211BE0144A283218
:1008B000914201D1891515E0114A3C32914201D192
:1008C00089140FE00E4A5032914202D14FF4803128
:1008D00008E00B4A6432914202D14FF4801101E0EA
:1008E0004FF08071064A083A5160012180F82110CA
:1008F000002180F82010416B01B18847204610BDCF
:100900000800024090F82100704700002DE9F05FD8
:10091000C16B0C6801680B68D0F840C0042202FA71
:100920000CF2494DDFF824A1494E4A4FDFF828B1B7
:10093000DFF828E122422CD05A072AD50A6892060D
:1009400003D40A6822F004020A600168A94201D1B6
:10095000042219E0514501D1402215E0B14202D1F3
:100960004FF4806210E0B94202D14FF480420BE0B4
:10097000594502D14FF4802206E0714502D14FF46F
:10098000800201E04FF080622F4908394A60C16A55
:100990003BE04FF0020808FA0CF818EA040F4FF099
:1009A00000094FF0010235D05FEA837832D50B6839
:1009B0009B0605D40B6823F00A030B6080F8212006
:1009C0000168A94201D1022219E0514501D120223A
:1009D00015E0B14202D14FF4007210E0B94202D1E9
:1009E0004FF400520BE0594502D14FF4003206E0BB
:1009F000714502D14FF4001201E04FF0007212492C
:100A000008394A6080F82090816A00291AD0BDE830
:100A1000F05F0847082505FA0CF5254212D01B07A0
:100A200010D50B6823F00E030B6090F84010C36BD9
:100A300002FA01F15960826380F8212080F8209049
:100A4000016BE2E7BDE8F09F080002401C00024095
:100A50003000024044000240580002406C00024056
:100A600030B548B308C8154914221944B1FBF2F156
:100A70008900C16312498163022141771A6843F6F4
:100A8000F0718A43D0E900142143D0E902452C4398
:100A9000214304692143446921438469214311436B
:100AA0001960002141628162C162016341630122D8
:100AB00042770177084630BD012030BDF8FFFDBF09
:100AC0000000024070B5044690F82000002501287F
:100AD0000CD0012084F8200094F821600020012E21
:100AE00006D084F820000225284670BD022070BD83
:100AF000022684F82160A0632068066826F00106BB
:100B000006602046FFF784FEE06A0028206801683E
:100B100002D041F00E0106E021F0040101602068DE
:100B2000016841F00A0101602068016841F001019B
:100B30000160D9E770B5044600F0F2F80546601C84
:100B400002D004480078044400F0EAF8401BA042B8
:100B5000FAD370BD340000202DE9F84FDFF890A1E2
:100B600000220AF1040B144601274FF00F090BF184
:100B7000040E00BF0B6807FA04F52B40AB4274D19A
:100B8000DFF870C14E68A6EB0C0866452BD00DDC73
:100B9000032E34D005DC36B3012E19D0022E2FD10E
:100BA0001BE0112E16D0122E2AD119E0B8F5881F9D
:100BB00019D006DCB8F5803F15D0B8F5801F1FD1DD
:100BC00011E0B8F5001F0ED0B8F5041F18D10AE0E7
:100BD000CA6815E0CA68121D12E0CA6808320FE040
:100BE000CA680C320CE08A682AB1012A4FF0080268
:100BF00003D0456104E0042202E0056100E0002228
:100C0000FF2B01D8064601E000F104064FEA8405F7
:100C100001D9A5F12005D6F800C009FA05F82CEA9B
:100C2000080C02FA05F54CEA050CC6F800C04D6840
:100C3000ED0057D5304DAE6946F00106AE61AD69A5
:100C400024F0030605F0010500952C4D06EB050C7C
:100C5000DCF80850A6074FEA167809FA08F6B543FB
:100C6000274EB04202D1002610E03BE0254EB042B4
:100C700001D101260AE0244EB04201D1022605E04E
:100C8000224EB04201D1032600E0042606FA08F6FF
:100C90002E43CCF808604D68DAF80060ED03554645
:100CA00001D51E4300E09E432E604D68DBF80060D6
:100CB000AD035D4601D51E4300E09E432E604D68A6
:100CC000DEF80060ED02754601D51E4300E09E434C
:100CD0002E604D68AD020E4D2E6801D51E4300E01A
:100CE0009E432E60641C102CFFF444AFBDE8F88FC7
:100CF00000040140000011100010024000000140FB
:100D000000080140000C01400010014000140140A7
:100D10000C0401400AB1016170470904FBE70000BF
:100D20000148806870470000340000200248816854
:100D3000027811448160704734000020074810B5E4
:100D4000016841F010010160032000F09DF80020CF
:100D500000F006F800F024F8002010BD002002404A
:100D600070B50D4D04464FF47A712878B1FBF0F060
:100D70000A490968B1FBF0F000F02DFB48B9102CCE
:100D800007D200222146501E00F05EF800206C6061
:100D900070BD012070BD0000340000204000002024
:100DA000214808B5816941F001018161816901F043
:100DB00001010091C16941F08051C161C06900F039
:100DC00080500090032000F05FF8002211466FF081
:100DD0000B0000F039F8002211466FF00A0000F015
:100DE00033F8002211466FF0090000F02DF80022C0
:100DF0001146501F00F028F800221146101F00F085
:100E000023F800221146901E00F01EF80022114621
:100E1000501E00F019F80548416821F0E06141F0EA
:100E20000071416008BD0000001002400000014058
:100E300000F01F02012191404009800000F1E020F4
:100E4000C0F8001170470000F0B40E4B1B680C4650
:100E5000C3F30223C3F10705042D00D90425191D8E
:100E6000072901D2002300E0DB1E012606FA05F166
:100E7000491E214099409E40761E16403143F0BCE9
:100E800000F0B7BD0CED00E0064900F0070208686D
:100E90004FF6FF03184040EA0220034A104308605F
:100EA000704700000CED00E00000FA052DE9F04766
:100EB000DFF83C8105460E46D8F8000000F0070038
:100EC000B0420CD2D8F8001021F007013143C8F825
:100ED0000010D8F8000000F00700B04263D1287875
:100EE000444C800705D56068A96820F0F0000843ED
:100EF00060602878C00745D06868012816D021684E
:100F0000022816D0890700294DDA616821F0030113
:100F100001436160FFF704FF6968074641F28830CA
:100F200001290FD00229814619D027E021688903C1
:100F3000E9E78901E7E700BFFFF7F2FEC11B49457A
:100F400001D918E081466068C0F381000128F3D11F
:100F500018E000BFFFF7E4FEC11B49450BD86068ED
:100F6000C0F381000228F5D10CE000BFFFF7D8FEE6
:100F7000C11B494502D90320BDE8F087606810F025
:100F80000C0FF3D1D8F80010404601F00701B14230
:100F90000BD9016821F0070131430160006800F0BE
:100FA0000700B04201D00120E6E72878400705D5C8
:100FB0006068E96820F4E060084360602878000712
:100FC00006D56068296920F4605040EAC10060607D
:100FD00000F03CF86168084AC1F30311515CC84055
:100FE000064908600020FFF7BBFE0020C4E70000B0
:100FF0000020024000100240082E0008400000209F
:10100000014800687047000040000020044805497E
:1010100000684968044AC1F30221515CC840704726
:101020004000002000100240182E00080448054926
:1010300000684968044AC1F3C221515CC840704746
:101040004000002000100240182E000812A185B0B8
:101050000FC98DE80F0014A0144A0068049051686D
:10106000134801F00C03042B10D0082B0ED1C1F350
:101070008343C9031DF803000AD5516804AAC1F3CC
:101080004041515C0A4A5043B0FBF1F005B0704753
:1010900008494843FAE70000020304050607080967
:1010A0000A0B0C0D0E0F1010010200000010024080
:1010B00000127A0000093D002DE9F84F044600783F
:1010C000B94DC00748D06868C0F38100012807D037
:1010D0006868C0F38100022809D16868C00306D59A
:1010E0002868800338D5606800286FD034E06068D5
:1010F000B0F5803F0BD010B1B0F5A02F11D028680B
:1011000020F480302860286820F4802002E02868DD
:1011100040F480302860606888B1FFF701FE064621
:1011200009E0286840F480202860F0E7FFF7F8FD28
:10113000801B642875D828688003F7D50CE0FFF77A
:10114000EFFD064605E000BFFFF7EAFD801B6428BF
:10115000F0D828688003F7D42078944E80074FF0A9
:1011600001094FF000083BD5686810F00C0F07D05C
:101170006868C0F38100022809D16868C00306D4FA
:101180002868800714D5206901281FD110E0206944
:10119000B0B1C6F80090FFF7C3FD074605E000BFF9
:1011A000FFF7BEFDC01B0228C4D828688007F7D50A
:1011B0002868616920F0F80040EAC10028600FE06B
:1011C000C6F80080FFF7ACFD074606E0E9E000BF87
:1011D000FFF7A6FDC01B022823D828688007F7D494
:1011E000207800072CD57248A169D9B1C0F80090C9
:1011F000FFF796FD074604E0FFF792FDC01B0228AB
:101200000FD8686A8007F7D56A484FF4FA5100682A
:10121000B0FBF1F0009000BF0098411E0091FAD29F
:101220000EE080E0C0F80080FFF77AFD074604E09A
:10123000FFF776FDC01B022875D8686A8007F7D4CF
:101240002078400760D5E8690027C00008D4E86925
:1012500040F08050E861E869012700F0805000907C
:1012600055480168C90513D40168834641F480716B
:101270000160FFF755FD824606E000BFFFF750FD15
:10128000A0EB0A0064284ED8DBF80000C005F5D5B5
:10129000E06801280AD008B1052813D0286A20F098
:1012A00001002862286A20F0040002E0286A40F069
:1012B00001002862E06841F2883B98B1FFF730FDF9
:1012C00082460BE0286A40F004002862EEE700BF87
:1012D000FFF726FDA0EB0A0159455AD8286A800776
:1012E000F6D50CE0FFF71CFD824605E0FFF718FD80
:1012F000A0EB0A0159454CD8286A8007F6D41FB1E3
:10130000E86920F08050E861E06988B36968C1F35A
:101310008101022945D00228C6F8608004D0FFF779
:10132000FFFC044638E034E0FFF7FAFC074604E02F
:10133000FFF7F6FCC01B02282BD828688001F7D4E1
:10134000206AB0F5803F05D16868A16820F40030BC
:1013500008436860D4E908010843696821F47411FE
:1013600008436860C6F86090FFF7DAFC044606E0C0
:1013700015E000BFFFF7D4FC001B022809D828683D
:101380008001F7D50BE000BFFFF7CAFC001B022865
:1013900002D90320BDE8F88F28688001F4D400202A
:1013A000F8E70120F6E7000000100240000042428A
:1013B0008004424240000020007000404FF0E021D5
:1013C0000428086903D020F004000861704740F049
:1013D0000400FAE7704710B5401EB0F1807F01D3DA
:1013E000012010BD4FF0E02460610F21601700F074
:1013F00000FB0020A06107202061002010BD10B577
:10140000FFF7E8FF10BD10B504460068416994F885
:101410003920C1F3C011212A0BD151B1416921F00A
:1014200080014161206B08B1FFF708FA204600F007
:10143000C5FB2068416994F83A20C1F38011222A43
:101440000BD151B1416921F040014161606B08B19C
:10145000FFF7F4F9204600F0A3FB002010BD704711
:1014600070B5026804461068D168536910F00F0F18
:1014700050D003F0010501F4907635435DD0C207EA
:1014800005D0CA0503D5E26B42F00102E2634207D0
:1014900005D5DA0703D0E26B42F00202E26382076D
:1014A00005D5DA0703D0E26B42F00402E2630207DB
:1014B00005D5DA0703D0E26B42F00802E263E26B83
:1014C000002A33D0800604D5880602D5204600F0D5
:1014D0007EFB20684069E16BC0F38010090700D4EF
:1014E00028B3204600F05CFB2068416949061AD504
:1014F000416921F040014161606BA0B11B4941632A
:10150000606BFFF7B3F9002810D0606B416BBDE84A
:1015100070400847830610D58B060ED52046BDE8DF
:10152000704000F054BB2046FFF799FF70BD204685
:10153000FFF795FF0020E06370BD030606D50B069C
:1015400004D52046BDE8704000F044BC4006F3D509
:101550004806F1D5D168204621F04001D160202114
:1015600084F8391000F004FA70BD0000C91A0008B0
:1015700070B5040004D094F83900002510B106E0DD
:10158000012070BD84F83850204600F023F8242054
:1015900084F839002068C16821F40051C1602046F8
:1015A00000F060FB2068016921F49041016120682E
:1015B000416921F02A0141612068C16841F400516C
:1015C000C160E563202084F8390084F83A000020E7
:1015D00070BD0000F0B5064603684248DFF800C160
:1015E00002210322404D0715002485B0634512D126
:1015F000836943F4804383618069039200F48040EF
:1016000004900802CDE9000169462846FFF7A4FAD4
:10161000CDE9007416E0DFF8D4C0634519D1C36981
:1016200043F40033C361C069039200F400300490B6
:101630000420CDE9000169462846FFF78DFA08200D
:10164000CDE90004694628460294FFF785FA05B003
:10165000F0BD274DAB42FAD1C36943F48023C36187
:10166000C069CDE9007100F48020CDE90320214D4F
:1016700069462846FFF770FAE814CDE90004694688
:1016800028460294FFF768FA1C4D1B488027C5E9DD
:101690000004C5E902472C616C61AC612846EC612D
:1016A000FFF7DEF918B1C12115A000F04BFC7563FE
:1016B0006E621148194D143801C5102091C51748A4
:1016C00045F810496C61AC61EC61FFF7C9F918B1DC
:1016D000D1210BA000F036FC35636E62B7E7000045
:1016E0000038014000100240000801400044004062
:1016F00000480040000C014030000240440200203D
:101700002E2E2F5372632F73746D333266317878B7
:101710005F68616C5F6D73702E630000880200204B
:10172000F8B5044690F83A0020283CD1C1B3BAB3CA
:1017300094F83800012836D0012084F83800A162DE
:10174000A2850025E563222084F83A00636B1748E0
:101750009862636B1648D862636B16481863606BB7
:10176000134645630846666B216802463046091DEC
:10177000FFF7A8F9206801684168009184F83850A3
:10178000C16841F48071C1602068416941F0010184
:1017900041612068416941F0400141610020F8BD8C
:1017A000FFE70120FBE70220F9E70000231B000808
:1017B0005F1B0008D91A000890F83A30202B22D17C
:1017C000F9B1F2B190F83830012B1CD081628285DA
:1017D000C2850021C163222280F83A2080F83810A7
:1017E0000168CA6842F48072CA6001684A6942F0BE
:1017F00001024A610068C16841F02001C160002017
:1018000070470120704702207047000000680649B9
:10181000884208D105490120182248700449A1F5E1
:10182000E070FFF7C9BF704700380140000000209A
:101830000802002070472DE9F843044690F839006B
:101840001F4616460D46202850D1A5B19EB194F8EA
:10185000380001284AD0012084F838004FF00008F1
:10186000C4F83C80212084F83900FFF759FAA68497
:101870008146E68426E00120BDE8F883E08C401E26
:10188000E084A0684B46B0F5805F4FF000024FF057
:1018900080012046009703D000F0CDFAE8B90DE0B2
:1018A00000F0C9FAC8B928882168C0F30800486068
:1018B000206908B16D1C05E0AD1C03E0216815F836
:1018C000010B4860E08C0028D8D14B460022402113
:1018D0002046009700F0AFFA08B10320CCE72020A3
:1018E00084F8390084F838800020C5E70220C3E777
:1018F00070B5044690F83900202830D169B362B33E
:1019000094F8380001282AD0012084F83800216298
:10191000A284E2840025E563212084F83900236B4A
:1019200010489862236B1048D862236B0F481863E5
:10193000206B134645632668206B321DFFF7C2F803
:1019400021686FF04000086084F8385020684169D1
:1019500041F080014161002070BD012070BD022076
:1019600070BD0000691B0008971B0008D91A000809
:1019700070477047FEE7FEE72DE9F0410F46054648
:101980002C24FEF715FC0146284600F057FF294697
:101990000EA000F0D9FA104D002612E02878012898
:1019A00004D12E700D490EA000F0CEFA39460B4836
:1019B000FEF7ECFB10B10020BDE8F0810A20FFF734
:1019C000B9F8641EE4B2E9D20120F5E753656E74FC
:1019D0003A25730D0A000000000000208801002055
:1019E00052656365697665643A25730D0A000000E7
:1019F00070470907090E002806DA00F00F0000F111
:101A0000E02080F8141D704700F1E02080F80014F9
:101A100070477047704710B5FFF788F9BDE8104070
:101A2000FFF7EDBC10B590B00220009001200490AB
:101A300010200024059007946846FFF73DFB00B195
:101A4000FEE70F20CDE90A040C940D9400210AA8AA
:101A50000E94FFF72BFA00B1FEE7FFF7D1FA4FF42F
:101A60007A71B0FBF1F0FFF7B6FC0420FFF7A6FC9B
:101A700000221146501EFFF7E7F910B010BD00001C
:101A80000D48016841F00101016041680B4A1140B5
:101A9000416001680A4A11400160016821F4802117
:101AA0000160416821F4FE0141604FF41F01816033
:101AB0000449C00308607047001002400000FFF8AE
:101AC000FFFFF6FE08ED00E010B5406A0021C18579
:101AD000C184FFF7C4FC10BD70B5446A206840693A
:101AE00094F83910C0F3C0100025212904D118B191
:101AF000E584204600F062F82068406994F83A10C6
:101B0000C0F38010222904D118B1E585204600F0E9
:101B100047F8E06B40F01000E0632046FFF79FFCC1
:101B200070BD10B50146406A09680968890613D47A
:101B30000021C1850168CA6822F48072CA60016808
:101B40004A6922F001024A6101684A6922F04002B2
:101B50004A61202180F83A10FFF758FE10BD10B5F9
:101B6000406AFFF767FE10BD10B50146406A09687C
:101B7000096889060CD40021C18401684A6922F0F1
:101B800080024A610068C16841F04001C16010BD37
:101B9000FFF7EEFE10BD10B5406AFFF7EAFE10BD7C
:101BA0000168CA6822F49072CA6001684A6922F02A
:101BB00001024A61202180F83A1070470168CA6822
:101BC00022F0C002CA60202180F83910704710B599
:101BD00090F83A10222901D0022010BD8168B1F599
:101BE000805F11D00169002901681FD0496801F0A8
:101BF0007F03816A4A1C82620B70C18D491E0904F1
:101C0000090CC18518D02BE00269816A002A02689C
:101C1000526805D0D2B20A80816A491C8162ECE721
:101C2000C2F308020A80816A891CF7E74A68816A60
:101C30004B1C83620A70E0E70168CA6822F0200248
:101C4000CA600168CA6822F48072CA6001684A6981
:101C500022F001024A61202180F83A10FFF7D6FDF8
:101C6000002010BD2DE9F041044600680169E268DA
:101C700021F44051114301612169A0680843616961
:101C800008432168CA6841F20C639A430243CA6060
:101C900020684169A26921F44071114341614C49B6
:101CA00020686425322688423CD1FFF7BFF900EB5B
:101CB000C00101EB001061688900B0FBF1F7FFF78C
:101CC000B5F900EBC00101EB00106168B046890076
:101CD000B0FBF1F0B0FBF5F06FF01801484307EBF3
:101CE000800106EB0110B0FBF5F000F0F006FFF705
:101CF0009DF900EBC00101EB001061688900B0FBA9
:101D0000F1F0B0FBF5F006EB0016FFF78FF900EBF2
:101D1000C00101EB001061688900B0FBF1F7FFF72B
:101D200085F93BE0FFF772F900EBC00101EB001011
:101D300061688900B0FBF1F7FFF768F900EBC001BB
:101D400001EB00106168B0468900B0FBF1F0B0FB18
:101D5000F5F06FF01801484307EB800106EB011026
:101D6000B0FBF5F000F0F006FFF750F900EBC00112
:101D700001EB001061688900B0FBF1F0B0FBF5F0F9
:101D800006EB0016FFF742F900EBC00101EB001073
:101D900061688900B0FBF1F7FFF738F900EBC0018B
:101DA00001EB001061688900B0FBF1F0B0FBF5F0C9
:101DB0006FF01801484307EB800108EB0110B0FBFE
:101DC000F5F0216800F00F0030448860BDE8F08134
:101DD0000038014090F83910212901D002207047C5
:101DE0008168B1F5805F016A0BD04A1C026202680B
:101DF00009785160C18C491E0904090CC1840ED0B8
:101E000017E009880268C1F30801516001690029DF
:101E1000016A02D0491C0162ECE7891CFBE70168FA
:101E2000CA6822F08002CA600068C16841F04001BF
:101E3000C160002070472DE9F041984617460E46D4
:101E40000446069D1DE0681C1BD02DB1FEF768FFFF
:101E5000A0EB0800A84214D92068C16821F4D07111
:101E6000C1602068416921F001014161202084F8AE
:101E7000390084F83A00002084F838000320BDE8D7
:101E8000F0812068006836EA000004D00020B842E3
:101E9000D9D00020F3E70120F9E700000148FFF75F
:101EA000DFBA000048000020064810B5006800684E
:101EB000C00602D5034800F009F8BDE8104001480B
:101EC000FFF7CEBAC8000020FEE70000F8B50168B1
:101ED00004460868C043C00627D41448814224D170
:101EE00008684868009008684868114800684068B9
:101EF00086B22046FFF787FA0E4D287850B9C6F112
:101F0000800082B20C480D4902800D48FEF71AF994
:101F10000120287080210948FEF72DF92046BDE8F0
:101F2000F84080220549FFF7FBBBF8BD00480040A0
:101F300044020020000000203000002008010020A2
:101F400088010020FEE700000FB4054B10B503A97F
:101F5000044A029800F0DAF810BC5DF814FB0000A7
:101F6000712800084400002002E008C8121F08C1C0
:101F7000002AFAD170477047002001E001C1121F0A
:101F8000002AFBD1704700002DE9FF5F82B00021DD
:101F9000DDE90430020DDDF840B0034318D044F60B
:101FA0001050A2F2FF3242431514119801281FD09D
:101FB000A5EB0B00401C5FEA000A4FF000064E4FF5
:101FC000DFF83891B046504615D5CAF1000413E049
:101FD000119801244AA3012801D16FEA0B0102984C
:101FE000119AC0E90031C0E9024206B0BDE8F09F95
:101FF000CBF10000DFE704460021404A491842EBDC
:102000000450CDE9001012E0E00707D032463B460D
:1020100040464946FEF7D3F88046894632463B465D
:1020200010461946FEF7CBF806460F466410002C02
:10203000EAD1DDE90401DDE90023BAF1000F06DA97
:10204000FEF7BDF842464B46FEF7B9F805E0FEF74D
:10205000FFFA42464B46FEF7FBFA04460E460022C4
:10206000284BFEF77DFB03D84FF0FF30014607E019
:102070000022254B20463146FEF743FAFEF757FB78
:10208000102409E0002C0ADB0A220023FEF774F971
:10209000039B30321A55641E50EA0102F2D1641CCF
:1020A000039AC4F111031444119A012A03D00122A6
:1020B00008430DD10AE0084304D000204FF0110B73
:1020C000119072E7A3EB0B056D1E0DE05B4504DD7F
:1020D0004FF0000205F1010504E003DA4FF00002C1
:1020E000A5F10105002AECD002981199C0E902314E
:1020F000C0E9004579E70000000014400000F03F0F
:10210000300000000000F0430000E03F2DE9FF4FE9
:1021100095B09B468946064600250FE2252877D1D3
:1021200000242746F84A0121059400E0044316F8EC
:10213000013F203B01FA03F01042F7D130782A2802
:1021400011D06FF02F033078A0F13002092A16D891
:10215000059A44F0020402EB820203EB42021044AF
:10216000761C0590EFE759F8042B0592002A03DA54
:10217000504244F40054059044F00204761C307838
:102180002E2816D116F8010F44F004042A280DD089
:102190006FF02F023078A0F13003092B09D807EB3C
:1021A000870302EB4303C718761CF3E759F8047B57
:1021B000761C30786C280FD006DC4C2817D06828A5
:1021C0000DD06A2814D104E0742810D07A280FD1D9
:1021D0000DE044F400140AE044F4801401E044F4F7
:1021E00040147278824202D104F58014761C761C69
:1021F000307866280BD013DC582877D009DC00280B
:1022000075D04528F6D04628F4D047281AD19DE14C
:1022100018E0632835D0642879D0652812D195E17B
:10222000702873D008DC6728F1D069286FD06E2839
:102230000DD06F2806D1B5E073282CD0752875D045
:10224000782874D05A46179990476D1C75E1C4F3ED
:102250000250022809D003280DD0D9F80010042814
:102260000DD00D6009F1040967E1D9F80010EA17F3
:10227000C1E90052F6E7D9F800100D80F2E70D70C1
:10228000F0E719F8041B8DF8001000208DF801000C
:10229000EA46012003E059F804AB4FF0FF30610734
:1022A0004FF0000102D40DE008F101018846B94267
:1022B0000FDA8045F8DB1AF808100029F4D108E09D
:1022C00008F1010188468142FADB1AF8081000295A
:1022D000F6D105985B46A0EB080721463846179AC9
:1022E00000F094FA284400EB080507E04DE029E1EE
:1022F0000DE01AF8010B5A4617999047B8F10108FA
:10230000F7D25B4621463846179A13E142E00A228B
:102310000092C4F302524FF0000A022A08D059F882
:1023200004CB032A4FEAEC710AD00DE029E02AE041
:1023300009F1070121F00702F2E802C1914609E024
:102340000FFA8CFC4FEAEC71042A03D14FFA8CFC93
:102350004FEAEC71002907DA0A460021DCF1000C93
:1023600061EB02012D2202E0220504D52B228DF81B
:102370000420012203E0E20701D02022F7E7904683
:1023800059E00A2102E010220DE010214FF0000A6E
:1023900000910BE010224FF0000A44F004040827DB
:1023A000009203E008224FF0000A0092C4F30252A8
:1023B000022A05D059F804CB0021032A08D009E0ED
:1023C00009F1070121F00702F2E802C1914605E098
:1023D0001FFA8CFC042A01D10CF0FF0C4FF000080E
:1023E000220728D5702806D0009B83F0100353EAFB
:1023F0000A0305D00EE040228DF80420012208E0F7
:102400005CEA010206D030228DF804208DF8050028
:1024100002229046009B83F0080353EA0A030AD184
:102420005CEA010201D1620705D530228DF8042053
:102430004FF001087F1E582804D034A003900EA846
:1024400002900DE036A0F9E753466046009AFDF78A
:1024500093FF84460398825C0298401E02900270AB
:102460005CEA0100F0D1029806A9081A00F1200ADE
:10247000600702D524F4803400E00127574502DDCF
:10248000A7EB0A0000E0002000EB0A01009005988D
:102490004144401A0590E00306D45B462146179A52
:1024A000059800F0B3F90544002706E001A85A4654
:1024B000C05D179990476D1C7F1C4745F6DBE00314
:1024C0000CD55B462146179A059800F09FF9054404
:1024D00004E030205A46179990476D1C0099481E19
:1024E00000900029F5DC08E0029802995A4600782D
:1024F000491C0291179990476D1CBAF10001AAF18D
:10250000010AF1DC65E100000928010030313233B5
:10251000343536373839616263646566000000001F
:102520003031323334353637383941424344454609
:102530000000000000F058F90544761C30780028AF
:102540007FF4ECAD19B02846BDE8F08F620700D4E7
:10255000062709F1070222F0070CFCE80223E146F6
:1025600003F000485FEA080C02D00FF2702C0DE077
:102570005FEA045C02D50FF2682C07E05FEAC47CD6
:1025800002D00FF2602C01E0AFF2700C4FF0FF3878
:1025900023F00043CDF850C065280CD006DC452858
:1025A00009D046281DD047283DD13DE0662818D0E7
:1025B00067287ED138E00021112F01DB112000E0D7
:1025C000781CCDE9000106A90EA8FFF7DDFCDDE9C6
:1025D0000F010E9A03910021009207F1010A049164
:1025E0004DE04FF000400097CDE9011006A90EA87C
:1025F000FFF7CAFCDDE90F0203920E9B119900223E
:10260000DDF80CA00093049211B9791C00EB010ACB
:10261000B7EB0A0004D4C0F1FF3007F1010A0490BF
:10262000AAEB0700019044E0012F00DA0127002106
:10263000112F01DD112000E03846CDE9000106A987
:102640000EA8FFF7A1FCDDE90F010E9A039100210E
:1026500004910092BA4621070CD40399514500DA3F
:102660008A46BAF1010F05DD009AAAF10101515C19
:10267000302908D0B84202DA10F1040F06DA01213D
:10268000CDE9011015E0AAF10101E9E7002805DC18
:10269000049901440491AAEB000102E0411C514558
:1026A00000DD8A460499401A401C01904FF000401A
:1026B0000290200704D40198504501DBCDF8048036
:1026C00000208DF84F0002980DF14F07B0F1004F38
:1026D00025D02B200E9002984FF0020800280CDA2B
:1026E000404202902D200E9007E00A210298FDF74B
:1026F0002DFE3031029007F8011DB8F10001A8F15C
:102700000108F2DC02980028EFD1791E0E980870BB
:10271000307800F0200040F0450007F8020D12A8C4
:10272000C01B00F107081498007800B1012000EBED
:102730000A01019801EBE07105984144401A401EDE
:102740000590E00306D45B462146179A059800F0F1
:102750005DF805441498007818B15A4617999047C7
:102760006D1CE00324D55B462146179A059800F0BE
:102770004DF805441CE00498002807DBDDE903015F
:10278000884203DD0098405C179901E017993020DA
:102790005A469047049805F10105401C04900198A1
:1027A000401E019004D12E205A46179990476D1C67
:1027B000BAF10001AAF1010ADDDC05E017F8010B0E
:1027C0005A46179990476D1CB8F10001A8F101080D
:1027D000F4DC5B462146179A0598ABE62D00000015
:1027E0002B000000200000002DE9F04104460025E8
:1027F0001E461746880404D405E039462020B04719
:102800006D1C641EF9D52846BDE8F0812DE9F04124
:10281000044600251E469046C80301D5302700E037
:102820002027880404D505E041463846B0476D1C92
:10283000641EF9D52846BDE8F081000070B50C464D
:1028400005460948FEF75EF80228FAD006480168F6
:10285000086820F001000860A2B22946BDE8704077
:102860000248FFF745B8000088020020C800002099
:1028700013B54FF6FF73012269460248FEF7DBFFEE
:1028800000981CBD8800002086B0FEF757FAFFF7BD
:10289000C9F8BC4CA06940F00400A061A06900F038
:1028A00004000490A06940F00800A061A069B64D42
:1028B00000F008000490002220212846FEF72AFAA2
:1028C0002020009001200026CDE90106022003907F
:1028D00069462846FEF740F9606940F001006061F2
:1028E0006069002200F00100009011460C20FEF704
:1028F000ABFA0C20FEF79CFA002211460D20FEF7E1
:10290000A3FA0D20FEF794FAA148A0494FF4E1374D
:102910000160C0E901760C25C660C0E904658661E6
:10292000C661FEF725FE00B1FEE7994C9948403498
:102930002060C4E90176E660C4E90465A66120462A
:10294000E661FEF715FE00B1FEE791489249403876
:1029500001604FF49651C0E90116C660C0E90465F4
:102960008661C661FEF704FE00B1FEE70022032186
:102970002520FEF769FA2520FEF75AFA00220421E5
:102980002720FEF761FA2720FEF752FA83A0FFF70F
:10299000DBFA8AA0FFF7D8FA8FA292A194A0FFF7E2
:1029A000D3FA7B4980228031A1F14000FEF7B8FEC6
:1029B00000B1FEE72068C16841F01001C160924992
:1029C0001822A1F5E070FEF7F7FE01228FA190A07A
:1029D000FEF7D2FF01228DA192A0FEF7CDFF40F6B7
:1029E000B830FEF7A7F8012288A19AA0FEF7C4FF2D
:1029F000012286A1A2A0FEF7BFFF4FF4FA60FEF706
:102A000099F8012281A1A2A0FEF7B6FFA24D4FF4D2
:102A10007A7701227DA19AA0FEF7AEFF7A480721BE
:102A20003030FFF70BFF3846FEF784F8E888401C8B
:102A3000E8800520FEF77EF8E88880B1EE8097A058
:102A4000A968FFF781FA9EA0E968FFF77DFAAE60FA
:102A50000520EE60FEF76EF88CA0FFF775FAE86AC5
:102A600000F088F9287801280AD167492E7080394A
:102A70009CA0FFF769FA644880218038FDF77BFB52
:102A800068780128C5D1604C6E70E0786279217950
:102A90008DE80700A3786278217896A0FFF754FAB2
:102AA000607AE27AA17A8DE80700237AE279A17947
:102AB00090A0FFF749FAE07B627C217C8DE807005B
:102AC000A37B627B217B8BA0FFF73EFA607DE27DDA
:102AD000A17D8DE80700237DE27CA17C85A0FFF726
:102AE00033FAA078E178000400EB01202179014459
:102AF00029616079A279000400EB0220E2790244A6
:102B00006A61207A637A000400EB0320A37A1844F8
:102B1000A861E07A237B000400EB0320637B184468
:102B2000E861A07BE37B000400EB0320237C1844D6
:102B30002862607CA37C000400EB0320E37C184443
:102B4000686274A0FFF700FAD5E90401B0FBF1F068
:102B5000FDF7A7FB7C4A7D4BFDF731FBFDF7DAFB68
:102B6000A862FDF7C4FB02460B4679A0FFF7ECF91B
:102B7000A86AFDF7A3FB10380146E86278A0FFF7CA
:102B8000E3F946E700100240000C01400044004019
:102B900088000020004800400038014073696368E5
:102BA00075616E20756E69766572736974792077C8
:102BB000736E206C61620D0A0000000070726F6A13
:102BC00065637420706F776572706C7567207631FD
:102BD0002E300D0A0000000032303A31303A3437DE
:102BE000000000005365702031342032303138004D
:102BF000636F6D70696C6520646174653A2025733C
:102C00002025730D0A000000080200204F4B000031
:102C100041542B43574D4F44455F4445463D310D8C
:102C20000A00000041542B43574A41505F44454637
:102C30003D2254502D4C494E4B5F42313132373397
:102C4000222C226B61697975616E31303238220D28
:102C50000A00000041542B43495053544152543D03
:102C600022544350222C223139322E3136382E3123
:102C70002E313030222C313233340D0A0000000066
:102C800041542B43495053454E443D370D0A0000F3
:102C900061626364650D0A00000000205041382025
:102CA00043463120766F6C74616765207577467294
:102CB000657175656E63793D25640D0A000000003D
:102CC0005041313020434620706F77657220207567
:102CD000774672657175656E6379323D25640D0ABC
:102CE0000000000052656365697665643A25730DDE
:102CF0000A000000506F776572506C75673A25784E
:102D000020257820257820257820257820257820F2
:102D10000D0A0000766F6C746167655F70617261A7
:102D20006D657465725F76616C75653D25642C76A2
:102D30006F6C746167655F7265675F76616C7565FE
:102D40003D25640D0A00000014AE47E17A14FE3FF1
:102D5000766F6C746167653D25660D0A00000000A2
:102D6000766F6C746167655F696E743D25640D0AEA
:102D70000000000042F2107190FBF1F230B5002A21
:102D80003CD190FBF1F21E4952BB4FF47A7290FB9A
:102D9000F2F330338B7090FBF2F302FB13026423E7
:102DA00092FBF3F592FBF3F2302415B13032CA7086
:102DB00001E002B9CC7090FBF3F203FB12020A238C
:102DC00092FBF3F592FBF3F215B130320A7101E098
:102DD00002B90C7190FBF3F203FB12003030487122
:102DE00008488A780270CA7842700A7982704979F4
:102DF000C1702021017141710021817130BD00003D
:102E00000000002038020020000000000000000048
:102E10000102030406070809000000000102030480
:102E2000402E00080000002048000000681F000835
:102E3000882E00084800002088060000781F00083F
:102E40000000000000000000000000000000000082
:102E50000000000000000000000000000000000072
:102E60000000000000000000000000000000000062
:102E70000000000001000000100000000000000041
:082E800000A24A04000000005A
:04000005080000ED02
:00000001FF
