:020000040800F2
:10000000A014002099010008C5170008C1170008B6
:10001000C3170008BB050008991C00080000000079
:1000200000000000000000000000000001010008C6
:100030000B0600080000000045010008E717000853
:10004000B3010008B3010008B3010008B3010008C0
:10005000B3010008B3010008B3010008B3010008B0
:10006000B3010008B3010008B3010008B3010008A0
:10007000BD050008C9050008B3010008D505000842
:10008000B3010008B3010008B3010008B301000880
:10009000B3010008B3010008B3010008B301000870
:1000A000B3010008B3010008B3010008B301000860
:1000B000B3010008B3010008B3010008B301000850
:1000C000B3010008B3010008B3010008B301000840
:1000D000B30100086D1C0008B3010008791C00087A
:1000E000B3010008B3010008B3010008DFF80CD029
:1000F00000F042FA00480047C9200008A014002080
:10010000224B19680868B0E8F00F80F30988BFF344
:100110006F8F4FF0000080F311884EF00D0E704786
:100120000000000006480068006880F3088862B696
:1001300061B6BFF34F8FBFF36F8F00DF00BF00BF0B
:1001400008ED00E0EFF30980BFF36F8F0F4B1A68E3
:1001500020E9F00F106008B54FF0500080F31188CF
:10016000BFF34F8FBFF36F8F03F018F94FF000000C
:1001700080F31188BDE8084019680868B0E8F00FFE
:1001800080F30988BFF36F8F704700BF7C000020A9
:10019000EFF3058070470000064880470648004797
:1001A000FEE7FEE7FEE7FEE7FEE7FEE7FEE7FEE727
:1001B000FEE7FEE751180008ED000008202A04DBE6
:1001C000203A21FA02F00021704721FA02F3D040D0
:1001D000C2F12002914008431946704740EA0103EA
:1001E0009B0703D009E008C9121F08C0042AFAD2ED
:1001F00003E011F8013B00F8013B521EF9D27047B1
:10020000D2B201E000F8012B491EFBD27047002258
:10021000F6E710B513460A4604461946FFF7F0FF05
:10022000204610BD30B505462A460B4612F8010B94
:1002300013F8014B08B1A042F8D01CB1002802D03D
:100240006D1CF1E7284630BD421C10F8011B002947
:10025000FBD1801A70472DE9FE4F81EA030404F0B8
:10026000004421F0004100944FF0000B23F00043C4
:1002700050EA01045ED052EA03045BD0C3F30A548F
:10028000C1F30A552C44A4F2F3340194A0FB0254A8
:10029000C1F3130141F48011C3F3130343F480133A
:1002A00001FB024400FB034E840A970A44EA81548E
:1002B00047EA8357A4FB076802958D0A05FB07856B
:1002C0004FEA932C04FB0C542705029D4FEA065875
:1002D00047EA1637B5EB08056EEB070C870E920E52
:1002E00047EA811742EA8312A7FB0201B6EB0B0132
:1002F00064EB00042B0D43EA0C335E1844EB1C50F6
:10030000DA465146E7FB0201C5F313044FEA0B330B
:1003100043EA14534FEA0432019C43EA0603A4F172
:100320000C040294009CCDE900B400F0D6F803B0B0
:10033000BDE8F08F00200146F9E770B521F00043D9
:1003400003430CD0C1F30A550024D5EB040564EB3C
:100350000403D617AD1AB34102DB0020014670BD7D
:10036000201841EB025170BD0EB540F233410291AD
:100370000021CDE900110A460B4600F0AEF803B0AB
:1003800000BD00F0004220F00040C10DC0F3160097
:1003900040F400007F2901DA00207047962903DC31
:1003A000C1F19601C84001E096398840002AF4D096
:1003B0004042704701F0004330B421F0004150EA60
:1003C000010206D00A0DA2F56072C1F31301002AE2
:1003D00002DC30BC00207047440F44EAC104C10075
:1003E000E01830BC00EBC25000F031B82DE9F05FEE
:1003F0000546002092469B46884606468146402494
:100400001BE02846414647462246FFF7D7FE5346A3
:100410005A46C01A914110D311461846224600F0A0
:10042000BDF82D1A67EB01084F4622460120002136
:1004300000F0B4F817EB00094E41201EA4F10104AE
:10044000DFDC484631462A464346BDE8F09F002996
:10045000A8BF7047401C490008BF20F0010070474A
:1004600010B4B0FA80FC00FA0CF050EA010404BFAA
:1004700010BC704749B1CCF1200421FA04F411FA00
:100480000CF118BF012121430843A3EB0C01CB1D44
:100490004FEA00614FEA102042BF002010BC7047B5
:1004A00000EBC35010440029A4BF10BC7047401C8F
:1004B000490008BF20F0010010BC704710B5141EA1
:1004C00073F1000408DA401C41F1000192185B410D
:1004D0001A4301D120F0010010BD2DE9F04D9246E4
:1004E0009B4611B1B1FA81F202E0B0FA80F22032FB
:1004F000904600F053F804460F4640EA0A0041EAED
:100500000B0153465A46084313D0114653EA0100E3
:1005100019D0C8F140025046FFF750FE05460E467E
:1005200050465946424600F039F8084305D00120AC
:1005300004E020463946BDE8F08D0020054346EA38
:10054000E0762C4337430A986305E40AA0EB0800E1
:100550000022FD0A44EA47540A3002D50020014631
:10056000E9E7010510196941DDE90845001969410C
:10057000BDE8F04DA2E70000064C074D06E0E0683C
:1005800040F0010394E8070098471034AC42F6D3DA
:10059000FFF7B0FD5C3E00087C3E0008202A04DB2B
:1005A000203A00FA02F1002070479140C2F1200386
:1005B00020FA03F3194390407047FEE7014800F02A
:1005C0008DB800006C030020014800F087B80000DF
:1005D00028030020014800F081B80000E402002058
:1005E00030B590F840500124AC40C56B6C60046895
:1005F00063604368102B036803D099600068C26091
:1006000030BD9A600068C16030BD704701680A68FB
:1006100022F00E020A6001680A6822F001020A60F4
:1006200090F84020C36B012101FA02F25A6080F871
:100630002110002180F820100846704710B590F86E
:1006400021100024022903D00421816301243DE00C
:1006500001680A6822F00E020A6001680A6822F046
:1006600001020A601A4A0168914201D1012121E088
:10067000174A1432914201D110211BE0144A28324A
:10068000914201D1891515E0114A3C32914201D1C4
:1006900089140FE00E4A5032914202D14FF480315A
:1006A00008E00B4A6432914202D14FF4801101E01C
:1006B0004FF08071064A083A5160012180F82110FC
:1006C000002180F82010416B01B18847204610BD01
:1006D0000800024090F82100704700002DE9F05F0B
:1006E000C16B0C6801680B68D0F840C0042202FAA4
:1006F0000CF2494DDFF824A1494E4A4FDFF828B1EA
:10070000DFF828E122422CD05A072AD50A6892063F
:1007100003D40A6822F004020A600168A94201D1E8
:10072000042219E0514501D1402215E0B14202D125
:100730004FF4806210E0B94202D14FF480420BE0E6
:10074000594502D14FF4802206E0714502D14FF4A1
:10075000800201E04FF080622F4908394A60C16A87
:100760003BE04FF0020808FA0CF818EA040F4FF0CB
:1007700000094FF0010235D05FEA837832D50B686B
:100780009B0605D40B6823F00A030B6080F8212038
:100790000168A94201D1022219E0514501D120226C
:1007A00015E0B14202D14FF4007210E0B94202D11B
:1007B0004FF400520BE0594502D14FF4003206E0ED
:1007C000714502D14FF4001201E04FF0007212495E
:1007D00008394A6080F82090816A00291AD0BDE863
:1007E000F05F0847082505FA0CF5254212D01B07D3
:1007F00010D50B6823F00E030B6090F84010C36B0C
:1008000002FA01F15960826380F8212080F820907B
:10081000016BE2E7BDE8F09F080002401C000240C7
:100820003000024044000240580002406C00024088
:1008300030B548B308C8154914221944B1FBF2F188
:100840008900C16312498163022141771A6843F626
:10085000F0718A43D0E900142143D0E902452C43CA
:10086000214304692143446921438469214311439D
:100870001960002141628162C1620163416301220A
:1008800042770177084630BD012030BDF8FFFDBF3B
:100890000000024070B5044690F8200000250128B1
:1008A0000CD0012084F8200094F821600020012E53
:1008B00006D084F820000225284670BD022070BDB5
:1008C000022684F82160A0632068066826F00106ED
:1008D00006602046FFF784FEE06A00282068016871
:1008E00002D041F00E0106E021F004010160206811
:1008F000016841F00A0101602068016841F00101CE
:100900000160D9E72DE9F84FDFF890A100220AF144
:10091000040B144601274FF00F090BF1040E00BF22
:100920000B6807FA04F52B40AB4274D1DFF870C1B5
:100930004E68A6EB0C0866452BD00DDC032E34D098
:1009400005DC36B3012E19D0022E2FD11BE0112E5B
:1009500016D0122E2AD119E0B8F5881F19D006DC5E
:10096000B8F5803F15D0B8F5801F1FD111E0B8F55C
:10097000001F0ED0B8F5041F18D10AE0CA6815E0B0
:10098000CA68121D12E0CA6808320FE0CA680C3249
:100990000CE08A682AB1012A4FF0080203D04561B1
:1009A00004E0042202E0056100E00022FF2B01D8F0
:1009B000064601E000F104064FEA840501D9A5F1DD
:1009C0002005D6F800C009FA05F82CEA080C02FA4E
:1009D00005F54CEA050CC6F800C04D68ED0057D58A
:1009E000304DAE6946F00106AE61AD6924F00306F4
:1009F00005F0010500952C4D06EB050CDCF80850C0
:100A0000A6074FEA167809FA08F6B543274EB04212
:100A100002D1002610E03BE0254EB04201D1012674
:100A20000AE0244EB04201D1022605E0224EB04237
:100A300001D1032600E0042606FA08F62E43CCF87E
:100A400008604D68DAF80060ED03554601D51E4395
:100A500000E09E432E604D68DBF80060AD035D460C
:100A600001D51E4300E09E432E604D68DEF8006015
:100A7000ED02754601D51E4300E09E432E604D6891
:100A8000AD020E4D2E6801D51E4300E09E432E6040
:100A9000641C102CFFF444AFBDE8F88F0004014043
:100AA0000000111000100240000001400008014049
:100AB000000C014000100140001401400C040140F2
:100AC0000AB1016170470904FBE700000148806832
:100AD000704700004800002070B5040011D0216864
:100AE0004CF6CC400860216845F255500860D4E9C6
:100AF000000141602168A0688860FFF7E7FF0546B4
:100B000009E0012070BD00BFFFF7E0FF401B302867
:100B100001D9032070BD2068C0680028F4D1216885
:100B20004AF6AA200860002070BD00684AF6AA2193
:100B3000016000207047000002488168027811447B
:100B40008160704748000020074810B5016841F0F7
:100B500010010160032000F09DF80F2000F006F85E
:100B600000F024F8002010BD0020024070B50D4DAB
:100B700004464FF47A712878B1FBF0F00A4909680D
:100B8000B1FBF0F000F02CFB48B9102C07D200228A
:100B90002146501E00F05EF800206C6070BD012000
:100BA00070BD00004800002054000020214808B516
:100BB000816941F001018161816901F001010091C8
:100BC000C16941F08051C161C06900F0805000905E
:100BD000032000F05FF8002211466FF00B0000F0D8
:100BE00039F8002211466FF00A0000F033F80022B5
:100BF00011466FF0090000F02DF800221146501F39
:100C000000F028F800221146101F00F023F80022FF
:100C10000F21901E00F01EF800220F21501E00F040
:100C200019F80548416821F0E06141F00071416028
:100C300008BD0000001002400000014000F01F024B
:100C4000012191404009800000F1E020C0F800112E
:100C500070470000F0B40E4B1B680C46C3F3022330
:100C6000C3F10705042D00D90425191D072901D258
:100C7000002300E0DB1E012606FA05F1491E214093
:100C800099409E40761E16403143F0BC00F09BBD5B
:100C90000CED00E0064900F0070208684FF6FF037C
:100CA000184040EA0220034A1043086070470000E1
:100CB0000CED00E00000FA052DE9F047DFF83C817B
:100CC00005460E46D8F8000000F00700B0420CD2EE
:100CD000D8F8001021F007013143C8F80010D8F807
:100CE000000000F00700B04263D12878444C800730
:100CF00005D56068A96820F0F00008436060287896
:100D0000C00745D06868012816D02168022816D08F
:100D1000890700294DDA616821F003010143616010
:100D2000FFF7D4FE6968074641F2883001290FD0E9
:100D30000229814619D027E021688903E9E7890162
:100D4000E7E700BFFFF7C2FEC11B494501D918E024
:100D500081466068C0F381000128F3D118E000BF2C
:100D6000FFF7B4FEC11B49450BD86068C0F3810092
:100D70000228F5D10CE000BFFFF7A8FEC11B4945D2
:100D800002D90320BDE8F087606810F00C0FF3D1A2
:100D9000D8F80010404601F00701B1420BD90168B4
:100DA00021F0070131430160006800F00700B04204
:100DB00001D00120E6E72878400705D56068E9689A
:100DC00020F4E060084360602878000706D560687A
:100DD000296920F4605040EAC100606000F03CF8EE
:100DE0006168084AC1F30311515CC84006490860B4
:100DF0000F20FFF7BBFE0020C4E7000000200240E8
:100E000000100240C03D0008540000200148006866
:100E100070470000540000200448054900684968F4
:100E2000044AC1F30221515CC840704754000020BD
:100E300000100240D03D0008044805490068496898
:100E4000044AC1F3C221515CC840704754000020DD
:100E500000100240D03D000812A185B00FC98DE8F6
:100E60000F0014A0144A006804905168134801F060
:100E70000C03042B10D0082B0ED1C1F38343C903FC
:100E80001DF803000AD5516804AAC1F34041515C22
:100E90000A4A5043B0FBF1F005B070470849484397
:100EA000FAE7000002030405060708090A0B0C0D07
:100EB0000E0F1010010200000010024000127A0014
:100EC00000093D002DE9F84F04460078B94DC007F0
:100ED00048D06868C0F38100012807D06868C0F373
:100EE0008100022809D16868C00306D528688003FC
:100EF00038D5606800286FD034E06068B0F5803F76
:100F00000BD010B1B0F5A02F11D0286820F480309C
:100F10002860286820F4802002E0286840F48030AF
:100F20002860606888B1FFF7D1FD064609E02868AF
:100F300040F480202860F0E7FFF7C8FD801B64289C
:100F400075D828688003F7D50CE0FFF7BFFD06468B
:100F500005E000BFFFF7BAFD801B6428F0D82868C1
:100F60008003F7D42078944E80074FF001094FF0AA
:100F700000083BD5686810F00C0F07D06868C0F314
:100F80008100022809D16868C00306D42868800758
:100F900014D5206901281FD110E02069B0B1C6F82E
:100FA0000090FFF793FD074605E000BFFFF78EFDB9
:100FB000C01B0228C4D828688007F7D52868616953
:100FC00020F0F80040EAC10028600FE0C6F8008079
:100FD000FFF77CFD074606E0E9E000BFFFF776FD7E
:100FE000C01B022823D828688007F7D42078000780
:100FF0002CD57248A169D9B1C0F80090FFF766FD01
:10100000074604E0FFF762FDC01B02280FD8686A9C
:101010008007F7D56A484FF4FA510068B0FBF1F049
:10102000009000BF0098411E0091FAD20EE080E0CF
:10103000C0F80080FFF74AFD074604E0FFF746FDD1
:10104000C01B022875D8686A8007F7D4207840074B
:1010500060D5E8690027C00008D4E86940F08050F6
:10106000E861E869012700F0805000905548016868
:10107000C90513D40168834641F480710160FFF70C
:1010800025FD824606E000BFFFF720FDA0EB0A0029
:1010900064284ED8DBF80000C005F5D5E0680128CB
:1010A0000AD008B1052813D0286A20F00100286270
:1010B000286A20F0040002E0286A40F0010028625B
:1010C000E06841F2883B98B1FFF700FD82460BE0F3
:1010D000286A40F004002862EEE700BFFFF7F6FC44
:1010E000A0EB0A0159455AD8286A8007F6D50CE0CA
:1010F000FFF7ECFC824605E0FFF7E8FCA0EB0A01F5
:1011000059454CD8286A8007F6D41FB1E86920F009
:101110008050E861E06988B36968C1F38101022900
:1011200045D00228C6F8608004D0FFF7CFFC044603
:1011300038E034E0FFF7CAFC074604E0FFF7C6FCDE
:10114000C01B02282BD828688001F7D4206AB0F58C
:10115000803F05D16868A16820F4003008436860CA
:10116000D4E908010843696821F4741108436860F0
:10117000C6F86090FFF7AAFC044606E015E000BF41
:10118000FFF7A4FC001B022809D828688001F7D5C6
:101190000BE000BFFFF79AFC001B022802D90320D6
:1011A000BDE8F88F28688001F4D40020F8E701201A
:1011B000F6E7000000100240000042428004424274
:1011C00054000020007000404FF0E021042808691E
:1011D00003D020F004000861704740F00400FAE7F3
:1011E00010B5401EB0F1807F01D3012010BD4FF03B
:1011F000E02460610F21601700F0E5FA0020A06193
:1012000007202061002010BD10B504460068416928
:1012100094F83920C1F3C011212A0BD151B1416991
:1012200021F080014161206B08B1FFF7EFF9204602
:1012300000F0ACFB2068416994F83A20C1F38011BA
:10124000222A0BD151B1416921F040014161606B0B
:1012500008B1FFF7DBF9204600F08AFB002010BD43
:1012600000680549884205D104491822A1F5E070BB
:1012700000F0D0B97047000000380140880200201B
:1012800070B5026804461068D168536910F00F0FFA
:1012900050D003F0010501F4907635435DD0C207CC
:1012A00005D0CA0503D5E26B42F00102E2634207B2
:1012B00005D5DA0703D0E26B42F00202E26382074F
:1012C00005D5DA0703D0E26B42F00402E2630207BD
:1012D00005D5DA0703D0E26B42F00802E263E26B65
:1012E000002A33D0800604D5880602D5204600F0B7
:1012F00056FB20684069E16BC0F38010090700D4F9
:1013000028B3204600F034FB2068416949061AD50D
:10131000416921F040014161606BA0B11B4941630B
:10132000606BFFF78BF9002810D0606B416BBDE854
:1013300070400847830610D58B060ED52046BDE8C1
:10134000704000F02CBB2046FFF78AFF70BD20469E
:10135000FFF786FF0020E06370BD030606D50B068D
:1013600004D52046BDE8704000F01CBC4006F3D513
:101370004806F1D5D168204621F04001D1602021F6
:1013800084F8391000F01AFA70BD000099180008AE
:1013900070B5040004D094F83900002510B106E0BF
:1013A000012070BD84F83850204600F023F8242036
:1013B00084F839002068C16821F40051C1602046DA
:1013C00000F038FB2068016921F490410161206838
:1013D000416921F02A0141612068C16841F400514E
:1013E000C160E563202084F8390084F83A000020C9
:1013F00070BD00002DE9F041064603684F48DFF854
:1014000038C102210322DFF8388105150024802726
:1014100086B063452AD1836943F480438361806940
:10142000039200F4804004900802CDE9000169466F
:101430004046FFF767FACDE90054694640460294FA
:10144000FFF760FA404D3F48C5E90004C5E902478F
:101450002C616C61AC612846EC61FFF7E9F918B1C9
:1014600099213AA000F082FC756363E0DFF8F8C0D0
:1014700063451AD1C36943F40033C361C069039261
:1014800000F4003004900420CDE900016946404694
:10149000FFF738FA0820CDE9000469464046029477
:1014A000FFF730FA06B0BDE8F081DFF8C0C0634551
:1014B000F8D1C36943F48023C361C069CDE9005109
:1014C00000F48020CDE90320294D69462846FFF726
:1014D00019FAE814CDE90004694628460294FFF79A
:1014E00011FA1848234D2838C5E90004C5E9024718
:1014F0002C616C61AC612846EC61FFF799F918B179
:10150000DE2112A000F032FC75636E620D481A4DA8
:101510003C3801C5102091C5174845F810496C6149
:10152000AC61EC61FFF784F918B1EE2107A000F07F
:101530001DFC35636E62B5E70038014000100240C3
:101540000008014058000240E40200202E2E2F53D4
:1015500072632F73746D3332663178785F68616CB3
:101560005F6D73702E63000000440040004800402F
:10157000000C0140280300206C030020F8B504464D
:1015800090F83A0020283CD1C1B3BAB394F838009F
:10159000012836D0012084F83800A162A2850025F8
:1015A000E563222084F83A00636B17489862636B06
:1015B0001648D862636B16481863606B1346456320
:1015C0000846666B216802463046091DFFF762F93E
:1015D000206801684168009184F83850C16841F47E
:1015E0008071C1602068416941F00101416120685A
:1015F000416941F0400141610020F8BDFFE7012051
:10160000FBE70220F9E70000F31800082F19000893
:10161000A918000890F83A30202B22D1F9B1F2B184
:1016200090F83830012B1CD081628285C285002160
:10163000C163222280F83A2080F838100168CA6815
:1016400042F48072CA6001684A6942F001024A614C
:101650000068C16841F02001C1600020704701208E
:10166000704702207047000000680349884202D199
:1016700002490120487070470038014000000020F6
:1016800070472DE9F843044690F839001F46164686
:101690000D46202850D1A5B19EB194F838000128FC
:1016A0004AD0012084F838004FF00008C4F83C808C
:1016B000212084F83900FFF709FAA6848146E684E0
:1016C00026E00120BDE8F883E08C401EE084A0689D
:1016D0004B46B0F5805F4FF000024FF0800120468E
:1016E000009703D000F08FFAE8B90DE000F08BFA14
:1016F000C8B928882168C0F308004860206908B18B
:101700006D1C05E0AD1C03E0216815F8010B486075
:10171000E08C0028D8D14B4600224021204600977B
:1017200000F071FA08B10320CCE7202084F83900DA
:1017300084F838800020C5E70220C3E770B504466E
:1017400090F83900202830D169B362B394F838009A
:1017500001282AD0012084F838002162A284E28482
:101760000025E563212084F83900236B1048986236
:10177000236B1048D862236B0F481863206B134605
:1017800045632668206B321DFFF784F821686FF0EF
:101790004000086084F838502068416941F08001B9
:1017A0004161002070BD012070BD022070BD0000AD
:1017B0003919000867190008A91800087047704710
:1017C000FEE7FEE770470907090E002806DA00F079
:1017D0000F0000F1E02080F8141D704700F1E020B8
:1017E00080F80014704710B5FFF7A6F9BDE8104067
:1017F00000F030BE10B590B00A2000900120002407
:10180000CDE906041021CDE904016846FFF75AFB33
:1018100000B1FEE70F20CDE90A040C940D940021DD
:101820000AA80E94FFF748FA00B1FEE7FFF7EEFAB8
:101830004FF47A71B0FBF1F0FFF7D2FC0420FFF710
:10184000C3FC00220F21501EFFF704FA10B010BD98
:101850000D48016841F00101016041680B4A1140E7
:10186000416001680A4A11400160016821F4802149
:101870000160416821F4FE0141604FF41F01816065
:101880000449C00308607047001002400000FFF8E0
:10189000FFFFF6FE08ED00E010B5406A0021C185AB
:1018A000C184FFF7DDFC10BD70B5446A2068406953
:1018B00094F83910C0F3C0100025212904D118B1C3
:1018C000E584204600F062F82068406994F83A10F8
:1018D000C0F38010222904D118B1E585204600F01C
:1018E00047F8E06B40F01000E0632046FFF7B8FCDB
:1018F00070BD10B50146406A09680968890613D4AD
:101900000021C1850168CA6822F48072CA6001683A
:101910004A6922F001024A6101684A6922F04002E4
:101920004A61202180F83A10FFF79EFE10BD10B5E5
:10193000406AFFF7A5FE10BD10B50146406A096870
:10194000096889060CD40021C18401684A6922F023
:1019500080024A610068C16841F04001C16010BD69
:10196000FFF72CFF10BD10B5406AFFF728FF10BD30
:101970000168CA6822F49072CA6001684A6922F05C
:1019800001024A61202180F83A1070470168CA6854
:1019900022F0C002CA60202180F83910704710B5CB
:1019A00090F83A10222901D0022010BD8168B1F5CB
:1019B000805F11D00169002901681FD0496801F0DA
:1019C0007F03816A4A1C82620B70C18D491E090423
:1019D000090CC18518D02BE00269816A002A0268CF
:1019E000526805D0D2B20A80816A491C8162ECE754
:1019F000C2F308020A80816A891CF7E74A68816A93
:101A00004B1C83620A70E0E70168CA6822F020027A
:101A1000CA600168CA6822F48072CA6001684A69B3
:101A200022F001024A61202180F83A10FFF71CFEE3
:101A3000002010BD2DE9F041044600680169E2680C
:101A400021F44051114301612169A0680843616993
:101A500008432168CA6841F20C639A430243CA6092
:101A600020684169A26921F44071114341614C49E8
:101A700020686425322688423CD1FFF7DDF900EB6F
:101A8000C00101EB001061688900B0FBF1F7FFF7BE
:101A9000D3F900EBC00101EB00106168B04689008A
:101AA000B0FBF1F0B0FBF5F06FF01801484307EB25
:101AB000800106EB0110B0FBF5F000F0F006FFF737
:101AC000BBF900EBC00101EB001061688900B0FBBD
:101AD000F1F0B0FBF5F006EB0016FFF7ADF900EB07
:101AE000C00101EB001061688900B0FBF1F7FFF75E
:101AF000A3F93BE0FFF790F900EBC00101EB001008
:101B000061688900B0FBF1F7FFF786F900EBC001CF
:101B100001EB00106168B0468900B0FBF1F0B0FB4A
:101B2000F5F06FF01801484307EB800106EB011058
:101B3000B0FBF5F000F0F006FFF76EF900EBC00126
:101B400001EB001061688900B0FBF1F0B0FBF5F02B
:101B500006EB0016FFF760F900EBC00101EB001087
:101B600061688900B0FBF1F7FFF756F900EBC0019F
:101B700001EB001061688900B0FBF1F0B0FBF5F0FB
:101B80006FF01801484307EB800108EB0110B0FB30
:101B9000F5F0216800F00F0030448860BDE8F08166
:101BA0000038014090F83910212901D002207047F7
:101BB0008168B1F5805F016A0BD04A1C026202683D
:101BC00009785160C18C491E0904090CC1840ED0EA
:101BD00017E009880268C1F3080151600169002912
:101BE000016A02D0491C0162ECE7891CFBE701682D
:101BF000CA6822F08002CA600068C16841F04001F2
:101C0000C160002070472DE9F041984617460E4606
:101C10000446069D1DE0681C1BD02DB1FEF756FF43
:101C2000A0EB0800A84214D92068C16821F4D07143
:101C3000C1602068416921F001014161202084F8E0
:101C4000390084F83A00002084F838000320BDE809
:101C5000F0812068006836EA000004D00020B84215
:101C6000D9D00020F3E70120F9E700000148FFF791
:101C700007BB0000C8000020064810B500680068D7
:101C8000C00602D5034800F009F8BDE8104001483D
:101C9000FFF7F6BA48010020FEE70000F8B501683A
:101CA00004460868C043C00641D4214881423ED161
:101CB000086848680090086848681E4800684068DE
:101CC00086B22046FFF7A0FA1B4D287850B9C6F11E
:101CD000800082B219481A4902801A48FEF77EFA3B
:101CE0000120287018A11748FEF79CFA174D28B15B
:101CF000144917A000F03CF8012209E019A111488D
:101D0000FEF790FA40B10F4911A000F031F800221F
:101D100020212846FEF7D4FE80210948FEF777FAF5
:101D20002046BDE8F84080220549FFF727BCF8BDF2
:101D3000004800402803002000000020440000204C
:101D400088010020080200203A6F6E00000C01405C
:101D5000496E69742052656365697665643A2573D6
:101D60000D0A00003A6F666600000000FEE7000002
:101D70000FB4054B10B503A9044A029800F018F8F7
:101D800010BC5DF814FB0000A5200008B80000207E
:101D900002E008C8121F08C1002AFAD17047704734
:101DA000002001E001C1121F002AFBD17047000092
:101DB0002DE9FF4F8DB09B460F460446002606E0F6
:101DC00025280BD05A460F999047641C761C207822
:101DD0000028F5D111B03046BDE8F08F0025A846A7
:101DE0000122984900E0054314F8013F203B02FA24
:101DF00003F00842F7D120782E2817D114F8010FEC
:101E000045F004052A280ED06FF02F022078A0F1AB
:101E1000300109290AD808EB880102EB410100EBE7
:101E20000108641CF2E757F8048B641C20786C28C6
:101E30000DD004DC4C2812D06A2811D104E074289B
:101E40000DD07A280CD10AE045F4001507E061783E
:101E500045F48015814202D1641C05F58015641C8F
:101E60002278692A45D008DC002AB3D0582A69D0E4
:101E7000632A10D0642A08D13BE0702A67D0732A05
:101E800013D0752A5CD0782A5CD010465A460F9938
:101E90009047761CD3E017F8040B8DF80000002063
:101EA0008DF80100E946012003E057F8049B4FF04C
:101EB000FF3069074FF0000501D40AE06D1C45456D
:101EC0000DDA8542FADB19F805100029F6D106E093
:101ED0006D1C8542FCDB19F805100029F8D12E4451
:101EE00004E019F8010B5A460F9990476D1EF8D27D
:101EF000A5E00A200021CDE90801C5F3025002281F
:101F00000DD001CFC117031E71F100030DDA4FF0A0
:101F1000000CD0EB0C006CEB01012D2308E0FF1D41
:101F200027F00707F7E80201EDE72B0504D52B237F
:101F30008DF8283001233BE0EB0739D02023F7E769
:101F40000A2000E010200021CDE9080107E0102060
:101F5000002145F00405CDE908014FF00808C5F35C
:101F6000025002280FD001CF00214FF0000A2B07AA
:101F70001FD5702A0DD0DDE908C38CF0100C5CEA87
:101F8000030C0CD015E0FF1D27F00707F7E802014E
:101F9000EBE740228DF828204FF0010A0BE050EAD1
:101FA000010306D030238DF828308DF82920022334
:101FB0009A46582A04D024A20DF120090B9209E078
:101FC00026A2F9E7DDE90823FEF710FA0B9B9B5CDC
:101FD00009F8013D50EA0102F4D1ADEB09002030CF
:101FE0000890680701D44FF001080899884502DD80
:101FF000A8EB010000E000208046002506E00AA8CA
:102000005A46405D0F9990476D1C761C5545F6DB8E
:1020100004E030205A460F999047761CB8F1000131
:10202000A8F10108F5DC05E019F8010B5A460F99F3
:102030009047761C0899481E08900029F4DC641C1F
:10204000C5E6000009280100303132333435363717
:1020500038396162636465660000000030313233F4
:102060003435363738394142434445460000000094
:1020700070B50C4605460948FEF72CFB0228FAD03D
:1020800006480168086820F001000860A2B22946ED
:10209000BDE870400248FFF751BB00006C03002010
:1020A0004801002013B54FF6FF730122694602482C
:1020B000FFF7E7FA00981CBD08010020EFF3058048
:1020C000002800D00120704796B0FEF73DFDFFF7D5
:1020D00091FB6F4DA86940F00400A861A86900F069
:1020E00004001490A86940F00800A861A869694E2E
:1020F00000F008001490012220213046FEF7E0FC99
:102100002020009001200024CDE90104022003904A
:1021100069463046FEF7F6FB686940F001006861E9
:102120006869002200F00100009005210C20FEF7F4
:1021300091FD0C20FEF782FD002205210D20FEF707
:1021400089FD0D20FEF77AFD002205210F20FEF704
:1021500081FD0F20FEF772FD50484F494FF4E137E3
:102160000160C0E901740C26C460C0E904468461C2
:10217000C461FFF70DF900B1FEE7484D484840350E
:102180002860C5E90174EC60C5E90446AC612846E5
:10219000EC61FFF7FDF800B1FEE7404841494038E7
:1021A00001604FF49651C0E90114C460C0E90446CF
:1021B0008461C461FFF7ECF800B1FEE737483A49A3
:1021C0004C38C0E9001440F6FF718160FEF784FCD2
:1021D00000B1FEE7002207212520FEF73BFD252068
:1021E000FEF72CFD002205212720FEF733FD2720D6
:1021F000FEF724FD29484C38FEF76EFC2BA0FFF7B4
:10220000B7FD32A0FFF7B4FD37A23AA13CA0FFF71B
:10221000AFFD224980228031A1F14000FFF7AEF9E5
:1022200000B1FEE72868C16841F01001C1603A4979
:102230001822A1F5E070FFF7EDF9012113A813941E
:1022400000F098F8354C14223549A06104A8FDF738
:10225000C5FF002104A800F007F93149E06014220D
:10226000143109A8FDF7BAFF002109A800F0FCF815
:102270002B492061142228310EA8FDF7AFFF002161
:102280000EA800F0F1F8606100F06FF8FEE70000C2
:1022900000100240000C01400044004008010020F2
:1022A0000048004000380140003000407369636816
:1022B00075616E20756E69766572736974792077C1
:1022C000736E206C61620D0A0000000070726F6A0C
:1022D00065637420706F776572706C7567207631F6
:1022E0002E300D0A0000000032313A35393A3134CF
:1022F000000000004E6F762031332032303138003C
:10230000636F6D70696C6520646174653A20257334
:102310002025730D0A000000880200200000002024
:10232000843D000801460020842900D0C81C704765
:1023300010B50446014606A0FFF71AFD2046FDF73A
:1023400083FF01462046BDE81040FFF791BE000024
:1023500053656E743A25730D0A00000010B500B97C
:10236000012000F047FF002010BD10B500F0DAFF9B
:10237000002010BD10B5012901D0002010BD03229E
:102380000021012001F0D8F8040004D000231A46EF
:10239000194601F0EFF9204610BD000038B50024C1
:1023A00005460094FFF78AFE90B16946284601F081
:1023B00091FA012801D0FF2038BD009888B10A4960
:1023C0004FF080500860BFF34F8FBFF36F8F08E06E
:1023D00000231A461946284601F0CCF9012800D0FE
:1023E000FF24204638BD000004ED00E038B50500AC
:1023F0004FF0000000900FD00024481C0ED001B117
:102400000C46FFF75BFEB8B16A460021284601F092
:10241000AFFA012818D104E0802038BD4FF0FF3416
:10242000EFE7009890B10A494FF080500860BFF381
:102430004F8FBFF36F8F09E00023224619462846CD
:1024400001F09EF8012801D0FF2038BD002038BDE2
:1024500004ED00E010B501F03BFB012803D0BDE81E
:10246000104001F053B810BD3EB504460D46B0F91A
:102470000800FFF757FF02A9CDE90001208A2B468B
:1024800082B2D4E9001001F0F7FA012801D000204F
:102490003EBD02983EBD00002DE9F041184C0F46AC
:1024A0000546E6682068001D00F0C4FD38B92068C4
:1024B00090F82C1001208840216981432161681C1B
:1024C00007D137B12168BDE8F0410E48091D00F081
:1024D000E9BD20683544B5424560216805D2A06B4E
:1024E000BDE8F041091D00F0C5BD606B091D00F09D
:1024F000C1FDA06A854200D2A562BDE8F08100005E
:102500007C0000208C1000202DE9F041054600F0F1
:10251000D5FD2E4CA068401CA06020682C4F10B147
:10252000606940B32DE02560A068012829D100260C
:1025300006EB860007EB800000F08EFD761C072E70
:10254000F6D323488C3000F087FD2148A03000F0FE
:1025500083FD1F48B43000F07FFD1D48C83000F0F7
:102560007BFD1B48DC3000F077FD19488C30606340
:102570001430A06305E02068E96AC06A884200D888
:102580002560606A401C6062E96A01202269884017
:102590001043206101EB810007EB8000291D00F052
:1025A00081FD00F0ABFD606900280CD02068E96A6D
:1025B000C06A884207D207494FF080500860BFF3D5
:1025C0004F8FBFF36F8FBDE8F08100007C000020CB
:1025D000B00F002004ED00E070B5114E114C17E073
:1025E00000F0D4FE3068B8B101F06AFB00F066FD7F
:1025F000F068C568281D00F01DFDA068401EA060A1
:102600006068401E606000F079FD284600F055F8D3
:1026100060680028E4D170BD01F052FBF8E70000CB
:10262000781000207C00002030B4026C0B46002A99
:102630000BD0C1681144C1604468A14201D3016854
:10264000C16030BC1846FDF7C9BD30BC70472DE9EC
:10265000F041856B174604460026026C82B1C7B173
:10266000E068FDF7BBFDE168206C091AE1602268B3
:10267000914202D26168081AE060022F16D017E07A
:102680002068A8B9606801F095FA064600206060ED
:102690000EE0A068FDF7A2FD216CA0680844A060D0
:1026A0006168884204D32068A06001E005B16D1E16
:1026B0006D1CA5633046BDE8F08110B50446006B83
:1026C00000F030FD2046BDE8104000F02BBD0000BA
:1026D00010484FF44061420706D0C01D0D4920F05C
:1026E0000700411AC1F540610B4A00230144C2E9C9
:1026F00000030839103A21F0070111604B600B60AC
:102700000B1AC0E9001393604FF000405360D06093
:1027100070470000B003002068000020074C4FF015
:102720008056074DFFF758FF20680128FAD92E6020
:10273000BFF34F8FBFF36F8FF4E70000B00F00209F
:1027400004ED00E02DE9F0479A46DDE90984814671
:102750006FF00303206B03EB82021044089D20F00E
:102760000706700707D0502080F31188BFF34F8F02
:10277000BFF36F8FFEE723180A5C83F834200A5CEE
:1027800012B1401C1028F6D3002784F84370072D9F
:1027900000D30625E562C4E91157201D00F067FC4F
:1027A00004F1180000F063FC2461C5F107006462C5
:1027B000A061E76484F8507052464946304600F004
:1027C0000FF92060B8F1000F01D0C8F80040BDE853
:1027D000F087000030B5114900E011460A688242D6
:1027E000FBD34B685C18844203D1406818444860AE
:1027F000084643681C18944209D1084C103C2468D0
:10280000A24209D052681A4442600A681268026003
:10281000814200D0086030BD0460F9E76800002004
:1028200010B5044600F04AFCA06B28B15FF000042C
:1028300000F064FC204610BD0124F9E70648416B16
:10284000096829B1416BC968C968496881627047E4
:102850004FF0FF31FAE700007C0000200848406894
:10286000401C4FF0500080F3118804D0BFF34F8F0D
:10287000BFF36F8FFEE7BFF34F8FBFF36F8FFEE79E
:10288000700000202DE9F041044600F017FC94F997
:10289000455004F1240609E0606A48B1304601F071
:1028A000D5F908B100F0CCFC6D1E6DB2002DF3DC43
:1028B0004FF0FF3684F8456000F020FC00F0FEFB8E
:1028C00094F9445004F1100709E0206948B13846F2
:1028D00001F0BCF908B100F0B3FC6D1E6DB2002D23
:1028E000F3DC84F84460BDE8F04100F007BC000070
:1028F0002DE9F0410546002700F048FD314E3068D3
:1029000008B9FFF7E5FEF06805424BD1C5B30835BD
:1029100068070ED005F00700C0F1080005446807FD
:1029200007D0502080F31188BFF34F8FBFF36F8F14
:10293000FEE72DB37068854234D822481030014636
:102940000C6801E020460C466168A94202D2216869
:102950000029F7D131688C4224D0076821680160D2
:1029600060680837411B10290FD96019420708D049
:10297000502080F31188BFF34F8FBFF36F8FFEE7B6
:1029800010E041606560FFF725FF61687068401ADC
:102990007060B268904200D2B060F06801430020DD
:1029A000C4E9000101F08CF9780707D0502080F3CA
:1029B0001188BFF34F8FBFF36F8FFEE73846BDE836
:1029C000F0810000580000200449086818B1086828
:1029D000826C521C82640868704700007C000020F2
:1029E00010B5031F4FF080741C601B1F21F0010104
:1029F0001960191F024B0B60143940380A6010BD72
:102A00005D280008A8B0A54C0DF16C0A4FF0050B2D
:102A10000027A348FEF789F860780128F9D167708C
:102A200000F04CFB18229F491BA8FDF7D7FB0020A4
:102A300051460A5C552A04D10A1852785A2A00D104
:102A40000546401C1828F4DBC5F118020AEB050105
:102A500021A8FDF7C3FB21A828442A461BA9FDF79E
:102A6000BDFB182221A91BA8FDF7B8FB18221BA942
:102A700015A8FDF7B3FB00F041FB761CB6B20A2E99
:102A800061D9002688A0A168FFF772F9A0684845BF
:102A900002D108F1010100E00021814688469DF83D
:102AA00080000DF1440C9DF883309DF882209DF844
:102AB00081108CE80F009DF87C000DF1340C9DF81E
:102AC0007F309DF87E209DF87D108CE80F009DF8EA
:102AD00078000DF1240C9DF87B309DF87A209DF84C
:102AE00079108CE80F009DF874000DF1140C9DF81E
:102AF00077309DF876209DF875108CE80F009DF8D2
:102B000070000DF1040C9DF873309DF872209DF853
:102B100071108CE80F009DF86F0000909DF86E30EA
:102B20009DF86D209DF86C106548FFF721F9B8F10C
:102B3000050F08DDA068052801DC401CA060062800
:102B400006D00120A0709DF85400552803D094E0D1
:102B5000C4F808B0F5E79DF855005A287ED19DF8D5
:102B6000560002287AD19DF85700E32876D15548BF
:102B70009DF858104318E3619DF85900C0EB0041DF
:102B80009DF85A00C0EB002008449DF85B100844F3
:102B900020629DF85C10B3FBF0F0C1EB01429DF8A0
:102BA0005D10C1EB012111449DF85E20114461626A
:102BB00001919DF85F10C1EB01429DF86010C1EBDF
:102BC000012111449DF861200A44A2629DF862101F
:102BD0000092C1EB01429DF86310C1EB0121114449
:102BE0009DF864201144E1629DF86510C1EB01423B
:102BF0009DF86610C1EB012111449DF86720114436
:102C00002163FDF7B1FB304A304BFDF724FBFDF7A4
:102C1000D1FB6063FDF7B5FBA063DDE90012029014
:102C2000B2FBF1F0FDF7A0FB4FF0FF32FDF785FBA3
:102C3000FDF7C0FBE063FDF7A4FB1A4920644431B3
:102C4000029800F0D9FB1749206C4F3100F0D4FBFB
:102C5000144909224431A1F1140000E00DE0FDF710
:102C6000BDFA1048343050F81B1F40F8161C41685C
:102C700040F8121C0B483030C774A078012803D1EB
:102C8000A770A069FFF78AFB6420FFF767FB05497F
:102C90001822A1F5E070FEF7BDFCBAE600000020A6
:102CA000BC000020880200206E65745F737461743C
:102CB000655F6D616368696E653D25640D0A00009E
:102CC000D83D00081BE2020014AE47E17A14FE3F33
:102CD0002C4CA069FFF762FB4FF0FF353220FFF765
:102CE0003DFB2948FDF721FF2946A069FFF77EFB40
:102CF000A06810B925A0FFF71BFBA068012802D12E
:102D000027A0FFF715FBA068022802D12DA0FFF72E
:102D10000FFBA068032802D135A0FFF709FBA068CC
:102D2000042802D136A0FFF703FBA068052802D1D2
:102D300035A0FFF7FDFAA068062803D11421364814
:102D4000FFF796F9A068072805D134A0FFF710F81F
:102D500034A0FFF7EDFAA06808280BD12E4835A162
:102D6000001D0988A0F81B10722141770B211B3030
:102D7000FFF77EF9A0680928B0D12FA0FFF7D8FA95
:102D8000ACE7000000000020BC00002041542B43B1
:102D9000574D4F44455F4445463D310D0A00000004
:102DA00041542B43574A41505F4445463D22777377
:102DB0006E343035222C2277736E34303534303512
:102DC000220D0A0041542B43495053544152543D63
:102DD00022544350222C223132302E37382E3134B7
:102DE000392E313234222C393939390D0A0000009C
:102DF00041542B43495053454E443D370D0A000082
:102E000068656C6C6F0D0A0041542B434950534563
:102E10004E443D32300D0A00B80200207768793FF9
:102E20000000000041542B43495053454E443D316E
:102E3000310D0A006375720041542B43574A4150CB
:102E40003F0D0A0001260025634C4FF4FA68052760
:102E50003220FFF783FA20780128F9D125705FA18D
:102E60006048FDF7DFF950B180215E48A560FDF7AD
:102E7000CEF94046FFF772FAA069FFF78FFAA06813
:102E8000B8B1012825D0022837D0032850D0042813
:102E900055D005285BD0062865D0072878D00828AB
:102EA0007DD00928D4D150A14E48FDF7BBF948BBCD
:102EB00088E04C494DA0A660FEF75AFF80214948A2
:102EC000FDF7A5F94046FFF749FAA069FFF766FA52
:102ED000BEE745A14348FDF7A5F928B947A14148F8
:102EE000FDF7A0F900286DD00220A06080213D48A8
:102EF000FDF78DF94FF47A6061E03BA13948FDF7A9
:102F000091F928B1A76029E0A069FFF747FA59E0D5
:102F100032A13448FDF786F928B93AA13148FDF7C6
:102F200081F900284ED03CA0FEF722FFA56041E0C9
:102F30002DA12C48FDF776F948B304200DE02AA115
:102F40002848FDF76FF90028DCD138A1ACE726A1AD
:102F50002448FDF767F9D0B10620A0608021214800
:102F6000FDF755F9D0E720A11E48FDF75BF920B920
:102F70002EA11C48FDF756F948B180211948A760D9
:102F8000FDF745F94FF47A7019E001E007E019E028
:102F900015A11448FDF746F9A0B10820DDE712A1FC
:102FA0001048FDF73FF920B920A10E48FDF73AF986
:102FB00040B1A76080210B48FDF729F94046FFF793
:102FC000CDF9A1E7074909A0FEF7D2FE8021054807
:102FD000FDF71DF93CE70000000000204552524F6C
:102FE00052000000080200204F4B0000526563654C
:102FF000697665643A25730D0A0000005749464911
:10300000000000006C696E6B206973206E6F742085
:1030100076616C696400000074637020636F6E6E8B
:10302000656374206572726F720D0A005265637673
:1030300000000000D0E9013201699A60D0E9012363
:103040005A604A68824201D182684A600022026165
:103050000868401E0860704700F108014FF0FF3219
:10306000C0E90112C16001610021016070470021C7
:103070000161704730B50B685A1C02D000F108029C
:1030800002E0026904E02246546825689D42FAD9AC
:1030900053684B6099608A60516008610168491CFF
:1030A000016030BD42684A6093688B6093685960E4
:1030B000916008610168491C01607047502080F3ED
:1030C0001188BFF34F8FBFF36F8F0A494868401CC8
:1030D000486001280CD10848006810F0FF0F07D0A5
:1030E000502080F31188BFF34F8FBFF36F8FFEE73F
:1030F000704700007000002004ED00E008494868B7
:1031000028B1401E486001D180F3118870475020DB
:1031100080F31188BFF34F8FBFF36F8FFEE700007E
:103120007000002070B5002827D0144DA0F10804CD
:103130006168E868014207D1502080F31188BFF32D
:103140004F8FBFF36F8FFEE722683AB1502080F3B4
:103150001188BFF34F8FBFF36F8FFEE7814361602C
:1031600000F014F960686968084468602046FFF759
:1031700031FBBDE8704000F0A3BD70BD58000020D9
:1031800006484FF47A710068B0FBF1F14FF0E0208F
:10319000491E416107210161704700005400002071
:1031A00010B5FCF7F5FF114910280ED300F1E0200F
:1031B00090F8F0030A78904207D2502080F31188EB
:1031C000BFF34F8FBFF36F8FFEE709480068896830
:1031D00000F4E060884207D9502080F31188BFF3E3
:1031E0004F8FBFF36F8FFEE710BD0000700000200F
:1031F0000CED00E010B5020014D00F48006B38B1A0
:10320000502080F31188BFF34F8FBFF36F8FFEE71D
:1032100000F0BCF800211046FFF73EF900F050FD29
:10322000002807D105494FF080500860BFF34F8F49
:10323000BFF36F8F10BD00007C00002004ED00E0A4
:1032400001490120C86170477C00002010B50C4680
:1032500050B1094909681831FFF70CFF2046BDE855
:1032600010400121FFF718B9502080F31188BFF3F7
:103270004F8FBFF36F8FFEE77C00002070B5040016
:1032800039D01D4DE06A2968C96A884233D2A069E5
:10329000002804DB2868C06AC0F10700A061E16A69
:1032A000164E01EB8101606906EB810188421FD156
:1032B000201DFFF7BFFE012150B9E06A00EB80023C
:1032C00056F8222022B92A6901FA00F082432A61C5
:1032D0002868C06AE0622A6981401143296100EBD5
:1032E000800006EB8000211DBDE87040FFF7DABECC
:1032F0002868C06AE06270BD7C000020B00F00202A
:1033000028B107490A6A0260C968416070475020C5
:1033100080F31188BFF34F8FBFF36F8FFEE700007C
:103320007C0000201CB515480024CDE90040234650
:10333000802213A1144800F09FFB012809D0401CF3
:103340001AD1502080F31188BFF34F8FBFF36F8FD6
:10335000FEE7502080F31188BFF34F8FBFF36F8FCC
:1033600006484FF0FF312C38816201214161C46071
:10337000BDE81C4000F090B81CBD0000A800002073
:1033800049444C45000000001D2700080248016B1D
:10339000491C0163704700007C0000201448016B49
:1033A00011B10121C16170470021C1610169B1FA08
:1033B00081F1C1F11F0101EB81020E4951F8223068
:1033C0006BB101EB820101F108034A6852684A605F
:1033D0009A4201D152684A60D1680160704750201A
:1033E00080F31188BFF34F8FBFF36F8FFEE70000AC
:1033F0007C000020B00F002042F2107290FBF2F32C
:1034000070B5002B44D190FBF2F3224A53BB4FF42A
:103410007A7390FBF3F43034D47090FBF3F403FB35
:103420001403642493FBF4F693FBF4F3302516B1F4
:103430003033137101E003B9157190FBF4F304FB11
:1034400013030A2493FBF4F693FBF4F316B1303321
:10345000537101E003B9557190FBF4F304FB1300C1
:1034600030309071762008706F2048706C20887022
:103470003A20C870D07808711079487150798871F5
:103480009079C8712C200872202048720020887220
:1034900070BD0000000000201CB51949087801909B
:1034A000FF20087008788DF800009DF80000154A8C
:1034B00000F0500010700720906005E09DF800308B
:1034C0005B008DF80030401E9DF800301B06F5D4DF
:1034D000000200F4E0609060019808700A480168FA
:1034E00041F470010160016841F070410160FFF733
:1034F00047FE00205060FCF715FE00201CBD0000B8
:1035000000E400E07000002020ED00E010B5502045
:1035100080F31188BFF34F8FBFF36F8F00F0E6FA8F
:1035200018B104494FF080500860002080F31188E2
:1035300010BD000004ED00E070B50E46050013D08C
:10354000D6B105FB06F04830FFF7D2F9040009D0E8
:1035500004F1480120468EB10160C0E90F560121F7
:1035600000F0C4F8204670BD502080F31188BFF3EE
:103570004F8FBFF36F8FFEE70020E4E70060ECE7BA
:103580002DE9FF4F002683B09B468A46040003D0F6
:10359000BAF1000F08D011E0502080F31188BFF37A
:1035A0004F8FBFF36F8FFEE7206C38B1502080F350
:1035B0001188BFF34F8FBFF36F8FFEE700F088FADB
:1035C000DFF824814FF000094FF0805748B9059883
:1035D00038B1502080F31188BFF34F8FBFF36F8F46
:1035E000FEE7FFF76BFDA56B45B351462046E66845
:1035F000FFF71AF8BBF1000F13D0E660606A50B114
:1036000004F1240000F022FB28B1C8F80070BFF3D9
:103610004F8FBFF36F8FFFF771FD012007B0BDE83B
:10362000F08F6D1EA563206810B9FFF7CDF96060BB
:1036300020690028EFD004F11000E3E7059808B1F5
:103640001EB106E0FFF75AFD27E06846FFF758FE77
:103650000126FFF753FDFFF799FEFFF72FFD94F9C1
:103660004400401C01D184F8449094F94500401C6A
:1036700001D184F84590FFF741FD05A9684600F0A7
:10368000C5F9002820460AD0FFF7FCF800F018FB27
:103690002046FFF7C5F80028A3D00020BEE7FFF7BB
:1036A000BFF8D8B1206830B9FFF708FD6068FFF7B0
:1036B000E5FDFFF723FD04F124000599FFF7C6FDA2
:1036C0002046FFF7DFF800F0FBFA002889D1C8F8A0
:1036D0000070BFF34F8FBFF36F8F82E72046FFF775
:1036E000D1F800F0EDFA7CE704ED00E070B50D468E
:1036F000040025D0FFF7E2FCD4E90F20216802FB8B
:10370000001161600021A1632168A1600A46D4E92B
:103710000F01401E00FB0121E16021464FF0FF3008
:1037200001F8440F487004F110008DB1FFF794FCCC
:1037300004F12400FFF790FCFFF7E0FC012070BDCE
:10374000502080F31188BFF34F8FBFF36F8FFEE7D8
:1037500021690029F0D000F079FA0028ECD0044962
:103760004FF080500860BFF34F8FBFF36F8FE3E7D8
:1037700004ED00E02DE9FF4782B01D468A464FF078
:103780000008040003D0BAF1000F08D011E0502067
:1037900080F31188BFF34F8FBFF36F8FFEE7206C6C
:1037A00038B1502080F31188BFF34F8FBFF36F8F74
:1037B000FEE7022D0AD1E06B012807D0502080F3EC
:1037C0001188BFF34F8FBFF36F8FFEE700F080F9D2
:1037D0003F4F4FF000094FF0805648B9049838B178
:1037E000502080F31188BFF34F8FBFF36F8FFEE738
:1037F000FFF764FCA06BE16B884207D3022D05D074
:103800000498D0B1B8F1000F1AD01EE02A465146F4
:103810002046FEF71CFF616A19B104F1240000F094
:1038200015FA20B13E60BFF34F8FBFF36F8FFFF7E4
:1038300065FC012006B0BDE8F087FFF75FFC22E0E1
:103840006846FFF75DFD4FF00108FFF757FCFFF7F3
:103850009DFDFFF733FC94F94400401C01D184F82E
:10386000449094F94500401C01D184F84590FFF73D
:1038700045FC04A9684600F0C9F830B12046FFF7BE
:1038800001F800F01DFA0020D4E7FFF717FCA06B49
:10389000E16B884213D1FFF731FC04F11000049969
:1038A000FFF7D4FC2046FEF7EDFF00F009FA0028F0
:1038B0009ED13E60BFF34F8FBFF36F8F98E7FFF746
:1038C0001DFC2046FEF7DEFF00F0FAF990E700004D
:1038D00004ED00E070B50E46040009D0206C78B10C
:1038E000502080F31188BFF34F8FBFF36F8FFEE737
:1038F000502080F31188BFF34F8FBFF36F8FFEE727
:10390000206848B9606838B1502080F31188BFF34F
:103910004F8FBFF36F8FFEE7FFF742FC5020EFF3AE
:10392000118580F31188BFF34F8FBFF36F8FA16BA9
:10393000E06B884218D994F94500491CA163411CE9
:1039400004D0401C84F8450001200EE0606A002885
:10395000FAD004F1240000F079F90028F4D0002E08
:10396000F2D001203060EFE7002085F3118870BDB0
:103970002DE9F04790468946040003D0B9F1000FC5
:1039800008D011E0502080F31188BFF34F8FBFF3B0
:103990006F8FFEE7206C38B1502080F31188BFF3A1
:1039A0004F8FBFF36F8FFEE7FFF7FAFB5020EFF367
:1039B000118680F31188BFF34F8FBFF36F8FA76B12
:1039C000F7B194F9445049462046FEF72DFE7F1E7C
:1039D000A763681C04D06D1C84F84450012010E0DB
:1039E00020690028FAD004F1100000F02FF9002817
:1039F000F4D0B8F1000FF1D00121C8F80010EDE7C4
:103A0000002086F31188BDE8F087000070B50D46F0
:103A1000040019D005B3FFF751FB164AD168286896
:103A2000431C0FD02368126A934202D062688A4214
:103A30001AD96268891A814216D2401A2860204633
:103A4000FFF75EFC002410E0502080F31188BFF3E4
:103A50004F8FBFF36F8FFEE7502080F31188BFF3C5
:103A60004F8FBFF36F8FFEE70124FFF747FB204620
:103A700070BD00007C0000202DE9FF5F8346DDE97A
:103A80000E87994616468A469000FEF731FF0500DC
:103A90001AD05420FEF72CFF040012D02563002119
:103AA000CDE90241CDE900874B46324651465846A2
:103AB000FEF748FE2046FEF727FD012004B0BDE8D2
:103AC000F09F2846FFF72EFB4FF0FF30F6E700008F
:103AD0000548416919B1006B18B1002070470120F9
:103AE00070470220704700007C0000202DE9F04163
:103AF0002E4C0027206B40B1A069401CA061E069FA
:103B000000B101273846BDE8F081E668761CE66022
:103B100013D1606B006838B1502080F31188BFF377
:103B20004F8FBFF36F8FFEE7606BA16B6163A06384
:103B3000206A401C2062FEF781FEA06ADFF87080D8
:103B4000864209D3606B006880B1606BC068C5684D
:103B5000686886420DD2A0622068C06A00EB8001CE
:103B600058F821000128CAD90127C8E74FF0FF30D3
:103B7000F1E7281DFFF75EFAA86A18B105F11800F1
:103B8000FFF758FAE86A0121226981401143216157
:103B900000EB800108EB8100291DFFF783FAE86A3A
:103BA0002168C96A8842CDD30127CBE77C00002079
:103BB000B00F002070B504004FF0000140D0214D3F
:103BC0002868844207D0502080F31188BFF34F8FBC
:103BD000BFF36F8FFEE7A06C38B1401EA064636C2A
:103BE000E26A9A422CD040B12AE0502080F311883A
:103BF000BFF34F8FBFF36F8FFEE7201DFFF71AFA59
:103C0000114A012150B9E06A00EB800352F82330D9
:103C100023B92B6901FA00F083432B61606CE062E9
:103C2000C0F10700A061E06A2B6981401943296156
:103C300000EB800002EB8000211DFFF733FA012129
:103C4000084670BD7C000020B00F00202DE9F04137
:103C5000C068C468ACB104F118000746FFF7EAF980
:103C6000154D286B0126A0B139461448FFF71AFA02
:103C7000E06A2968C96A88421CD90120EE61BDE862
:103C8000F081502080F31188BFF34F8FBFF36F8F07
:103C9000FEE7201DFFF7CEF9E16A2A6906FA01F076
:103CA0001043286101EB81000449B43901EB800025
:103CB000211DDBE70020E2E77C00002064100020EB
:103CC0002DE9F0472C4D00242746286B38B1FFF72B
:103CD000F5F9286B401E2863286B40B146E0502060
:103CE00080F31188BFF34F8FBFF36F8FFEE7A96892
:103CF000224E0120D1B3A6F1B40980463068E8B164
:103D0000F068C46804F11800FFF794F9201DFFF76C
:103D100091F9E06A2A6908FA00F11143296100EB80
:103D2000800109EB8100211DFFF7BCF9E06A2968D9
:103D3000C96A8842E2D3C5F81C80DFE70CB1FEF700
:103D40007DFDAC6944B14646FFF7D0FE00B1EE619F
:103D5000641EF9D10020A861E86938B1084901273B
:103D600038070860BFF34F8FBFF36F8FFFF7C6F9B7
:103D70003846BDE8F08700007C0000206410002079
:103D800004ED00E02C3E0008D12C000802000000E9
:103D900000000000800000003C3E0008452E0008A6
:103DA0000100000000000000800000004C3E000800
:103DB000052A00080000000000000000800000004C
:103DC00000000000000000000102030406070809CB
:103DD00000000000010203046379636C653A2578F2
:103DE0002025782025782025782025782025782002
:103DF00025782025782025782025782020257820F2
:103E000025782025782025782025782025782025DC
:103E100078202578202578202578202020257820D6
:103E20002578202578202578200D0A007379735F86
:103E30006D61696E5F7461736B000000776966691C
:103E40005F726563765F7461736B0000706F776596
:103E5000725F726563765F7461736B007C3E00080D
:103E600000000020BC000000901D0008383F000842
:103E7000BC000020E4130000A01D000800000000AA
:103E80000000000000000000000000000000000032
:103E90000000000000000000000000000000000022
:103EA0000000000000000000000000000000000012
:103EB0000000000000000000000000000000000002
:103EC00000000000010000001000000000000000E1
:103ED00000A24A04000000000000000000000000F2
:103EE00000000000000000000000000000000000D2
:103EF000AAAAAAAA0000000000000000000000001A
:103F000000000000000000000000000000000000B1
:103F100000000000000000000000000000000000A1
:103F20000000000000000000000000000000000091
:083F3000000000000000000089
:04000005080000ED02
:00000001FF
